{
  "contractName": "Countries",
  "abi": [
    {
      "constant": true,
      "inputs": [],
      "name": "owner",
      "outputs": [
        {
          "name": "",
          "type": "address"
        }
      ],
      "payable": false,
      "stateMutability": "view",
      "type": "function"
    },
    {
      "constant": true,
      "inputs": [
        {
          "name": "",
          "type": "bytes2"
        },
        {
          "name": "",
          "type": "uint256"
        },
        {
          "name": "",
          "type": "uint256"
        }
      ],
      "name": "countries",
      "outputs": [
        {
          "name": "",
          "type": "uint256"
        }
      ],
      "payable": false,
      "stateMutability": "view",
      "type": "function"
    },
    {
      "constant": false,
      "inputs": [
        {
          "name": "newOwner",
          "type": "address"
        }
      ],
      "name": "transferOwnership",
      "outputs": [],
      "payable": false,
      "stateMutability": "nonpayable",
      "type": "function"
    },
    {
      "anonymous": false,
      "inputs": [
        {
          "indexed": true,
          "name": "previousOwner",
          "type": "address"
        },
        {
          "indexed": true,
          "name": "newOwner",
          "type": "address"
        }
      ],
      "name": "OwnershipTransferred",
      "type": "event"
    },
    {
      "constant": false,
      "inputs": [
        {
          "name": "country",
          "type": "bytes2"
        },
        {
          "name": "xIndex_",
          "type": "uint256"
        },
        {
          "name": "values",
          "type": "uint256[]"
        }
      ],
      "name": "updateCountry",
      "outputs": [],
      "payable": false,
      "stateMutability": "nonpayable",
      "type": "function"
    },
    {
      "constant": false,
      "inputs": [
        {
          "name": "country",
          "type": "bytes2"
        },
        {
          "name": "xIndexBatch_",
          "type": "uint256[]"
        },
        {
          "name": "valueBatch",
          "type": "bytes"
        }
      ],
      "name": "updateCountryBatch",
      "outputs": [],
      "payable": false,
      "stateMutability": "nonpayable",
      "type": "function"
    },
    {
      "constant": true,
      "inputs": [
        {
          "name": "yArrays",
          "type": "uint256[]"
        }
      ],
      "name": "getYArraysLength",
      "outputs": [
        {
          "name": "yCount_",
          "type": "uint256"
        }
      ],
      "payable": false,
      "stateMutability": "pure",
      "type": "function"
    },
    {
      "constant": true,
      "inputs": [
        {
          "name": "xIndex_",
          "type": "uint256"
        },
        {
          "name": "country",
          "type": "bytes2"
        }
      ],
      "name": "getCountryColumn",
      "outputs": [
        {
          "name": "column_",
          "type": "uint256[]"
        }
      ],
      "payable": false,
      "stateMutability": "view",
      "type": "function"
    },
    {
      "constant": true,
      "inputs": [
        {
          "name": "x18",
          "type": "uint256"
        },
        {
          "name": "y18",
          "type": "uint256"
        }
      ],
      "name": "getParentTile18to12",
      "outputs": [
        {
          "name": "x12_",
          "type": "uint256"
        },
        {
          "name": "y12_",
          "type": "uint256"
        }
      ],
      "payable": false,
      "stateMutability": "pure",
      "type": "function"
    },
    {
      "constant": true,
      "inputs": [
        {
          "name": "x18",
          "type": "uint256"
        },
        {
          "name": "y18",
          "type": "uint256"
        },
        {
          "name": "country",
          "type": "bytes2"
        }
      ],
      "name": "isInsideCountry",
      "outputs": [
        {
          "name": "insideCountry_",
          "type": "bool"
        }
      ],
      "payable": false,
      "stateMutability": "view",
      "type": "function"
    }
  ],
  "bytecode": "0x6080604052336000806101000a81548173ffffffffffffffffffffffffffffffffffffffff021916908373ffffffffffffffffffffffffffffffffffffffff160217905550610bb5806100536000396000f300608060405260043610610099576000357c0100000000000000000000000000000000000000000000000000000000900463ffffffff16806335e501eb1461009e5780638da5cb5b14610118578063c838ba741461016f578063e2030a9414610246578063e5a7318b146102bc578063e6dda5a114610336578063f2fde38b146103d1578063fb860b1e14610414578063fd88dfe514610466575b600080fd5b3480156100aa57600080fd5b506100fe600480360381019080803590602001909291908035906020019092919080357dffffffffffffffffffffffffffffffffffffffffffffffffffffffffffff19169060200190929190505050610513565b604051808215151515815260200191505060405180910390f35b34801561012457600080fd5b5061012d6105de565b604051808273ffffffffffffffffffffffffffffffffffffffff1673ffffffffffffffffffffffffffffffffffffffff16815260200191505060405180910390f35b34801561017b57600080fd5b5061024460048036038101908080357dffffffffffffffffffffffffffffffffffffffffffffffffffffffffffff1916906020019092919080359060200190820180359060200190808060200260200160405190810160405280939291908181526020018383602002808284378201915050505050509192919290803590602001908201803590602001908080601f0160208091040260200160405190810160405280939291908181526020018383808284378201915050505050509192919290505050610603565b005b34801561025257600080fd5b506102a660048036038101908080357dffffffffffffffffffffffffffffffffffffffffffffffffffffffffffff1916906020019092919080359060200190929190803590602001909291905050506106c8565b6040518082815260200191505060405180910390f35b3480156102c857600080fd5b5061032060048036038101908080359060200190820180359060200190808060200260200160405190810160405280939291908181526020018383602002808284378201915050505050509192919290505050610705565b6040518082815260200191505060405180910390f35b34801561034257600080fd5b506103cf60048036038101908080357dffffffffffffffffffffffffffffffffffffffffffffffffffffffffffff191690602001909291908035906020019092919080359060200190820180359060200190808060200260200160405190810160405280939291908181526020018383602002808284378201915050505050509192919290505050610710565b005b3480156103dd57600080fd5b50610412600480360381019080803573ffffffffffffffffffffffffffffffffffffffff169060200190929190505050610819565b005b34801561042057600080fd5b50610449600480360381019080803590602001909291908035906020019092919050505061096e565b604051808381526020018281526020019250505060405180910390f35b34801561047257600080fd5b506104bc6004803603810190808035906020019092919080357dffffffffffffffffffffffffffffffffffffffffffffffffffffffffffff191690602001909291905050506109a4565b6040518080602001828103825283818151815260200191508051906020019060200280838360005b838110156104ff5780820151818401526020810190506104e4565b505050509050019250505060405180910390f35b6000806000606060008060008061052a8b8b61096e565b809750819850505061053c878a6109a4565b945061054785610705565b93506000975060008411156105d057600092505b60028481151561056757fe5b048310156105cf57848381518110151561057d57fe5b906020019060200201519150846001840181518110151561059a57fe5b9060200190602002015190508186101580156105b65750808611155b156105c457600197506105cf565b60028301925061055b565b5b505050505050509392505050565b6000809054906101000a900473ffffffffffffffffffffffffffffffffffffffff1681565b606060008060009054906101000a900473ffffffffffffffffffffffffffffffffffffffff1673ffffffffffffffffffffffffffffffffffffffff163373ffffffffffffffffffffffffffffffffffffffff1614151561066257600080fd5b61066b83610a63565b9150600090505b83518110156106c1576106b485858381518110151561068d57fe5b9060200190602002015184848151811015156106a557fe5b90602001906020020151610710565b8080600101915050610672565b5050505050565b6001602052826000526040600020602052816000526040600020818154811015156106ef57fe5b9060005260206000200160009250925050505481565b600081519050919050565b60008060009054906101000a900473ffffffffffffffffffffffffffffffffffffffff1673ffffffffffffffffffffffffffffffffffffffff163373ffffffffffffffffffffffffffffffffffffffff1614151561076d57600080fd5b600060028281151561077b57fe5b0614151561078857600080fd5b6002825181151561079557fe5b0490508160016000867dffffffffffffffffffffffffffffffffffffffffffffffffffffffffffff19167dffffffffffffffffffffffffffffffffffffffffffffffffffffffffffff1916815260200190815260200160002060008581526020019081526020016000209080519060200190610812929190610b17565b5050505050565b6000809054906101000a900473ffffffffffffffffffffffffffffffffffffffff1673ffffffffffffffffffffffffffffffffffffffff163373ffffffffffffffffffffffffffffffffffffffff1614151561087457600080fd5b600073ffffffffffffffffffffffffffffffffffffffff168173ffffffffffffffffffffffffffffffffffffffff16141515156108b057600080fd5b8073ffffffffffffffffffffffffffffffffffffffff166000809054906101000a900473ffffffffffffffffffffffffffffffffffffffff1673ffffffffffffffffffffffffffffffffffffffff167f8be0079c531659141344cd1fd0a4f28419497f9722a3daafe3b4186f6b6457e060405160405180910390a3806000806101000a81548173ffffffffffffffffffffffffffffffffffffffff021916908373ffffffffffffffffffffffffffffffffffffffff16021790555050565b600080610985604085610b0190919063ffffffff16565b915061099b604084610b0190919063ffffffff16565b90509250929050565b606060016000837dffffffffffffffffffffffffffffffffffffffffffffffffffffffffffff19167dffffffffffffffffffffffffffffffffffffffffffffffffffffffffffff191681526020019081526020016000206000848152602001908152602001600020805480602002602001604051908101604052809291908181526020018280548015610a5657602002820191906000526020600020905b815481526020019060010190808311610a42575b5050505050905092915050565b60606020825104604051915059821060018114610a7f57610a83565b5992505b5080600014610aec5760208301805160008060005b838214610ac95760208202602001850151925082870160208302602001860152825181019050600182019150610a98565b60005b808714610aec576020810286015160208202890152600181019050610acc565b86602002880160405250505050505050919050565b60008183811515610b0e57fe5b04905092915050565b828054828255906000526020600020908101928215610b53579160200282015b82811115610b52578251825591602001919060010190610b37565b5b509050610b609190610b64565b5090565b610b8691905b80821115610b82576000816000905550600101610b6a565b5090565b905600a165627a7a72305820dea36a813872e49a546749330a0bf432a315dd92a3aea1cd58fab5922916673b0029",
  "source": "pragma solidity 0.4.23;\n/* pragma experimental ABIEncoderV2; */\n\nimport 'zeppelin-solidity/contracts/ownership/Ownable.sol';\nimport 'zeppelin-solidity/contracts/math/SafeMath.sol';\n\ncontract Countries is Ownable {\n  using SafeMath for uint256;\n\n  // Matrix of countries (zoom level 12)\n  mapping (bytes2 => mapping(uint => uint[])) public countries;\n\n  function updateCountry(bytes2 country, uint xIndex_, uint[] values)\n    public\n    onlyOwner\n  {\n    require(pairCount % 2 == 0);\n    uint pairCount = values.length / 2;\n    // we need an even amount of array values\n\n\n    // TODO: require zoom level check\n    countries[country][xIndex_] = values;\n  }\n\n  function toArray(bytes _bytes)\n    internal\n    returns (uint[][] _ptr)\n  {\n    assembly {\n      // Should probably do a modulo check to see if there is a zero remainder first\n      let total_bytes := div(mload(_bytes), 0x20)\n\n      _ptr := mload(0x40)\n      switch lt(_ptr, msize())\n      case 1 {\n        _ptr := msize()\n      }\n\n      // if no data goto end\n      jumpi(copy_end, eq(0, total_bytes))\n\n      let start_offset := add(_bytes, 0x20)\n      let num_arrays := mload(start_offset)\n      let array_offset := 0\n      let idx_arrays := 0\n      let num_elements := 0\n\n      // Find the total amount of elements\n      length_start:\n      jumpi(length_end, eq(idx_arrays, num_arrays))\n      array_offset := mload(add(start_offset, add(0x20, mul(idx_arrays,0x20))))\n      // Correct the pointers\n      mstore(add(start_offset, add(0x20, mul(idx_arrays,0x20))), add(_ptr, array_offset))\n      num_elements := add(num_elements, mload(array_offset))\n      idx_arrays := add(idx_arrays, 1)\n      jump(length_start)\n      length_end:\n\n      let idx_bytes := 0\n\n      // Copy all the data to the byte array\n      copy_start:\n      jumpi(copy_end, eq(total_bytes, idx_bytes))\n      mstore(add(_ptr, mul(idx_bytes, 0x20)), mload(add(start_offset, mul(idx_bytes, 0x20))))\n      idx_bytes := add(idx_bytes, 1)\n      jump(copy_start)\n      copy_end:\n\n      // Set the free memory pointer\n      mstore(0x40, add(_ptr, mul(0x20, total_bytes)))\n    }\n  }\n\n  // https://www.youtube.com/watch?v=zkNHRJEuYQg\n  // https://github.com/willitscale/learning-solidity/blob/master/support/NESTED_ARRAYS_NOT_IMPLEMENTED.MD#32-convert-bytes-to-a-nested-array\n  function updateCountryBatch(bytes2 country, uint[] xIndexBatch_, bytes valueBatch)\n    public\n    onlyOwner\n  {\n    uint[][] memory parsed = toArray(valueBatch);\n\n    for (uint i = 0; i < xIndexBatch_.length; i++) {\n      updateCountry(country, xIndexBatch_[i], parsed[i]);\n    }\n  }\n\n  function getYArraysLength(uint[] yArrays)\n    public\n    pure\n    returns (uint yCount_)\n  {\n    yCount_ = yArrays.length;\n  }\n\n  function getCountryColumn(uint xIndex_, bytes2 country)\n    public\n    view\n    returns (uint[] column_)\n  {\n    column_ = countries[country][xIndex_];\n  }\n\n  function getParentTile18to12(uint x18, uint y18)\n    public\n    pure\n    returns (uint x12_, uint y12_)\n  {\n    x12_ = x18.div(2**6);\n    y12_ = y18.div(2**6);\n  }\n\n  function isInsideCountry(uint x18, uint y18, bytes2 country)\n    public\n    view\n    returns (bool insideCountry_)\n  {\n    uint x;\n    uint y;\n    (x, y) = getParentTile18to12(x18, y18);\n\n    uint[] memory yArrays = getCountryColumn(x, country);\n    uint yArraysLen = getYArraysLength(yArrays);\n\n    insideCountry_ = false;\n    if (yArraysLen >  0) {\n      for (uint i = 0; i < yArraysLen / 2; i += 2){\n        uint yLeft = yArrays[i];\n        uint yRight = yArrays[i+1];\n\n        if (y >= yLeft && y <= yRight) {\n          insideCountry_ = true;\n          break;\n        }\n      }\n    }\n  }\n}\n",
  "sourcePath": "/Users/citizenzero/Projects/dether/detherContracts/contracts/map/Countries.sol",
  "compiler": {
    "name": "solc",
    "version": "0.4.23+commit.124ca40d.Emscripten.clang"
  },
  "schemaVersion": "2.0.0",
  "updatedAt": "2018-06-03T20:34:18.243Z"
}