{
  "contractName": "DetherZoning",
  "abi": [
    {
      "constant": true,
      "inputs": [
        {
          "name": "x18",
          "type": "uint256"
        },
        {
          "name": "y18",
          "type": "uint256"
        },
        {
          "name": "country",
          "type": "bytes2"
        }
      ],
      "name": "isInsideCountry",
      "outputs": [
        {
          "name": "insideCountry_",
          "type": "bool"
        }
      ],
      "payable": false,
      "stateMutability": "view",
      "type": "function"
    },
    {
      "constant": true,
      "inputs": [
        {
          "name": "",
          "type": "uint256"
        }
      ],
      "name": "zoneList",
      "outputs": [
        {
          "name": "zoneOwner",
          "type": "address"
        },
        {
          "name": "x",
          "type": "uint256"
        },
        {
          "name": "y",
          "type": "uint256"
        },
        {
          "name": "country",
          "type": "bytes2"
        },
        {
          "name": "exists",
          "type": "bool"
        }
      ],
      "payable": false,
      "stateMutability": "view",
      "type": "function"
    },
    {
      "constant": true,
      "inputs": [],
      "name": "owner",
      "outputs": [
        {
          "name": "",
          "type": "address"
        }
      ],
      "payable": false,
      "stateMutability": "view",
      "type": "function"
    },
    {
      "constant": false,
      "inputs": [
        {
          "name": "country",
          "type": "bytes2"
        },
        {
          "name": "xIndexBatch_",
          "type": "uint256[]"
        },
        {
          "name": "valueBatch",
          "type": "bytes"
        }
      ],
      "name": "updateCountryBatch",
      "outputs": [],
      "payable": false,
      "stateMutability": "nonpayable",
      "type": "function"
    },
    {
      "constant": true,
      "inputs": [
        {
          "name": "",
          "type": "bytes2"
        },
        {
          "name": "",
          "type": "uint256"
        },
        {
          "name": "",
          "type": "uint256"
        }
      ],
      "name": "countries",
      "outputs": [
        {
          "name": "",
          "type": "uint256"
        }
      ],
      "payable": false,
      "stateMutability": "view",
      "type": "function"
    },
    {
      "constant": true,
      "inputs": [
        {
          "name": "yArrays",
          "type": "uint256[]"
        }
      ],
      "name": "getYArraysLength",
      "outputs": [
        {
          "name": "yCount_",
          "type": "uint256"
        }
      ],
      "payable": false,
      "stateMutability": "pure",
      "type": "function"
    },
    {
      "constant": false,
      "inputs": [
        {
          "name": "country",
          "type": "bytes2"
        },
        {
          "name": "xIndex_",
          "type": "uint256"
        },
        {
          "name": "values",
          "type": "uint256[]"
        }
      ],
      "name": "updateCountry",
      "outputs": [],
      "payable": false,
      "stateMutability": "nonpayable",
      "type": "function"
    },
    {
      "constant": false,
      "inputs": [
        {
          "name": "newOwner",
          "type": "address"
        }
      ],
      "name": "transferOwnership",
      "outputs": [],
      "payable": false,
      "stateMutability": "nonpayable",
      "type": "function"
    },
    {
      "constant": true,
      "inputs": [
        {
          "name": "x18",
          "type": "uint256"
        },
        {
          "name": "y18",
          "type": "uint256"
        }
      ],
      "name": "getParentTile18to12",
      "outputs": [
        {
          "name": "x12_",
          "type": "uint256"
        },
        {
          "name": "y12_",
          "type": "uint256"
        }
      ],
      "payable": false,
      "stateMutability": "pure",
      "type": "function"
    },
    {
      "constant": true,
      "inputs": [
        {
          "name": "xIndex_",
          "type": "uint256"
        },
        {
          "name": "country",
          "type": "bytes2"
        }
      ],
      "name": "getCountryColumn",
      "outputs": [
        {
          "name": "column_",
          "type": "uint256[]"
        }
      ],
      "payable": false,
      "stateMutability": "view",
      "type": "function"
    },
    {
      "anonymous": false,
      "inputs": [
        {
          "indexed": true,
          "name": "previousOwner",
          "type": "address"
        },
        {
          "indexed": true,
          "name": "newOwner",
          "type": "address"
        }
      ],
      "name": "OwnershipTransferred",
      "type": "event"
    },
    {
      "constant": true,
      "inputs": [],
      "name": "getZoneCount",
      "outputs": [
        {
          "name": "zoneCount_",
          "type": "uint256"
        }
      ],
      "payable": false,
      "stateMutability": "view",
      "type": "function"
    },
    {
      "constant": true,
      "inputs": [
        {
          "name": "x18",
          "type": "uint256"
        },
        {
          "name": "y18",
          "type": "uint256"
        }
      ],
      "name": "doesZoneExist",
      "outputs": [
        {
          "name": "zoneExists_",
          "type": "bool"
        }
      ],
      "payable": false,
      "stateMutability": "view",
      "type": "function"
    },
    {
      "constant": false,
      "inputs": [
        {
          "name": "x18",
          "type": "uint256"
        },
        {
          "name": "y18",
          "type": "uint256"
        },
        {
          "name": "country",
          "type": "bytes2"
        }
      ],
      "name": "createZone",
      "outputs": [],
      "payable": false,
      "stateMutability": "nonpayable",
      "type": "function"
    },
    {
      "constant": true,
      "inputs": [
        {
          "name": "x18",
          "type": "uint256"
        },
        {
          "name": "y18",
          "type": "uint256"
        }
      ],
      "name": "getZoneOwner",
      "outputs": [
        {
          "name": "zoneOwner_",
          "type": "address"
        }
      ],
      "payable": false,
      "stateMutability": "view",
      "type": "function"
    }
  ],
  "bytecode": "0x6080604052336000806101000a81548173ffffffffffffffffffffffffffffffffffffffff021916908373ffffffffffffffffffffffffffffffffffffffff1602179055506113d4806100536000396000f3006080604052600436106100d0576000357c0100000000000000000000000000000000000000000000000000000000900463ffffffff16806328d60650146100d557806335e501eb146101375780633b260aa2146101b157806354888fbb146101dc5780638da5cb5b146102ab57806390b2bf4314610302578063a4fd4f4714610379578063c838ba74146103c8578063e2030a941461049f578063e5a7318b14610515578063e6dda5a11461058f578063f2fde38b1461062a578063fb860b1e1461066d578063fd88dfe5146106bf575b600080fd5b3480156100e157600080fd5b50610135600480360381019080803590602001909291908035906020019092919080357dffffffffffffffffffffffffffffffffffffffffffffffffffffffffffff1916906020019092919050505061076c565b005b34801561014357600080fd5b50610197600480360381019080803590602001909291908035906020019092919080357dffffffffffffffffffffffffffffffffffffffffffffffffffffffffffff19169060200190929190505050610ab3565b604051808215151515815260200191505060405180910390f35b3480156101bd57600080fd5b506101c6610b7e565b6040518082815260200191505060405180910390f35b3480156101e857600080fd5b5061020760048036038101908080359060200190929190505050610b8b565b604051808673ffffffffffffffffffffffffffffffffffffffff1673ffffffffffffffffffffffffffffffffffffffff168152602001858152602001848152602001837dffffffffffffffffffffffffffffffffffffffffffffffffffffffffffff19167dffffffffffffffffffffffffffffffffffffffffffffffffffffffffffff19168152602001821515151581526020019550505050505060405180910390f35b3480156102b757600080fd5b506102c0610c28565b604051808273ffffffffffffffffffffffffffffffffffffffff1673ffffffffffffffffffffffffffffffffffffffff16815260200191505060405180910390f35b34801561030e57600080fd5b506103376004803603810190808035906020019092919080359060200190929190505050610c4d565b604051808273ffffffffffffffffffffffffffffffffffffffff1673ffffffffffffffffffffffffffffffffffffffff16815260200191505060405180910390f35b34801561038557600080fd5b506103ae6004803603810190808035906020019092919080359060200190929190505050610d32565b604051808215151515815260200191505060405180910390f35b3480156103d457600080fd5b5061049d60048036038101908080357dffffffffffffffffffffffffffffffffffffffffffffffffffffffffffff1916906020019092919080359060200190820180359060200190808060200260200160405190810160405280939291908181526020018383602002808284378201915050505050509192919290803590602001908201803590602001908080601f0160208091040260200160405190810160405280939291908181526020018383808284378201915050505050509192919290505050610db9565b005b3480156104ab57600080fd5b506104ff60048036038101908080357dffffffffffffffffffffffffffffffffffffffffffffffffffffffffffff191690602001909291908035906020019092919080359060200190929190505050610e7e565b6040518082815260200191505060405180910390f35b34801561052157600080fd5b5061057960048036038101908080359060200190820180359060200190808060200260200160405190810160405280939291908181526020018383602002808284378201915050505050509192919290505050610ebb565b6040518082815260200191505060405180910390f35b34801561059b57600080fd5b5061062860048036038101908080357dffffffffffffffffffffffffffffffffffffffffffffffffffffffffffff191690602001909291908035906020019092919080359060200190820180359060200190808060200260200160405190810160405280939291908181526020018383602002808284378201915050505050509192919290505050610ec6565b005b34801561063657600080fd5b5061066b600480360381019080803573ffffffffffffffffffffffffffffffffffffffff169060200190929190505050610fcf565b005b34801561067957600080fd5b506106a26004803603810190808035906020019092919080359060200190929190505050611124565b604051808381526020018281526020019250505060405180910390f35b3480156106cb57600080fd5b506107156004803603810190808035906020019092919080357dffffffffffffffffffffffffffffffffffffffffffffffffffffffffffff1916906020019092919050505061115a565b6040518080602001828103825283818151815260200191508051906020019060200280838360005b8381101561075857808201518184015260208101905061073d565b505050509050019250505060405180910390f35b6107746112cd565b6000809054906101000a900473ffffffffffffffffffffffffffffffffffffffff1673ffffffffffffffffffffffffffffffffffffffff163373ffffffffffffffffffffffffffffffffffffffff161415156107cf57600080fd5b83600081101515156107e057600080fd5b6204000081111515156107f257600080fd5b836000811015151561080357600080fd5b62040000811115151561081557600080fd5b85856000151560036000848152602001908152602001600020600083815260200190815260200160002060030160029054906101000a900460ff16151514151561085e57600080fd5b610869888888610ab3565b151561087457600080fd5b60a0604051908101604052803373ffffffffffffffffffffffffffffffffffffffff168152602001898152602001888152602001877dffffffffffffffffffffffffffffffffffffffffffffffffffffffffffff191681526020016001151581525094506002859080600181540180825580915050906001820390600052602060002090600402016000909192909190915060008201518160000160006101000a81548173ffffffffffffffffffffffffffffffffffffffff021916908373ffffffffffffffffffffffffffffffffffffffff160217905550602082015181600101556040820151816002015560608201518160030160006101000a81548161ffff02191690837e010000000000000000000000000000000000000000000000000000000000009004021790555060808201518160030160026101000a81548160ff02191690831515021790555050505084600360008a8152602001908152602001600020600089815260200190815260200160002060008201518160000160006101000a81548173ffffffffffffffffffffffffffffffffffffffff021916908373ffffffffffffffffffffffffffffffffffffffff160217905550602082015181600101556040820151816002015560608201518160030160006101000a81548161ffff02191690837e010000000000000000000000000000000000000000000000000000000000009004021790555060808201518160030160026101000a81548160ff0219169083151502179055509050505050505050505050565b60008060006060600080600080610aca8b8b611124565b8097508198505050610adc878a61115a565b9450610ae785610ebb565b9350600097506000841115610b7057600092505b600284811515610b0757fe5b04831015610b6f578483815181101515610b1d57fe5b9060200190602002015191508460018401815181101515610b3a57fe5b906020019060200201519050818610158015610b565750808611155b15610b645760019750610b6f565b600283019250610afb565b5b505050505050509392505050565b6000600280549050905090565b600281815481101515610b9a57fe5b90600052602060002090600402016000915090508060000160009054906101000a900473ffffffffffffffffffffffffffffffffffffffff16908060010154908060020154908060030160009054906101000a90047e0100000000000000000000000000000000000000000000000000000000000002908060030160029054906101000a900460ff16905085565b6000809054906101000a900473ffffffffffffffffffffffffffffffffffffffff1681565b60008260008110151515610c6057600080fd5b620400008111151515610c7257600080fd5b8260008110151515610c8357600080fd5b620400008111151515610c9557600080fd5b84846001151560036000848152602001908152602001600020600083815260200190815260200160002060030160029054906101000a900460ff161515141515610cde57600080fd5b60036000888152602001908152602001600020600087815260200190815260200160002060000160009054906101000a900473ffffffffffffffffffffffffffffffffffffffff1694505050505092915050565b60008260008110151515610d4557600080fd5b620400008111151515610d5757600080fd5b8260008110151515610d6857600080fd5b620400008111151515610d7a57600080fd5b60036000868152602001908152602001600020600085815260200190815260200160002060030160029054906101000a900460ff169250505092915050565b606060008060009054906101000a900473ffffffffffffffffffffffffffffffffffffffff1673ffffffffffffffffffffffffffffffffffffffff163373ffffffffffffffffffffffffffffffffffffffff16141515610e1857600080fd5b610e2183611219565b9150600090505b8351811015610e7757610e6a858583815181101515610e4357fe5b906020019060200201518484815181101515610e5b57fe5b90602001906020020151610ec6565b8080600101915050610e28565b5050505050565b600160205282600052604060002060205281600052604060002081815481101515610ea557fe5b9060005260206000200160009250925050505481565b600081519050919050565b60008060009054906101000a900473ffffffffffffffffffffffffffffffffffffffff1673ffffffffffffffffffffffffffffffffffffffff163373ffffffffffffffffffffffffffffffffffffffff16141515610f2357600080fd5b6000600282811515610f3157fe5b06141515610f3e57600080fd5b60028251811515610f4b57fe5b0490508160016000867dffffffffffffffffffffffffffffffffffffffffffffffffffffffffffff19167dffffffffffffffffffffffffffffffffffffffffffffffffffffffffffff1916815260200190815260200160002060008581526020019081526020016000209080519060200190610fc8929190611336565b5050505050565b6000809054906101000a900473ffffffffffffffffffffffffffffffffffffffff1673ffffffffffffffffffffffffffffffffffffffff163373ffffffffffffffffffffffffffffffffffffffff1614151561102a57600080fd5b600073ffffffffffffffffffffffffffffffffffffffff168173ffffffffffffffffffffffffffffffffffffffff161415151561106657600080fd5b8073ffffffffffffffffffffffffffffffffffffffff166000809054906101000a900473ffffffffffffffffffffffffffffffffffffffff1673ffffffffffffffffffffffffffffffffffffffff167f8be0079c531659141344cd1fd0a4f28419497f9722a3daafe3b4186f6b6457e060405160405180910390a3806000806101000a81548173ffffffffffffffffffffffffffffffffffffffff021916908373ffffffffffffffffffffffffffffffffffffffff16021790555050565b60008061113b6040856112b790919063ffffffff16565b91506111516040846112b790919063ffffffff16565b90509250929050565b606060016000837dffffffffffffffffffffffffffffffffffffffffffffffffffffffffffff19167dffffffffffffffffffffffffffffffffffffffffffffffffffffffffffff19168152602001908152602001600020600084815260200190815260200160002080548060200260200160405190810160405280929190818152602001828054801561120c57602002820191906000526020600020905b8154815260200190600101908083116111f8575b5050505050905092915050565b6060602082510460405191505982106001811461123557611239565b5992505b50806000146112a25760208301805160008060005b83821461127f576020820260200185015192508287016020830260200186015282518101905060018201915061124e565b60005b8087146112a2576020810286015160208202890152600181019050611282565b86602002880160405250505050505050919050565b600081838115156112c457fe5b04905092915050565b60a060405190810160405280600073ffffffffffffffffffffffffffffffffffffffff168152602001600081526020016000815260200160007dffffffffffffffffffffffffffffffffffffffffffffffffffffffffffff191681526020016000151581525090565b828054828255906000526020600020908101928215611372579160200282015b82811115611371578251825591602001919060010190611356565b5b50905061137f9190611383565b5090565b6113a591905b808211156113a1576000816000905550600101611389565b5090565b905600a165627a7a7230582095f92e4d1cbc8f767234594e160c6cef0b79f5fdaf99c1403dee45553c2e3cc60029",
  "source": "pragma solidity 0.4.23;\n\n// contract\nimport 'zeppelin-solidity/contracts/ownership/Ownable.sol';\nimport './Countries.sol';\n\ncontract DetherZoning is Ownable, Countries  {\n    struct Zone {\n      address zoneOwner;\n      uint x;\n      uint y;\n      bytes2 country;\n      bool exists;\n    }\n\n    Zone[] public zoneList;\n\n    //      x18             y18     the zone\n    mapping(uint => mapping(uint => Zone)) internal zoneMapping;\n\n    modifier validX18(uint x18) {\n      require(x18 >= 0);\n      require(x18 <= 262144); // 68,719,476,736 tiles at zoom level 18, square root\n      _;\n    }\n\n    modifier validY18(uint y18) {\n      require(y18 >= 0);\n      require(y18 <= 262144); // 68,719,476,736 tiles at zoom level 18, square root\n      _;\n    }\n\n    modifier zoneExists(uint x18, uint y18) {\n      require(zoneMapping[x18][y18].exists == true);\n      _;\n    }\n\n    modifier zoneDoesNotExist(uint x18, uint y18) {\n      require(zoneMapping[x18][y18].exists == false);\n      _;\n    }\n\n    function getZoneCount()\n      public\n      view\n      returns (uint zoneCount_)\n    {\n      zoneCount_ = zoneList.length;\n    }\n\n    function doesZoneExist(uint x18, uint y18)\n      public\n      validX18(x18)\n      validY18(y18)\n      view\n      returns (bool zoneExists_)\n    {\n      zoneExists_ = zoneMapping[x18][y18].exists;\n    }\n\n    function createZone(uint x18, uint y18, bytes2 country)\n      public\n      onlyOwner\n      validX18(x18)\n      validY18(y18)\n      zoneDoesNotExist(x18, y18)\n    {\n      require(isInsideCountry(x18, y18, country));\n\n      Zone memory zone = Zone(msg.sender, x18, y18, country, true);\n      zoneList.push(zone);\n      zoneMapping[x18][y18] = zone;\n    }\n\n    function getZoneOwner(uint x18, uint y18)\n      public\n      view\n      validX18(x18)\n      validY18(y18)\n      zoneExists(x18, y18)\n      returns (address zoneOwner_)\n    {\n      zoneOwner_ = zoneMapping[x18][y18].zoneOwner;\n    }\n\n    /* function claimZone(uint x18, uint y18, uint loyaltyPointsClaimer, uint loyaltyPointsOwner)\n      public\n      validX18(x18)\n      validY18(y18)\n      zoneExists(x18, y18)\n      onlyOwner\n      returns (bool claimedZone_)\n    {\n      Zone memory zone = zoneMapping[x18][y18];\n\n      require(claimerloyaltyPoints > ownerLoyaltyPoint);\n      zoneMapping[zoneId].zoneOwner = msg.sender;\n\n      claimedZone_ = true;\n    } */\n}\n",
  "sourcePath": "/Users/citizenzero/Projects/dether/detherContracts/contracts/map/DetherZoning.sol",
  "compiler": {
    "name": "solc",
    "version": "0.4.23+commit.124ca40d.Emscripten.clang"
  },
  "schemaVersion": "2.0.0",
  "updatedAt": "2018-06-03T20:34:18.245Z"
}