{
  "contractName": "DetherCore",
  "abi": [
    {
      "constant": true,
      "inputs": [],
      "name": "zoning",
      "outputs": [
        {
          "name": "",
          "type": "address"
        }
      ],
      "payable": false,
      "stateMutability": "view",
      "type": "function"
    },
    {
      "constant": true,
      "inputs": [],
      "name": "dth",
      "outputs": [
        {
          "name": "",
          "type": "address"
        }
      ],
      "payable": false,
      "stateMutability": "view",
      "type": "function"
    },
    {
      "constant": true,
      "inputs": [],
      "name": "cfoAddress",
      "outputs": [
        {
          "name": "",
          "type": "address"
        }
      ],
      "payable": false,
      "stateMutability": "view",
      "type": "function"
    },
    {
      "constant": true,
      "inputs": [],
      "name": "ceoAddress",
      "outputs": [
        {
          "name": "",
          "type": "address"
        }
      ],
      "payable": false,
      "stateMutability": "view",
      "type": "function"
    },
    {
      "constant": true,
      "inputs": [],
      "name": "kycCertifier",
      "outputs": [
        {
          "name": "",
          "type": "address"
        }
      ],
      "payable": false,
      "stateMutability": "view",
      "type": "function"
    },
    {
      "constant": true,
      "inputs": [
        {
          "name": "",
          "type": "bytes2"
        }
      ],
      "name": "licenceShop",
      "outputs": [
        {
          "name": "",
          "type": "uint256"
        }
      ],
      "payable": false,
      "stateMutability": "view",
      "type": "function"
    },
    {
      "constant": false,
      "inputs": [
        {
          "name": "_country",
          "type": "bytes2"
        }
      ],
      "name": "openZoneTeller",
      "outputs": [],
      "payable": false,
      "stateMutability": "nonpayable",
      "type": "function"
    },
    {
      "constant": false,
      "inputs": [
        {
          "name": "_newCMO",
          "type": "address"
        }
      ],
      "name": "setCMO",
      "outputs": [],
      "payable": false,
      "stateMutability": "nonpayable",
      "type": "function"
    },
    {
      "constant": false,
      "inputs": [
        {
          "name": "_newCSO",
          "type": "address"
        }
      ],
      "name": "setCSO",
      "outputs": [],
      "payable": false,
      "stateMutability": "nonpayable",
      "type": "function"
    },
    {
      "constant": true,
      "inputs": [],
      "name": "csoAddress",
      "outputs": [
        {
          "name": "",
          "type": "address"
        }
      ],
      "payable": false,
      "stateMutability": "view",
      "type": "function"
    },
    {
      "constant": true,
      "inputs": [],
      "name": "priceOracle",
      "outputs": [
        {
          "name": "",
          "type": "address"
        }
      ],
      "payable": false,
      "stateMutability": "view",
      "type": "function"
    },
    {
      "constant": false,
      "inputs": [
        {
          "name": "_newCEO",
          "type": "address"
        }
      ],
      "name": "setCEO",
      "outputs": [],
      "payable": false,
      "stateMutability": "nonpayable",
      "type": "function"
    },
    {
      "constant": true,
      "inputs": [
        {
          "name": "_user",
          "type": "address"
        }
      ],
      "name": "isTier2",
      "outputs": [
        {
          "name": "",
          "type": "bool"
        }
      ],
      "payable": false,
      "stateMutability": "view",
      "type": "function"
    },
    {
      "constant": true,
      "inputs": [],
      "name": "smsCertifier",
      "outputs": [
        {
          "name": "",
          "type": "address"
        }
      ],
      "payable": false,
      "stateMutability": "view",
      "type": "function"
    },
    {
      "constant": false,
      "inputs": [],
      "name": "unpause",
      "outputs": [],
      "payable": false,
      "stateMutability": "nonpayable",
      "type": "function"
    },
    {
      "constant": false,
      "inputs": [
        {
          "name": "_newCFO",
          "type": "address"
        }
      ],
      "name": "setCFO",
      "outputs": [],
      "payable": false,
      "stateMutability": "nonpayable",
      "type": "function"
    },
    {
      "constant": false,
      "inputs": [
        {
          "name": "_moderator",
          "type": "address"
        }
      ],
      "name": "removeShopModerator",
      "outputs": [],
      "payable": false,
      "stateMutability": "nonpayable",
      "type": "function"
    },
    {
      "constant": true,
      "inputs": [],
      "name": "paused",
      "outputs": [
        {
          "name": "",
          "type": "bool"
        }
      ],
      "payable": false,
      "stateMutability": "view",
      "type": "function"
    },
    {
      "constant": false,
      "inputs": [
        {
          "name": "_country",
          "type": "bytes2"
        }
      ],
      "name": "openZoneShop",
      "outputs": [],
      "payable": false,
      "stateMutability": "nonpayable",
      "type": "function"
    },
    {
      "constant": true,
      "inputs": [
        {
          "name": "",
          "type": "address"
        }
      ],
      "name": "shopModerators",
      "outputs": [
        {
          "name": "",
          "type": "bool"
        }
      ],
      "payable": false,
      "stateMutability": "view",
      "type": "function"
    },
    {
      "constant": true,
      "inputs": [
        {
          "name": "",
          "type": "bytes2"
        }
      ],
      "name": "openedCountryShop",
      "outputs": [
        {
          "name": "",
          "type": "bool"
        }
      ],
      "payable": false,
      "stateMutability": "view",
      "type": "function"
    },
    {
      "constant": true,
      "inputs": [],
      "name": "bank",
      "outputs": [
        {
          "name": "",
          "type": "address"
        }
      ],
      "payable": false,
      "stateMutability": "view",
      "type": "function"
    },
    {
      "constant": true,
      "inputs": [
        {
          "name": "_user",
          "type": "address"
        }
      ],
      "name": "isTier1",
      "outputs": [
        {
          "name": "",
          "type": "bool"
        }
      ],
      "payable": false,
      "stateMutability": "view",
      "type": "function"
    },
    {
      "constant": false,
      "inputs": [
        {
          "name": "_moderator",
          "type": "address"
        }
      ],
      "name": "setShopModerator",
      "outputs": [],
      "payable": false,
      "stateMutability": "nonpayable",
      "type": "function"
    },
    {
      "constant": false,
      "inputs": [],
      "name": "pause",
      "outputs": [],
      "payable": false,
      "stateMutability": "nonpayable",
      "type": "function"
    },
    {
      "constant": true,
      "inputs": [
        {
          "name": "",
          "type": "uint256"
        }
      ],
      "name": "shopIndex",
      "outputs": [
        {
          "name": "",
          "type": "address"
        }
      ],
      "payable": false,
      "stateMutability": "view",
      "type": "function"
    },
    {
      "constant": true,
      "inputs": [],
      "name": "cmoAddress",
      "outputs": [
        {
          "name": "",
          "type": "address"
        }
      ],
      "payable": false,
      "stateMutability": "view",
      "type": "function"
    },
    {
      "constant": true,
      "inputs": [
        {
          "name": "",
          "type": "uint256"
        }
      ],
      "name": "tellerIndex",
      "outputs": [
        {
          "name": "",
          "type": "address"
        }
      ],
      "payable": false,
      "stateMutability": "view",
      "type": "function"
    },
    {
      "constant": false,
      "inputs": [
        {
          "name": "country",
          "type": "bytes2"
        },
        {
          "name": "price",
          "type": "uint256"
        }
      ],
      "name": "setLicenceShopPrice",
      "outputs": [],
      "payable": false,
      "stateMutability": "nonpayable",
      "type": "function"
    },
    {
      "constant": false,
      "inputs": [
        {
          "name": "_country",
          "type": "bytes2"
        }
      ],
      "name": "closeZoneTeller",
      "outputs": [],
      "payable": false,
      "stateMutability": "nonpayable",
      "type": "function"
    },
    {
      "constant": false,
      "inputs": [
        {
          "name": "_moderator",
          "type": "address"
        }
      ],
      "name": "removeTellerModerator",
      "outputs": [],
      "payable": false,
      "stateMutability": "nonpayable",
      "type": "function"
    },
    {
      "constant": false,
      "inputs": [
        {
          "name": "_country",
          "type": "bytes2"
        }
      ],
      "name": "closeZoneShop",
      "outputs": [],
      "payable": false,
      "stateMutability": "nonpayable",
      "type": "function"
    },
    {
      "constant": true,
      "inputs": [
        {
          "name": "",
          "type": "address"
        }
      ],
      "name": "tellerModerators",
      "outputs": [
        {
          "name": "",
          "type": "bool"
        }
      ],
      "payable": false,
      "stateMutability": "view",
      "type": "function"
    },
    {
      "constant": true,
      "inputs": [
        {
          "name": "",
          "type": "bytes2"
        }
      ],
      "name": "openedCountryTeller",
      "outputs": [
        {
          "name": "",
          "type": "bool"
        }
      ],
      "payable": false,
      "stateMutability": "view",
      "type": "function"
    },
    {
      "constant": false,
      "inputs": [
        {
          "name": "_moderator",
          "type": "address"
        }
      ],
      "name": "setTellerModerator",
      "outputs": [],
      "payable": false,
      "stateMutability": "nonpayable",
      "type": "function"
    },
    {
      "constant": true,
      "inputs": [],
      "name": "run2",
      "outputs": [
        {
          "name": "",
          "type": "bool"
        }
      ],
      "payable": false,
      "stateMutability": "view",
      "type": "function"
    },
    {
      "constant": false,
      "inputs": [
        {
          "name": "_kycCertifier",
          "type": "address"
        }
      ],
      "name": "setKycCertifier",
      "outputs": [],
      "payable": false,
      "stateMutability": "nonpayable",
      "type": "function"
    },
    {
      "constant": false,
      "inputs": [
        {
          "name": "country",
          "type": "bytes2"
        },
        {
          "name": "price",
          "type": "uint256"
        }
      ],
      "name": "setLicenceTellerPrice",
      "outputs": [],
      "payable": false,
      "stateMutability": "nonpayable",
      "type": "function"
    },
    {
      "constant": true,
      "inputs": [
        {
          "name": "",
          "type": "bytes2"
        }
      ],
      "name": "licenceTeller",
      "outputs": [
        {
          "name": "",
          "type": "uint256"
        }
      ],
      "payable": false,
      "stateMutability": "view",
      "type": "function"
    },
    {
      "constant": true,
      "inputs": [],
      "name": "run1",
      "outputs": [
        {
          "name": "",
          "type": "bool"
        }
      ],
      "payable": false,
      "stateMutability": "view",
      "type": "function"
    },
    {
      "constant": false,
      "inputs": [
        {
          "name": "_smsCertifier",
          "type": "address"
        }
      ],
      "name": "setSmsCertifier",
      "outputs": [],
      "payable": false,
      "stateMutability": "nonpayable",
      "type": "function"
    },
    {
      "inputs": [],
      "payable": false,
      "stateMutability": "nonpayable",
      "type": "constructor"
    },
    {
      "anonymous": false,
      "inputs": [
        {
          "indexed": true,
          "name": "tellerAddress",
          "type": "address"
        }
      ],
      "name": "RegisterTeller",
      "type": "event"
    },
    {
      "anonymous": false,
      "inputs": [
        {
          "indexed": true,
          "name": "tellerAddress",
          "type": "address"
        }
      ],
      "name": "DeleteTeller",
      "type": "event"
    },
    {
      "anonymous": false,
      "inputs": [
        {
          "indexed": true,
          "name": "tellerAddress",
          "type": "address"
        }
      ],
      "name": "UpdateTeller",
      "type": "event"
    },
    {
      "anonymous": false,
      "inputs": [
        {
          "indexed": true,
          "name": "_from",
          "type": "address"
        },
        {
          "indexed": true,
          "name": "_to",
          "type": "address"
        },
        {
          "indexed": false,
          "name": "amount",
          "type": "uint256"
        }
      ],
      "name": "Sent",
      "type": "event"
    },
    {
      "anonymous": false,
      "inputs": [
        {
          "indexed": false,
          "name": "shopAddress",
          "type": "address"
        }
      ],
      "name": "RegisterShop",
      "type": "event"
    },
    {
      "anonymous": false,
      "inputs": [
        {
          "indexed": false,
          "name": "shopAddress",
          "type": "address"
        }
      ],
      "name": "DeleteShop",
      "type": "event"
    },
    {
      "anonymous": false,
      "inputs": [
        {
          "indexed": true,
          "name": "moderator",
          "type": "address"
        },
        {
          "indexed": false,
          "name": "shopAddress",
          "type": "address"
        }
      ],
      "name": "DeleteShopModerator",
      "type": "event"
    },
    {
      "anonymous": false,
      "inputs": [
        {
          "indexed": true,
          "name": "moderator",
          "type": "address"
        },
        {
          "indexed": false,
          "name": "tellerAddress",
          "type": "address"
        }
      ],
      "name": "DeleteTellerModerator",
      "type": "event"
    },
    {
      "anonymous": false,
      "inputs": [
        {
          "indexed": false,
          "name": "newContract",
          "type": "address"
        }
      ],
      "name": "ContractUpgrade",
      "type": "event"
    },
    {
      "constant": false,
      "inputs": [
        {
          "name": "_dth",
          "type": "address"
        },
        {
          "name": "_bank",
          "type": "address"
        },
        {
          "name": "_zone",
          "type": "address"
        }
      ],
      "name": "initContract",
      "outputs": [],
      "payable": false,
      "stateMutability": "nonpayable",
      "type": "function"
    },
    {
      "constant": false,
      "inputs": [
        {
          "name": "_priceOracle",
          "type": "address"
        }
      ],
      "name": "setPriceOracle",
      "outputs": [],
      "payable": false,
      "stateMutability": "nonpayable",
      "type": "function"
    },
    {
      "constant": false,
      "inputs": [
        {
          "name": "_from",
          "type": "address"
        },
        {
          "name": "_value",
          "type": "uint256"
        },
        {
          "name": "_data",
          "type": "bytes"
        }
      ],
      "name": "tokenFallback",
      "outputs": [],
      "payable": false,
      "stateMutability": "nonpayable",
      "type": "function"
    },
    {
      "constant": false,
      "inputs": [
        {
          "name": "currencyId",
          "type": "int8"
        },
        {
          "name": "messenger",
          "type": "bytes16"
        },
        {
          "name": "avatarId",
          "type": "int8"
        },
        {
          "name": "rates",
          "type": "int16"
        },
        {
          "name": "online",
          "type": "bool"
        }
      ],
      "name": "updateTeller",
      "outputs": [],
      "payable": true,
      "stateMutability": "payable",
      "type": "function"
    },
    {
      "constant": false,
      "inputs": [
        {
          "name": "_tier",
          "type": "uint256"
        },
        {
          "name": "_countryId",
          "type": "bytes2"
        },
        {
          "name": "_limitUsd",
          "type": "uint256"
        }
      ],
      "name": "setSellDailyLimit",
      "outputs": [],
      "payable": false,
      "stateMutability": "nonpayable",
      "type": "function"
    },
    {
      "constant": true,
      "inputs": [
        {
          "name": "_tier",
          "type": "uint256"
        },
        {
          "name": "_countryId",
          "type": "bytes2"
        }
      ],
      "name": "getSellDailyLimit",
      "outputs": [
        {
          "name": "limitUsd",
          "type": "uint256"
        }
      ],
      "payable": false,
      "stateMutability": "view",
      "type": "function"
    },
    {
      "constant": true,
      "inputs": [
        {
          "name": "_from",
          "type": "address"
        },
        {
          "name": "_to",
          "type": "address"
        }
      ],
      "name": "getPairSellLoyaltyPerc",
      "outputs": [
        {
          "name": "",
          "type": "uint256"
        }
      ],
      "payable": false,
      "stateMutability": "view",
      "type": "function"
    },
    {
      "constant": true,
      "inputs": [
        {
          "name": "who",
          "type": "address"
        }
      ],
      "name": "getLoyaltyPoints",
      "outputs": [
        {
          "name": "",
          "type": "uint256"
        }
      ],
      "payable": false,
      "stateMutability": "view",
      "type": "function"
    },
    {
      "constant": false,
      "inputs": [
        {
          "name": "_to",
          "type": "address"
        },
        {
          "name": "_amount",
          "type": "uint256"
        }
      ],
      "name": "sellEth",
      "outputs": [],
      "payable": false,
      "stateMutability": "nonpayable",
      "type": "function"
    },
    {
      "constant": false,
      "inputs": [
        {
          "name": "_status",
          "type": "bool"
        }
      ],
      "name": "switchStatus",
      "outputs": [],
      "payable": false,
      "stateMutability": "nonpayable",
      "type": "function"
    },
    {
      "constant": false,
      "inputs": [],
      "name": "addFunds",
      "outputs": [],
      "payable": true,
      "stateMutability": "payable",
      "type": "function"
    },
    {
      "constant": false,
      "inputs": [],
      "name": "deleteTeller",
      "outputs": [],
      "payable": false,
      "stateMutability": "nonpayable",
      "type": "function"
    },
    {
      "constant": false,
      "inputs": [
        {
          "name": "_toDelete",
          "type": "address"
        }
      ],
      "name": "deleteTellerMods",
      "outputs": [],
      "payable": false,
      "stateMutability": "nonpayable",
      "type": "function"
    },
    {
      "constant": false,
      "inputs": [],
      "name": "deleteShop",
      "outputs": [],
      "payable": false,
      "stateMutability": "nonpayable",
      "type": "function"
    },
    {
      "constant": false,
      "inputs": [
        {
          "name": "_toDelete",
          "type": "address"
        }
      ],
      "name": "deleteShopMods",
      "outputs": [],
      "payable": false,
      "stateMutability": "nonpayable",
      "type": "function"
    },
    {
      "constant": true,
      "inputs": [
        {
          "name": "_teller",
          "type": "address"
        }
      ],
      "name": "getTeller",
      "outputs": [
        {
          "name": "x18",
          "type": "uint256"
        },
        {
          "name": "y18",
          "type": "uint256"
        },
        {
          "name": "countryId",
          "type": "bytes2"
        },
        {
          "name": "currencyId",
          "type": "int8"
        },
        {
          "name": "messenger",
          "type": "bytes16"
        },
        {
          "name": "avatarId",
          "type": "int8"
        },
        {
          "name": "rates",
          "type": "int16"
        },
        {
          "name": "balance",
          "type": "uint256"
        },
        {
          "name": "online",
          "type": "bool"
        },
        {
          "name": "buyer",
          "type": "bool"
        },
        {
          "name": "buyRates",
          "type": "int16"
        }
      ],
      "payable": false,
      "stateMutability": "view",
      "type": "function"
    },
    {
      "constant": true,
      "inputs": [
        {
          "name": "_shop",
          "type": "address"
        }
      ],
      "name": "getShop",
      "outputs": [
        {
          "name": "lat",
          "type": "int32"
        },
        {
          "name": "lng",
          "type": "int32"
        },
        {
          "name": "countryId",
          "type": "bytes2"
        },
        {
          "name": "postalCode",
          "type": "bytes16"
        },
        {
          "name": "cat",
          "type": "bytes16"
        },
        {
          "name": "name",
          "type": "bytes16"
        },
        {
          "name": "description",
          "type": "bytes32"
        },
        {
          "name": "opening",
          "type": "bytes16"
        }
      ],
      "payable": false,
      "stateMutability": "view",
      "type": "function"
    },
    {
      "constant": true,
      "inputs": [
        {
          "name": "_teller",
          "type": "address"
        }
      ],
      "name": "getReput",
      "outputs": [
        {
          "name": "buyVolume",
          "type": "uint256"
        },
        {
          "name": "sellVolume",
          "type": "uint256"
        },
        {
          "name": "numTrade",
          "type": "uint256"
        },
        {
          "name": "loyaltyPoints_",
          "type": "uint256"
        }
      ],
      "payable": false,
      "stateMutability": "view",
      "type": "function"
    },
    {
      "constant": true,
      "inputs": [
        {
          "name": "_teller",
          "type": "address"
        }
      ],
      "name": "getTellerBalance",
      "outputs": [
        {
          "name": "",
          "type": "uint256"
        }
      ],
      "payable": false,
      "stateMutability": "view",
      "type": "function"
    },
    {
      "constant": true,
      "inputs": [
        {
          "name": "_country",
          "type": "bytes2"
        },
        {
          "name": "_postalcode",
          "type": "bytes16"
        }
      ],
      "name": "getZoneShop",
      "outputs": [
        {
          "name": "",
          "type": "address[]"
        }
      ],
      "payable": false,
      "stateMutability": "view",
      "type": "function"
    },
    {
      "constant": true,
      "inputs": [],
      "name": "getAllShops",
      "outputs": [
        {
          "name": "",
          "type": "address[]"
        }
      ],
      "payable": false,
      "stateMutability": "view",
      "type": "function"
    },
    {
      "constant": true,
      "inputs": [
        {
          "name": "_shop",
          "type": "address"
        }
      ],
      "name": "isShop",
      "outputs": [
        {
          "name": "",
          "type": "bool"
        }
      ],
      "payable": false,
      "stateMutability": "view",
      "type": "function"
    },
    {
      "constant": true,
      "inputs": [
        {
          "name": "_country",
          "type": "bytes2"
        },
        {
          "name": "x18",
          "type": "uint256"
        },
        {
          "name": "y18",
          "type": "uint256"
        }
      ],
      "name": "getZoneTeller",
      "outputs": [
        {
          "name": "",
          "type": "address[]"
        }
      ],
      "payable": false,
      "stateMutability": "view",
      "type": "function"
    },
    {
      "constant": true,
      "inputs": [],
      "name": "getAllTellers",
      "outputs": [
        {
          "name": "",
          "type": "address[]"
        }
      ],
      "payable": false,
      "stateMutability": "view",
      "type": "function"
    },
    {
      "constant": true,
      "inputs": [
        {
          "name": "_teller",
          "type": "address"
        }
      ],
      "name": "isTeller",
      "outputs": [
        {
          "name": "",
          "type": "bool"
        }
      ],
      "payable": false,
      "stateMutability": "view",
      "type": "function"
    },
    {
      "constant": true,
      "inputs": [
        {
          "name": "_shop",
          "type": "address"
        }
      ],
      "name": "getStakedShop",
      "outputs": [
        {
          "name": "",
          "type": "uint256"
        }
      ],
      "payable": false,
      "stateMutability": "view",
      "type": "function"
    },
    {
      "constant": true,
      "inputs": [
        {
          "name": "_teller",
          "type": "address"
        }
      ],
      "name": "getStakedTeller",
      "outputs": [
        {
          "name": "",
          "type": "uint256"
        }
      ],
      "payable": false,
      "stateMutability": "view",
      "type": "function"
    },
    {
      "constant": false,
      "inputs": [
        {
          "name": "_newbankowner",
          "type": "address"
        }
      ],
      "name": "transferBankOwnership",
      "outputs": [],
      "payable": false,
      "stateMutability": "nonpayable",
      "type": "function"
    }
  ],
  "bytecode": "0x60806040526000600660006101000a81548160ff0219169083151502179055506000600660016101000a81548160ff0219169083151502179055506000600660026101000a81548160ff0219169083151502179055506000601860006101000a81548160ff0219169083151502179055503480156200007d57600080fd5b50336000806101000a81548173ffffffffffffffffffffffffffffffffffffffff021916908373ffffffffffffffffffffffffffffffffffffffff16021790555061a60c80620000ce6000396000f30060806040526004361061032c576000357c0100000000000000000000000000000000000000000000000000000000900463ffffffff168062d162451461033157806301e57a37146103885780630519ce79146103df5780630a0f8168146104365780630d46f91a1461048d5780630d926f7a146104e45780630e479dc71461054657806319f1cded146106bc5780631d0e8a4d146107135780631d32f1061461076e5780632072863b146107bc5780632105c049146107ff5780632272b0af146108425780632314a5c8146108995780632630c12f1461090557806327d7874c1461095c5780632e3a4def1461099f57806330a55316146109fa5780633b23a5ca14610a515780633f4ba83a14610a805780633fa1980414610a9757806343579fe814610afd5780634a9f011014610b145780634b0ad8fa14610b765780634e0a337914610bcd5780634f4cd65014610c10578063529e65e114610c7c578063530e784f14610cbf57806359b17b4314610d025780635c975abb14610d5957806366d5eb9b14610d8857806367bb15ad14610dd6578063681e335614610e31578063744955a914610e7457806376cdb03b14610eda57806378843a9514610f31578063809ffb2014610f8c5780638456cb5914610fcf5780638620084214610fe6578063878127c8146110525780638bd1b610146110bf5780638c267b97146110d657806395d43eea1461112d5780639a8061e81461119a5780639ae120dd146111f25780639b1bb32314611240578063a26759cb146112c3578063aa5a11c5146112cd578063b0547d8c14611310578063b5c4147f14611353578063ba2a98f214611413578063c0ee0b8a14611461578063c640ee3d146114f4578063ca34333b1461154f578063d04c9115146115b5578063d0a4a81b1461160c578063d30a4e581461164f578063d4f639ea14611706578063d5c9b23914611735578063dd955c44146117a1578063e019ac29146117ee578063f002467714611831578063f2d15c4814611874578063f3943ca9146118cc578063f554567f1461192e578063f983c0fa14611a53578063fac8a80014611a82578063fcf3438c14611add578063fdff31ed14611b20575b600080fd5b34801561033d57600080fd5b50610346611b97565b604051808273ffffffffffffffffffffffffffffffffffffffff1673ffffffffffffffffffffffffffffffffffffffff16815260200191505060405180910390f35b34801561039457600080fd5b5061039d611bbd565b604051808273ffffffffffffffffffffffffffffffffffffffff1673ffffffffffffffffffffffffffffffffffffffff16815260200191505060405180910390f35b3480156103eb57600080fd5b506103f4611be3565b604051808273ffffffffffffffffffffffffffffffffffffffff1673ffffffffffffffffffffffffffffffffffffffff16815260200191505060405180910390f35b34801561044257600080fd5b5061044b611c09565b604051808273ffffffffffffffffffffffffffffffffffffffff1673ffffffffffffffffffffffffffffffffffffffff16815260200191505060405180910390f35b34801561049957600080fd5b506104a2611c2e565b604051808273ffffffffffffffffffffffffffffffffffffffff1673ffffffffffffffffffffffffffffffffffffffff16815260200191505060405180910390f35b3480156104f057600080fd5b5061053060048036038101908080357dffffffffffffffffffffffffffffffffffffffffffffffffffffffffffff19169060200190929190505050611c54565b6040518082815260200191505060405180910390f35b34801561055257600080fd5b50610587600480360381019080803573ffffffffffffffffffffffffffffffffffffffff169060200190929190505050611c6c565b604051808960030b60030b81526020018860030b60030b8152602001877dffffffffffffffffffffffffffffffffffffffffffffffffffffffffffff19167dffffffffffffffffffffffffffffffffffffffffffffffffffffffffffff19168152602001866fffffffffffffffffffffffffffffffff19166fffffffffffffffffffffffffffffffff19168152602001856fffffffffffffffffffffffffffffffff19166fffffffffffffffffffffffffffffffff19168152602001846fffffffffffffffffffffffffffffffff19166fffffffffffffffffffffffffffffffff191681526020018360001916600019168152602001826fffffffffffffffffffffffffffffffff19166fffffffffffffffffffffffffffffffff191681526020019850505050505050505060405180910390f35b3480156106c857600080fd5b506106fd600480360381019080803573ffffffffffffffffffffffffffffffffffffffff169060200190929190505050611db8565b6040518082815260200191505060405180910390f35b34801561071f57600080fd5b50610754600480360381019080803573ffffffffffffffffffffffffffffffffffffffff169060200190929190505050611eb9565b604051808215151515815260200191505060405180910390f35b34801561077a57600080fd5b506107ba60048036038101908080357dffffffffffffffffffffffffffffffffffffffffffffffffffffffffffff19169060200190929190505050611f96565b005b3480156107c857600080fd5b506107fd600480360381019080803573ffffffffffffffffffffffffffffffffffffffff169060200190929190505050612063565b005b34801561080b57600080fd5b50610840600480360381019080803573ffffffffffffffffffffffffffffffffffffffff16906020019092919050505061213e565b005b34801561084e57600080fd5b50610857612219565b604051808273ffffffffffffffffffffffffffffffffffffffff1673ffffffffffffffffffffffffffffffffffffffff16815260200191505060405180910390f35b3480156108a557600080fd5b506108da600480360381019080803573ffffffffffffffffffffffffffffffffffffffff16906020019092919050505061223f565b6040518085815260200184815260200183815260200182815260200194505050505060405180910390f35b34801561091157600080fd5b5061091a612354565b604051808273ffffffffffffffffffffffffffffffffffffffff1673ffffffffffffffffffffffffffffffffffffffff16815260200191505060405180910390f35b34801561096857600080fd5b5061099d600480360381019080803573ffffffffffffffffffffffffffffffffffffffff16906020019092919050505061237a565b005b3480156109ab57600080fd5b506109e0600480360381019080803573ffffffffffffffffffffffffffffffffffffffff169060200190929190505050612454565b604051808215151515815260200191505060405180910390f35b348015610a0657600080fd5b50610a0f612555565b604051808273ffffffffffffffffffffffffffffffffffffffff1673ffffffffffffffffffffffffffffffffffffffff16815260200191505060405180910390f35b348015610a5d57600080fd5b50610a7e60048036038101908080351515906020019092919050505061257b565b005b348015610a8c57600080fd5b50610a95612635565b005b610afb600480360381019080803560000b906020019092919080356fffffffffffffffffffffffffffffffff19169060200190929190803560000b9060200190929190803560010b90602001909291908035151590602001909291905050506126c8565b005b348015610b0957600080fd5b50610b12612c2c565b005b348015610b2057600080fd5b50610b746004803603810190808035906020019092919080357dffffffffffffffffffffffffffffffffffffffffffffffffffffffffffff1916906020019092919080359060200190929190505050613695565b005b348015610b8257600080fd5b50610bb7600480360381019080803573ffffffffffffffffffffffffffffffffffffffff169060200190929190505050613761565b6040518082815260200191505060405180910390f35b348015610bd957600080fd5b50610c0e600480360381019080803573ffffffffffffffffffffffffffffffffffffffff169060200190929190505050613862565b005b348015610c1c57600080fd5b50610c2561393d565b6040518080602001828103825283818151815260200191508051906020019060200280838360005b83811015610c68578082015181840152602081019050610c4d565b505050509050019250505060405180910390f35b348015610c8857600080fd5b50610cbd600480360381019080803573ffffffffffffffffffffffffffffffffffffffff1690602001909291905050506139cb565b005b348015610ccb57600080fd5b50610d00600480360381019080803573ffffffffffffffffffffffffffffffffffffffff169060200190929190505050613a81565b005b348015610d0e57600080fd5b50610d43600480360381019080803573ffffffffffffffffffffffffffffffffffffffff169060200190929190505050613b21565b6040518082815260200191505060405180910390f35b348015610d6557600080fd5b50610d6e613c22565b604051808215151515815260200191505060405180910390f35b348015610d9457600080fd5b50610dd460048036038101908080357dffffffffffffffffffffffffffffffffffffffffffffffffffffffffffff19169060200190929190505050613c35565b005b348015610de257600080fd5b50610e17600480360381019080803573ffffffffffffffffffffffffffffffffffffffff169060200190929190505050613d02565b604051808215151515815260200191505060405180910390f35b348015610e3d57600080fd5b50610e72600480360381019080803573ffffffffffffffffffffffffffffffffffffffff169060200190929190505050613d22565b005b348015610e8057600080fd5b50610ec060048036038101908080357dffffffffffffffffffffffffffffffffffffffffffffffffffffffffffff19169060200190929190505050613e70565b604051808215151515815260200191505060405180910390f35b348015610ee657600080fd5b50610eef613e90565b604051808273ffffffffffffffffffffffffffffffffffffffff1673ffffffffffffffffffffffffffffffffffffffff16815260200191505060405180910390f35b348015610f3d57600080fd5b50610f72600480360381019080803573ffffffffffffffffffffffffffffffffffffffff169060200190929190505050613eb6565b604051808215151515815260200191505060405180910390f35b348015610f9857600080fd5b50610fcd600480360381019080803573ffffffffffffffffffffffffffffffffffffffff169060200190929190505050613fb7565b005b348015610fdb57600080fd5b50610fe46140a9565b005b348015610ff257600080fd5b5061103c6004803603810190808035906020019092919080357dffffffffffffffffffffffffffffffffffffffffffffffffffffffffffff1916906020019092919050505061413d565b6040518082815260200191505060405180910390f35b34801561105e57600080fd5b5061107d600480360381019080803590602001909291905050506141ae565b604051808273ffffffffffffffffffffffffffffffffffffffff1673ffffffffffffffffffffffffffffffffffffffff16815260200191505060405180910390f35b3480156110cb57600080fd5b506110d46141ec565b005b3480156110e257600080fd5b506110eb614bf0565b604051808273ffffffffffffffffffffffffffffffffffffffff1673ffffffffffffffffffffffffffffffffffffffff16815260200191505060405180910390f35b34801561113957600080fd5b5061115860048036038101908080359060200190929190505050614c16565b604051808273ffffffffffffffffffffffffffffffffffffffff1673ffffffffffffffffffffffffffffffffffffffff16815260200191505060405180910390f35b3480156111a657600080fd5b506111f060048036038101908080357dffffffffffffffffffffffffffffffffffffffffffffffffffffffffffff1916906020019092919080359060200190929190505050614c54565b005b3480156111fe57600080fd5b5061123e60048036038101908080357dffffffffffffffffffffffffffffffffffffffffffffffffffffffffffff19169060200190929190505050614d0e565b005b34801561124c57600080fd5b506112c1600480360381019080803573ffffffffffffffffffffffffffffffffffffffff169060200190929190803573ffffffffffffffffffffffffffffffffffffffff169060200190929190803573ffffffffffffffffffffffffffffffffffffffff169060200190929190505050614ddb565b005b6112cb614f35565b005b3480156112d957600080fd5b5061130e600480360381019080803573ffffffffffffffffffffffffffffffffffffffff169060200190929190505050615057565b005b34801561131c57600080fd5b50611351600480360381019080803573ffffffffffffffffffffffffffffffffffffffff16906020019092919050505061510d565b005b34801561135f57600080fd5b506113bc60048036038101908080357dffffffffffffffffffffffffffffffffffffffffffffffffffffffffffff1916906020019092919080356fffffffffffffffffffffffffffffffff19169060200190929190505050615d5b565b6040518080602001828103825283818151815260200191508051906020019060200280838360005b838110156113ff5780820151818401526020810190506113e4565b505050509050019250505060405180910390f35b34801561141f57600080fd5b5061145f60048036038101908080357dffffffffffffffffffffffffffffffffffffffffffffffffffffffffffff19169060200190929190505050615e76565b005b34801561146d57600080fd5b506114f2600480360381019080803573ffffffffffffffffffffffffffffffffffffffff16906020019092919080359060200190929190803590602001908201803590602001908080601f0160208091040260200160405190810160405280939291908181526020018383808284378201915050505050509192919290505050615f43565b005b34801561150057600080fd5b50611535600480360381019080803573ffffffffffffffffffffffffffffffffffffffff169060200190929190505050618709565b604051808215151515815260200191505060405180910390f35b34801561155b57600080fd5b5061159b60048036038101908080357dffffffffffffffffffffffffffffffffffffffffffffffffffffffffffff19169060200190929190505050618729565b604051808215151515815260200191505060405180910390f35b3480156115c157600080fd5b506115f6600480360381019080803573ffffffffffffffffffffffffffffffffffffffff169060200190929190505050618749565b6040518082815260200191505060405180910390f35b34801561161857600080fd5b5061164d600480360381019080803573ffffffffffffffffffffffffffffffffffffffff169060200190929190505050618792565b005b34801561165b57600080fd5b506116af60048036038101908080357dffffffffffffffffffffffffffffffffffffffffffffffffffffffffffff191690602001909291908035906020019092919080359060200190929190505050618884565b6040518080602001828103825283818151815260200191508051906020019060200280838360005b838110156116f25780820151818401526020810190506116d7565b505050509050019250505060405180910390f35b34801561171257600080fd5b5061171b61898b565b604051808215151515815260200191505060405180910390f35b34801561174157600080fd5b5061174a61899e565b6040518080602001828103825283818151815260200191508051906020019060200280838360005b8381101561178d578082015181840152602081019050611772565b505050509050019250505060405180910390f35b3480156117ad57600080fd5b506117ec600480360381019080803573ffffffffffffffffffffffffffffffffffffffff16906020019092919080359060200190929190505050618a2c565b005b3480156117fa57600080fd5b5061182f600480360381019080803573ffffffffffffffffffffffffffffffffffffffff169060200190929190505050619349565b005b34801561183d57600080fd5b50611872600480360381019080803573ffffffffffffffffffffffffffffffffffffffff16906020019092919050505061941f565b005b34801561188057600080fd5b506118ca60048036038101908080357dffffffffffffffffffffffffffffffffffffffffffffffffffffffffffff1916906020019092919080359060200190929190505050619eb5565b005b3480156118d857600080fd5b5061191860048036038101908080357dffffffffffffffffffffffffffffffffffffffffffffffffffffffffffff19169060200190929190505050619f6f565b6040518082815260200191505060405180910390f35b34801561193a57600080fd5b5061196f600480360381019080803573ffffffffffffffffffffffffffffffffffffffff169060200190929190505050619f87565b604051808c81526020018b81526020018a7dffffffffffffffffffffffffffffffffffffffffffffffffffffffffffff19167dffffffffffffffffffffffffffffffffffffffffffffffffffffffffffff191681526020018960000b60000b8152602001886fffffffffffffffffffffffffffffffff19166fffffffffffffffffffffffffffffffff191681526020018760000b60000b81526020018660010b60010b815260200185815260200184151515158152602001831515151581526020018260010b60010b81526020019b50505050505050505050505060405180910390f35b348015611a5f57600080fd5b50611a6861a1c0565b604051808215151515815260200191505060405180910390f35b348015611a8e57600080fd5b50611ac3600480360381019080803573ffffffffffffffffffffffffffffffffffffffff16906020019092919050505061a1d3565b604051808215151515815260200191505060405180910390f35b348015611ae957600080fd5b50611b1e600480360381019080803573ffffffffffffffffffffffffffffffffffffffff16906020019092919050505061a2b0565b005b348015611b2c57600080fd5b50611b81600480360381019080803573ffffffffffffffffffffffffffffffffffffffff169060200190929190803573ffffffffffffffffffffffffffffffffffffffff16906020019092919050505061a386565b6040518082815260200191505060405180910390f35b600e60009054906101000a900473ffffffffffffffffffffffffffffffffffffffff1681565b600c60009054906101000a900473ffffffffffffffffffffffffffffffffffffffff1681565b600360009054906101000a900473ffffffffffffffffffffffffffffffffffffffff1681565b6000809054906101000a900473ffffffffffffffffffffffffffffffffffffffff1681565b600760009054906101000a900473ffffffffffffffffffffffffffffffffffffffff1681565b600a6020528060005260406000206000915090505481565b6000806000806000806000806000601960008b73ffffffffffffffffffffffffffffffffffffffff1673ffffffffffffffffffffffffffffffffffffffff16815260200190815260200160002090508060000160009054906101000a900460030b98508060000160049054906101000a900460030b97508060000160089054906101000a90047e0100000000000000000000000000000000000000000000000000000000000002965080600001600a9054906101000a90047001000000000000000000000000000000000295508060010160009054906101000a90047001000000000000000000000000000000000294508060010160109054906101000a9004700100000000000000000000000000000000029350806002015492508060030160009054906101000a900470010000000000000000000000000000000002915050919395975091939597565b6000600d60009054906101000a900473ffffffffffffffffffffffffffffffffffffffff1673ffffffffffffffffffffffffffffffffffffffff166378d0a415836040518263ffffffff167c0100000000000000000000000000000000000000000000000000000000028152600401808273ffffffffffffffffffffffffffffffffffffffff1673ffffffffffffffffffffffffffffffffffffffff168152602001915050602060405180830381600087803b158015611e7757600080fd5b505af1158015611e8b573d6000803e3d6000fd5b505050506040513d6020811015611ea157600080fd5b81019080805190602001909291905050509050919050565b6000807e01000000000000000000000000000000000000000000000000000000000000027dffffffffffffffffffffffffffffffffffffffffffffffffffffffffffff1916601960008473ffffffffffffffffffffffffffffffffffffffff1673ffffffffffffffffffffffffffffffffffffffff16815260200190815260200160002060000160089054906101000a90047e01000000000000000000000000000000000000000000000000000000000000027dffffffffffffffffffffffffffffffffffffffffffffffffffffffffffff191614159050919050565b600160009054906101000a900473ffffffffffffffffffffffffffffffffffffffff1673ffffffffffffffffffffffffffffffffffffffff163373ffffffffffffffffffffffffffffffffffffffff16141515611ff257600080fd5b600160096000837dffffffffffffffffffffffffffffffffffffffffffffffffffffffffffff19167dffffffffffffffffffffffffffffffffffffffffffffffffffffffffffff1916815260200190815260200160002060006101000a81548160ff02191690831515021790555050565b6000809054906101000a900473ffffffffffffffffffffffffffffffffffffffff1673ffffffffffffffffffffffffffffffffffffffff163373ffffffffffffffffffffffffffffffffffffffff161415156120be57600080fd5b600073ffffffffffffffffffffffffffffffffffffffff168173ffffffffffffffffffffffffffffffffffffffff16141515156120fa57600080fd5b80600160006101000a81548173ffffffffffffffffffffffffffffffffffffffff021916908373ffffffffffffffffffffffffffffffffffffffff16021790555050565b6000809054906101000a900473ffffffffffffffffffffffffffffffffffffffff1673ffffffffffffffffffffffffffffffffffffffff163373ffffffffffffffffffffffffffffffffffffffff1614151561219957600080fd5b600073ffffffffffffffffffffffffffffffffffffffff168173ffffffffffffffffffffffffffffffffffffffff16141515156121d557600080fd5b80600260006101000a81548173ffffffffffffffffffffffffffffffffffffffff021916908373ffffffffffffffffffffffffffffffffffffffff16021790555050565b600260009054906101000a900473ffffffffffffffffffffffffffffffffffffffff1681565b600080600080601160008673ffffffffffffffffffffffffffffffffffffffff1673ffffffffffffffffffffffffffffffffffffffff168152602001908152602001600020549350601260008673ffffffffffffffffffffffffffffffffffffffff1673ffffffffffffffffffffffffffffffffffffffff168152602001908152602001600020549250601360008673ffffffffffffffffffffffffffffffffffffffff1673ffffffffffffffffffffffffffffffffffffffff168152602001908152602001600020549150601460008673ffffffffffffffffffffffffffffffffffffffff1673ffffffffffffffffffffffffffffffffffffffff1681526020019081526020016000205490509193509193565b600f60009054906101000a900473ffffffffffffffffffffffffffffffffffffffff1681565b6000809054906101000a900473ffffffffffffffffffffffffffffffffffffffff1673ffffffffffffffffffffffffffffffffffffffff163373ffffffffffffffffffffffffffffffffffffffff161415156123d557600080fd5b600073ffffffffffffffffffffffffffffffffffffffff168173ffffffffffffffffffffffffffffffffffffffff161415151561241157600080fd5b806000806101000a81548173ffffffffffffffffffffffffffffffffffffffff021916908373ffffffffffffffffffffffffffffffffffffffff16021790555050565b6000600760009054906101000a900473ffffffffffffffffffffffffffffffffffffffff1673ffffffffffffffffffffffffffffffffffffffff1663cc1d4c02836040518263ffffffff167c0100000000000000000000000000000000000000000000000000000000028152600401808273ffffffffffffffffffffffffffffffffffffffff1673ffffffffffffffffffffffffffffffffffffffff168152602001915050602060405180830381600087803b15801561251357600080fd5b505af1158015612527573d6000803e3d6000fd5b505050506040513d602081101561253d57600080fd5b81019080805190602001909291905050509050919050565b600660039054906101000a900473ffffffffffffffffffffffffffffffffffffffff1681565b801515601560003373ffffffffffffffffffffffffffffffffffffffff1673ffffffffffffffffffffffffffffffffffffffff16815260200190815260200160002060050160009054906101000a900460ff1615151415156126325780601560003373ffffffffffffffffffffffffffffffffffffffff1673ffffffffffffffffffffffffffffffffffffffff16815260200190815260200160002060050160006101000a81548160ff0219169083151502179055505b50565b6000809054906101000a900473ffffffffffffffffffffffffffffffffffffffff1673ffffffffffffffffffffffffffffffffffffffff163373ffffffffffffffffffffffffffffffffffffffff1614151561269057600080fd5b600660009054906101000a900460ff1615156126ab57600080fd5b6000600660006101000a81548160ff021916908315150217905550565b6126d13361a1d3565b15156126dc57600080fd5b601560003373ffffffffffffffffffffffffffffffffffffffff1673ffffffffffffffffffffffffffffffffffffffff16815260200190815260200160002060020160029054906101000a900460000b60000b8560000b1415156127995784601560003373ffffffffffffffffffffffffffffffffffffffff1673ffffffffffffffffffffffffffffffffffffffff16815260200190815260200160002060020160026101000a81548160ff021916908360000b60ff1602179055505b836fffffffffffffffffffffffffffffffff1916601560003373ffffffffffffffffffffffffffffffffffffffff1673ffffffffffffffffffffffffffffffffffffffff16815260200190815260200160002060020160039054906101000a9004700100000000000000000000000000000000026fffffffffffffffffffffffffffffffff19161415156128a35783601560003373ffffffffffffffffffffffffffffffffffffffff1673ffffffffffffffffffffffffffffffffffffffff16815260200190815260200160002060020160036101000a8154816fffffffffffffffffffffffffffffffff0219169083700100000000000000000000000000000000900402179055505b8260000b601560003373ffffffffffffffffffffffffffffffffffffffff1673ffffffffffffffffffffffffffffffffffffffff16815260200190815260200160002060020160139054906101000a900460000b60000b1415156129605782601560003373ffffffffffffffffffffffffffffffffffffffff1673ffffffffffffffffffffffffffffffffffffffff16815260200190815260200160002060020160136101000a81548160ff021916908360000b60ff1602179055505b8160010b601560003373ffffffffffffffffffffffffffffffffffffffff1673ffffffffffffffffffffffffffffffffffffffff16815260200190815260200160002060020160149054906101000a900460010b60010b141515612a1f5781601560003373ffffffffffffffffffffffffffffffffffffffff1673ffffffffffffffffffffffffffffffffffffffff16815260200190815260200160002060020160146101000a81548161ffff021916908360010b61ffff1602179055505b801515601560003373ffffffffffffffffffffffffffffffffffffffff1673ffffffffffffffffffffffffffffffffffffffff16815260200190815260200160002060050160009054906101000a900460ff161515141515612ad65780601560003373ffffffffffffffffffffffffffffffffffffffff1673ffffffffffffffffffffffffffffffffffffffff16815260200190815260200160002060050160006101000a81548160ff0219169083151502179055505b6000341115612be257600d60009054906101000a900473ffffffffffffffffffffffffffffffffffffffff1673ffffffffffffffffffffffffffffffffffffffff1663e46514653433346040518463ffffffff167c0100000000000000000000000000000000000000000000000000000000028152600401808373ffffffffffffffffffffffffffffffffffffffff1673ffffffffffffffffffffffffffffffffffffffff168152602001828152602001925050506020604051808303818588803b158015612ba457600080fd5b505af1158015612bb8573d6000803e3d6000fd5b50505050506040513d6020811015612bcf57600080fd5b8101908080519060200190929190505050505b3373ffffffffffffffffffffffffffffffffffffffff167fe3df84c3ca6a90f0e6485beae08e7bd034695356bec32910a3d62559ff33fbc860405160405180910390a25050505050565b600080600080612c3b33611eb9565b1515612c4657600080fd5b601960003373ffffffffffffffffffffffffffffffffffffffff1673ffffffffffffffffffffffffffffffffffffffff168152602001908152602001600020600401549350601a6000601960003373ffffffffffffffffffffffffffffffffffffffff1673ffffffffffffffffffffffffffffffffffffffff16815260200190815260200160002060000160089054906101000a90047e01000000000000000000000000000000000000000000000000000000000000027dffffffffffffffffffffffffffffffffffffffffffffffffffffffffffff19167dffffffffffffffffffffffffffffffffffffffffffffffffffffffffffff191681526020019081526020016000206000601960003373ffffffffffffffffffffffffffffffffffffffff1673ffffffffffffffffffffffffffffffffffffffff168152602001908152602001600020600001600a9054906101000a9004700100000000000000000000000000000000026fffffffffffffffffffffffffffffffff19166fffffffffffffffffffffffffffffffff191681526020019081526020016000206001601a6000601960003373ffffffffffffffffffffffffffffffffffffffff1673ffffffffffffffffffffffffffffffffffffffff16815260200190815260200160002060000160089054906101000a90047e01000000000000000000000000000000000000000000000000000000000000027dffffffffffffffffffffffffffffffffffffffffffffffffffffffffffff19167dffffffffffffffffffffffffffffffffffffffffffffffffffffffffffff191681526020019081526020016000206000601960003373ffffffffffffffffffffffffffffffffffffffff1673ffffffffffffffffffffffffffffffffffffffff168152602001908152602001600020600001600a9054906101000a9004700100000000000000000000000000000000026fffffffffffffffffffffffffffffffff19166fffffffffffffffffffffffffffffffff191681526020019081526020016000208054905003815481101515612f4e57fe5b9060005260206000200160009054906101000a900473ffffffffffffffffffffffffffffffffffffffff16925082601a6000601960003373ffffffffffffffffffffffffffffffffffffffff1673ffffffffffffffffffffffffffffffffffffffff16815260200190815260200160002060000160089054906101000a90047e01000000000000000000000000000000000000000000000000000000000000027dffffffffffffffffffffffffffffffffffffffffffffffffffffffffffff19167dffffffffffffffffffffffffffffffffffffffffffffffffffffffffffff191681526020019081526020016000206000601960003373ffffffffffffffffffffffffffffffffffffffff1673ffffffffffffffffffffffffffffffffffffffff168152602001908152602001600020600001600a9054906101000a9004700100000000000000000000000000000000026fffffffffffffffffffffffffffffffff19166fffffffffffffffffffffffffffffffff19168152602001908152602001600020858154811015156130e157fe5b9060005260206000200160006101000a81548173ffffffffffffffffffffffffffffffffffffffff021916908373ffffffffffffffffffffffffffffffffffffffff16021790555083601960008573ffffffffffffffffffffffffffffffffffffffff1673ffffffffffffffffffffffffffffffffffffffff16815260200190815260200160002060040181905550601a6000601960003373ffffffffffffffffffffffffffffffffffffffff1673ffffffffffffffffffffffffffffffffffffffff16815260200190815260200160002060000160089054906101000a90047e01000000000000000000000000000000000000000000000000000000000000027dffffffffffffffffffffffffffffffffffffffffffffffffffffffffffff19167dffffffffffffffffffffffffffffffffffffffffffffffffffffffffffff191681526020019081526020016000206000601960003373ffffffffffffffffffffffffffffffffffffffff1673ffffffffffffffffffffffffffffffffffffffff168152602001908152602001600020600001600a9054906101000a9004700100000000000000000000000000000000026fffffffffffffffffffffffffffffffff19166fffffffffffffffffffffffffffffffff191681526020019081526020016000208054809190600190036132db919061a58f565b50601960003373ffffffffffffffffffffffffffffffffffffffff1673ffffffffffffffffffffffffffffffffffffffff168152602001908152602001600020600501549150601b6001601b805490500381548110151561333857fe5b9060005260206000200160009054906101000a900473ffffffffffffffffffffffffffffffffffffffff16905080601b8381548110151561337557fe5b9060005260206000200160006101000a81548173ffffffffffffffffffffffffffffffffffffffff021916908373ffffffffffffffffffffffffffffffffffffffff16021790555081601960008373ffffffffffffffffffffffffffffffffffffffff1673ffffffffffffffffffffffffffffffffffffffff16815260200190815260200160002060050181905550601b805480919060019003613419919061a58f565b50601960003373ffffffffffffffffffffffffffffffffffffffff1673ffffffffffffffffffffffffffffffffffffffff168152602001908152602001600020600080820160006101000a81549063ffffffff02191690556000820160046101000a81549063ffffffff02191690556000820160086101000a81549061ffff021916905560008201600a6101000a8154906fffffffffffffffffffffffffffffffff02191690556001820160006101000a8154906fffffffffffffffffffffffffffffffff02191690556001820160106101000a8154906fffffffffffffffffffffffffffffffff021916905560028201600090556003820160006101000a8154906fffffffffffffffffffffffffffffffff0219169055600482016000905560058201600090556006820160006101000a81549060ff02191690555050600d60009054906101000a900473ffffffffffffffffffffffffffffffffffffffff1673ffffffffffffffffffffffffffffffffffffffff16633716f65d336040518263ffffffff167c0100000000000000000000000000000000000000000000000000000000028152600401808273ffffffffffffffffffffffffffffffffffffffff1673ffffffffffffffffffffffffffffffffffffffff168152602001915050600060405180830381600087803b15801561361457600080fd5b505af1158015613628573d6000803e3d6000fd5b505050507fe607eb1578eec3de556aa2d57f7ff9365c1706069a8959e794883eba60b043e333604051808273ffffffffffffffffffffffffffffffffffffffff1673ffffffffffffffffffffffffffffffffffffffff16815260200191505060405180910390a150505050565b600360009054906101000a900473ffffffffffffffffffffffffffffffffffffffff1673ffffffffffffffffffffffffffffffffffffffff163373ffffffffffffffffffffffffffffffffffffffff161415156136f157600080fd5b80601c60008581526020019081526020016000206000847dffffffffffffffffffffffffffffffffffffffffffffffffffffffffffff19167dffffffffffffffffffffffffffffffffffffffffffffffffffffffffffff1916815260200190815260200160002081905550505050565b6000600d60009054906101000a900473ffffffffffffffffffffffffffffffffffffffff1673ffffffffffffffffffffffffffffffffffffffff1663a96b3ab8836040518263ffffffff167c0100000000000000000000000000000000000000000000000000000000028152600401808273ffffffffffffffffffffffffffffffffffffffff1673ffffffffffffffffffffffffffffffffffffffff168152602001915050602060405180830381600087803b15801561382057600080fd5b505af1158015613834573d6000803e3d6000fd5b505050506040513d602081101561384a57600080fd5b81019080805190602001909291905050509050919050565b6000809054906101000a900473ffffffffffffffffffffffffffffffffffffffff1673ffffffffffffffffffffffffffffffffffffffff163373ffffffffffffffffffffffffffffffffffffffff161415156138bd57600080fd5b600073ffffffffffffffffffffffffffffffffffffffff168173ffffffffffffffffffffffffffffffffffffffff16141515156138f957600080fd5b80600360006101000a81548173ffffffffffffffffffffffffffffffffffffffff021916908373ffffffffffffffffffffffffffffffffffffffff16021790555050565b606060178054806020026020016040519081016040528092919081815260200182805480156139c157602002820191906000526020600020905b8160009054906101000a900473ffffffffffffffffffffffffffffffffffffffff1673ffffffffffffffffffffffffffffffffffffffff1681526020019060010190808311613977575b5050505050905090565b6000809054906101000a900473ffffffffffffffffffffffffffffffffffffffff1673ffffffffffffffffffffffffffffffffffffffff163373ffffffffffffffffffffffffffffffffffffffff16141515613a2657600080fd5b6000600460008373ffffffffffffffffffffffffffffffffffffffff1673ffffffffffffffffffffffffffffffffffffffff16815260200190815260200160002060006101000a81548160ff02191690831515021790555050565b600360009054906101000a900473ffffffffffffffffffffffffffffffffffffffff1673ffffffffffffffffffffffffffffffffffffffff163373ffffffffffffffffffffffffffffffffffffffff16141515613add57600080fd5b80600f60006101000a81548173ffffffffffffffffffffffffffffffffffffffff021916908373ffffffffffffffffffffffffffffffffffffffff16021790555050565b6000600d60009054906101000a900473ffffffffffffffffffffffffffffffffffffffff1673ffffffffffffffffffffffffffffffffffffffff16638d837f38836040518263ffffffff167c0100000000000000000000000000000000000000000000000000000000028152600401808273ffffffffffffffffffffffffffffffffffffffff1673ffffffffffffffffffffffffffffffffffffffff168152602001915050602060405180830381600087803b158015613be057600080fd5b505af1158015613bf4573d6000803e3d6000fd5b505050506040513d6020811015613c0a57600080fd5b81019080805190602001909291905050509050919050565b600660009054906101000a900460ff1681565b600160009054906101000a900473ffffffffffffffffffffffffffffffffffffffff1673ffffffffffffffffffffffffffffffffffffffff163373ffffffffffffffffffffffffffffffffffffffff16141515613c9157600080fd5b600160086000837dffffffffffffffffffffffffffffffffffffffffffffffffffffffffffff19167dffffffffffffffffffffffffffffffffffffffffffffffffffffffffffff1916815260200190815260200160002060006101000a81548160ff02191690831515021790555050565b60046020528060005260406000206000915054906101000a900460ff1681565b6000809054906101000a900473ffffffffffffffffffffffffffffffffffffffff1673ffffffffffffffffffffffffffffffffffffffff163373ffffffffffffffffffffffffffffffffffffffff16141515613d7d57600080fd5b600660009054906101000a900460ff161515613d9857600080fd5b600d60009054906101000a900473ffffffffffffffffffffffffffffffffffffffff1673ffffffffffffffffffffffffffffffffffffffff1663f2fde38b826040518263ffffffff167c0100000000000000000000000000000000000000000000000000000000028152600401808273ffffffffffffffffffffffffffffffffffffffff1673ffffffffffffffffffffffffffffffffffffffff168152602001915050600060405180830381600087803b158015613e5557600080fd5b505af1158015613e69573d6000803e3d6000fd5b5050505050565b60086020528060005260406000206000915054906101000a900460ff1681565b600d60009054906101000a900473ffffffffffffffffffffffffffffffffffffffff1681565b6000600660039054906101000a900473ffffffffffffffffffffffffffffffffffffffff1673ffffffffffffffffffffffffffffffffffffffff1663cc1d4c02836040518263ffffffff167c0100000000000000000000000000000000000000000000000000000000028152600401808273ffffffffffffffffffffffffffffffffffffffff1673ffffffffffffffffffffffffffffffffffffffff168152602001915050602060405180830381600087803b158015613f7557600080fd5b505af1158015613f89573d6000803e3d6000fd5b505050506040513d6020811015613f9f57600080fd5b81019080805190602001909291905050509050919050565b6000809054906101000a900473ffffffffffffffffffffffffffffffffffffffff1673ffffffffffffffffffffffffffffffffffffffff163373ffffffffffffffffffffffffffffffffffffffff1614151561401257600080fd5b600073ffffffffffffffffffffffffffffffffffffffff168173ffffffffffffffffffffffffffffffffffffffff161415151561404e57600080fd5b6001600460008373ffffffffffffffffffffffffffffffffffffffff1673ffffffffffffffffffffffffffffffffffffffff16815260200190815260200160002060006101000a81548160ff02191690831515021790555050565b6000809054906101000a900473ffffffffffffffffffffffffffffffffffffffff1673ffffffffffffffffffffffffffffffffffffffff163373ffffffffffffffffffffffffffffffffffffffff1614151561410457600080fd5b600660009054906101000a900460ff1615151561412057600080fd5b6001600660006101000a81548160ff021916908315150217905550565b6000601c60008481526020019081526020016000206000837dffffffffffffffffffffffffffffffffffffffffffffffffffffffffffff19167dffffffffffffffffffffffffffffffffffffffffffffffffffffffffffff1916815260200190815260200160002054905092915050565b601b818154811015156141bd57fe5b906000526020600020016000915054906101000a900473ffffffffffffffffffffffffffffffffffffffff1681565b6000806000806000806000806142013361a1d3565b151561420c57600080fd5b601560003373ffffffffffffffffffffffffffffffffffffffff1673ffffffffffffffffffffffffffffffffffffffff16815260200190815260200160002060020160009054906101000a90047e01000000000000000000000000000000000000000000000000000000000000029750601560003373ffffffffffffffffffffffffffffffffffffffff1673ffffffffffffffffffffffffffffffffffffffff168152602001908152602001600020600001549650601560003373ffffffffffffffffffffffffffffffffffffffff1673ffffffffffffffffffffffffffffffffffffffff16815260200190815260200160002060010154955060166000897dffffffffffffffffffffffffffffffffffffffffffffffffffffffffffff19167dffffffffffffffffffffffffffffffffffffffffffffffffffffffffffff1916815260200190815260200160002060008881526020019081526020016000206000878152602001908152602001600020805490509450600185141561441c5760166000897dffffffffffffffffffffffffffffffffffffffffffffffffffffffffffff19167dffffffffffffffffffffffffffffffffffffffffffffffffffffffffffff1916815260200190815260200160002060008881526020019081526020016000206000878152602001908152602001600020805480919060019003614416919061a58f565b50614751565b601560003373ffffffffffffffffffffffffffffffffffffffff1673ffffffffffffffffffffffffffffffffffffffff168152602001908152602001600020600301549350600185038414156144fc5760166000897dffffffffffffffffffffffffffffffffffffffffffffffffffffffffffff19167dffffffffffffffffffffffffffffffffffffffffffffffffffffffffffff19168152602001908152602001600020600088815260200190815260200160002060008781526020019081526020016000208054809190600190036144f6919061a58f565b50614750565b60166000897dffffffffffffffffffffffffffffffffffffffffffffffffffffffffffff19167dffffffffffffffffffffffffffffffffffffffffffffffffffffffffffff19168152602001908152602001600020600088815260200190815260200160002060008781526020019081526020016000206001860381548110151561458357fe5b9060005260206000200160009054906101000a900473ffffffffffffffffffffffffffffffffffffffff16925082601660008a7dffffffffffffffffffffffffffffffffffffffffffffffffffffffffffff19167dffffffffffffffffffffffffffffffffffffffffffffffffffffffffffff19168152602001908152602001600020600089815260200190815260200160002060008881526020019081526020016000208581548110151561463557fe5b9060005260206000200160006101000a81548173ffffffffffffffffffffffffffffffffffffffff021916908373ffffffffffffffffffffffffffffffffffffffff16021790555083601560008573ffffffffffffffffffffffffffffffffffffffff1673ffffffffffffffffffffffffffffffffffffffff1681526020019081526020016000206003018190555060166000897dffffffffffffffffffffffffffffffffffffffffffffffffffffffffffff19167dffffffffffffffffffffffffffffffffffffffffffffffffffffffffffff191681526020019081526020016000206000888152602001908152602001600020600087815260200190815260200160002080548091906001900361474e919061a58f565b505b5b601560003373ffffffffffffffffffffffffffffffffffffffff1673ffffffffffffffffffffffffffffffffffffffff168152602001908152602001600020600401549150600160178054905014156147bf5760178054809190600190036147b9919061a58f565b506148e5565b6001601780549050038214156147ea5760178054809190600190036147e4919061a58f565b506148e4565b601760016017805490500381548110151561480157fe5b9060005260206000200160009054906101000a900473ffffffffffffffffffffffffffffffffffffffff1690508060178381548110151561483e57fe5b9060005260206000200160006101000a81548173ffffffffffffffffffffffffffffffffffffffff021916908373ffffffffffffffffffffffffffffffffffffffff16021790555081601560008373ffffffffffffffffffffffffffffffffffffffff1673ffffffffffffffffffffffffffffffffffffffff1681526020019081526020016000206004018190555060178054809190600190036148e2919061a58f565b505b5b601560003373ffffffffffffffffffffffffffffffffffffffff1673ffffffffffffffffffffffffffffffffffffffff16815260200190815260200160002060008082016000905560018201600090556002820160006101000a81549061ffff02191690556002820160026101000a81549060ff02191690556002820160036101000a8154906fffffffffffffffffffffffffffffffff02191690556002820160136101000a81549060ff02191690556002820160146101000a81549061ffff02191690556002820160166101000a81549060ff02191690556002820160176101000a81549061ffff0219169055600382016000905560048201600090556005820160006101000a81549060ff02191690555050600d60009054906101000a900473ffffffffffffffffffffffffffffffffffffffff1673ffffffffffffffffffffffffffffffffffffffff1663b71738f1336040518263ffffffff167c0100000000000000000000000000000000000000000000000000000000028152600401808273ffffffffffffffffffffffffffffffffffffffff1673ffffffffffffffffffffffffffffffffffffffff168152602001915050600060405180830381600087803b158015614ab657600080fd5b505af1158015614aca573d6000803e3d6000fd5b50505050600d60009054906101000a900473ffffffffffffffffffffffffffffffffffffffff1673ffffffffffffffffffffffffffffffffffffffff1663d83edd70336040518263ffffffff167c0100000000000000000000000000000000000000000000000000000000028152600401808273ffffffffffffffffffffffffffffffffffffffff1673ffffffffffffffffffffffffffffffffffffffff168152602001915050600060405180830381600087803b158015614b8b57600080fd5b505af1158015614b9f573d6000803e3d6000fd5b505050503373ffffffffffffffffffffffffffffffffffffffff167fb1e40dcb43d26b3a6cb20da12c333af5a0de0bcd6264eddca5fbacf3e31d4f9460405160405180910390a25050505050505050565b600160009054906101000a900473ffffffffffffffffffffffffffffffffffffffff1681565b601781815481101515614c2557fe5b906000526020600020016000915054906101000a900473ffffffffffffffffffffffffffffffffffffffff1681565b600160009054906101000a900473ffffffffffffffffffffffffffffffffffffffff1673ffffffffffffffffffffffffffffffffffffffff163373ffffffffffffffffffffffffffffffffffffffff16141515614cb057600080fd5b80600a6000847dffffffffffffffffffffffffffffffffffffffffffffffffffffffffffff19167dffffffffffffffffffffffffffffffffffffffffffffffffffffffffffff19168152602001908152602001600020819055505050565b600160009054906101000a900473ffffffffffffffffffffffffffffffffffffffff1673ffffffffffffffffffffffffffffffffffffffff163373ffffffffffffffffffffffffffffffffffffffff16141515614d6a57600080fd5b600060096000837dffffffffffffffffffffffffffffffffffffffffffffffffffffffffffff19167dffffffffffffffffffffffffffffffffffffffffffffffffffffffffffff1916815260200190815260200160002060006101000a81548160ff02191690831515021790555050565b6000809054906101000a900473ffffffffffffffffffffffffffffffffffffffff1673ffffffffffffffffffffffffffffffffffffffff163373ffffffffffffffffffffffffffffffffffffffff16141515614e3657600080fd5b601860009054906101000a900460ff16151515614e5257600080fd5b82600c60006101000a81548173ffffffffffffffffffffffffffffffffffffffff021916908373ffffffffffffffffffffffffffffffffffffffff16021790555081600d60006101000a81548173ffffffffffffffffffffffffffffffffffffffff021916908373ffffffffffffffffffffffffffffffffffffffff16021790555080600e60006101000a81548173ffffffffffffffffffffffffffffffffffffffff021916908373ffffffffffffffffffffffffffffffffffffffff1602179055506001601860006101000a81548160ff021916908315150217905550505050565b614f3e3361a1d3565b1515614f4957600080fd5b600d60009054906101000a900473ffffffffffffffffffffffffffffffffffffffff1673ffffffffffffffffffffffffffffffffffffffff1663e46514653433346040518463ffffffff167c0100000000000000000000000000000000000000000000000000000000028152600401808373ffffffffffffffffffffffffffffffffffffffff1673ffffffffffffffffffffffffffffffffffffffff168152602001828152602001925050506020604051808303818588803b15801561500e57600080fd5b505af1158015615022573d6000803e3d6000fd5b50505050506040513d602081101561503957600080fd5b8101908080519060200190929190505050151561505557600080fd5b565b6000809054906101000a900473ffffffffffffffffffffffffffffffffffffffff1673ffffffffffffffffffffffffffffffffffffffff163373ffffffffffffffffffffffffffffffffffffffff161415156150b257600080fd5b6000600560008373ffffffffffffffffffffffffffffffffffffffff1673ffffffffffffffffffffffffffffffffffffffff16815260200190815260200160002060006101000a81548160ff02191690831515021790555050565b60008060008033600460008273ffffffffffffffffffffffffffffffffffffffff1673ffffffffffffffffffffffffffffffffffffffff16815260200190815260200160002060009054906101000a900460ff16151561516c57600080fd5b601960008773ffffffffffffffffffffffffffffffffffffffff1673ffffffffffffffffffffffffffffffffffffffff168152602001908152602001600020600401549450601a6000601960008973ffffffffffffffffffffffffffffffffffffffff1673ffffffffffffffffffffffffffffffffffffffff16815260200190815260200160002060000160089054906101000a90047e01000000000000000000000000000000000000000000000000000000000000027dffffffffffffffffffffffffffffffffffffffffffffffffffffffffffff19167dffffffffffffffffffffffffffffffffffffffffffffffffffffffffffff191681526020019081526020016000206000601960008973ffffffffffffffffffffffffffffffffffffffff1673ffffffffffffffffffffffffffffffffffffffff168152602001908152602001600020600001600a9054906101000a9004700100000000000000000000000000000000026fffffffffffffffffffffffffffffffff19166fffffffffffffffffffffffffffffffff191681526020019081526020016000206001601a6000601960008b73ffffffffffffffffffffffffffffffffffffffff1673ffffffffffffffffffffffffffffffffffffffff16815260200190815260200160002060000160089054906101000a90047e01000000000000000000000000000000000000000000000000000000000000027dffffffffffffffffffffffffffffffffffffffffffffffffffffffffffff19167dffffffffffffffffffffffffffffffffffffffffffffffffffffffffffff191681526020019081526020016000206000601960008b73ffffffffffffffffffffffffffffffffffffffff1673ffffffffffffffffffffffffffffffffffffffff168152602001908152602001600020600001600a9054906101000a9004700100000000000000000000000000000000026fffffffffffffffffffffffffffffffff19166fffffffffffffffffffffffffffffffff19168152602001908152602001600020805490500381548110151561547457fe5b9060005260206000200160009054906101000a900473ffffffffffffffffffffffffffffffffffffffff16935083601a6000601960008a73ffffffffffffffffffffffffffffffffffffffff1673ffffffffffffffffffffffffffffffffffffffff16815260200190815260200160002060000160089054906101000a90047e01000000000000000000000000000000000000000000000000000000000000027dffffffffffffffffffffffffffffffffffffffffffffffffffffffffffff19167dffffffffffffffffffffffffffffffffffffffffffffffffffffffffffff191681526020019081526020016000206000601960008a73ffffffffffffffffffffffffffffffffffffffff1673ffffffffffffffffffffffffffffffffffffffff168152602001908152602001600020600001600a9054906101000a9004700100000000000000000000000000000000026fffffffffffffffffffffffffffffffff19166fffffffffffffffffffffffffffffffff191681526020019081526020016000208681548110151561560757fe5b9060005260206000200160006101000a81548173ffffffffffffffffffffffffffffffffffffffff021916908373ffffffffffffffffffffffffffffffffffffffff16021790555084601960008673ffffffffffffffffffffffffffffffffffffffff1673ffffffffffffffffffffffffffffffffffffffff16815260200190815260200160002060040181905550601a6000601960008973ffffffffffffffffffffffffffffffffffffffff1673ffffffffffffffffffffffffffffffffffffffff16815260200190815260200160002060000160089054906101000a90047e01000000000000000000000000000000000000000000000000000000000000027dffffffffffffffffffffffffffffffffffffffffffffffffffffffffffff19167dffffffffffffffffffffffffffffffffffffffffffffffffffffffffffff191681526020019081526020016000206000601960008973ffffffffffffffffffffffffffffffffffffffff1673ffffffffffffffffffffffffffffffffffffffff168152602001908152602001600020600001600a9054906101000a9004700100000000000000000000000000000000026fffffffffffffffffffffffffffffffff19166fffffffffffffffffffffffffffffffff19168152602001908152602001600020805480919060019003615801919061a58f565b50601960008773ffffffffffffffffffffffffffffffffffffffff1673ffffffffffffffffffffffffffffffffffffffff168152602001908152602001600020600501549250601b6001601b805490500381548110151561585e57fe5b9060005260206000200160009054906101000a900473ffffffffffffffffffffffffffffffffffffffff16915081601b8481548110151561589b57fe5b9060005260206000200160006101000a81548173ffffffffffffffffffffffffffffffffffffffff021916908373ffffffffffffffffffffffffffffffffffffffff16021790555082601960008473ffffffffffffffffffffffffffffffffffffffff1673ffffffffffffffffffffffffffffffffffffffff16815260200190815260200160002060050181905550601b80548091906001900361593f919061a58f565b50601960008773ffffffffffffffffffffffffffffffffffffffff1673ffffffffffffffffffffffffffffffffffffffff16815260200190815260200160002060060160009054906101000a900460ff161515615a7057600d60009054906101000a900473ffffffffffffffffffffffffffffffffffffffff1673ffffffffffffffffffffffffffffffffffffffff16633716f65d876040518263ffffffff167c0100000000000000000000000000000000000000000000000000000000028152600401808273ffffffffffffffffffffffffffffffffffffffff1673ffffffffffffffffffffffffffffffffffffffff168152602001915050600060405180830381600087803b158015615a5357600080fd5b505af1158015615a67573d6000803e3d6000fd5b50505050615b9c565b600d60009054906101000a900473ffffffffffffffffffffffffffffffffffffffff1673ffffffffffffffffffffffffffffffffffffffff16637139b59587600260009054906101000a900473ffffffffffffffffffffffffffffffffffffffff166040518363ffffffff167c0100000000000000000000000000000000000000000000000000000000028152600401808373ffffffffffffffffffffffffffffffffffffffff1673ffffffffffffffffffffffffffffffffffffffff1681526020018273ffffffffffffffffffffffffffffffffffffffff1673ffffffffffffffffffffffffffffffffffffffff16815260200192505050600060405180830381600087803b158015615b8357600080fd5b505af1158015615b97573d6000803e3d6000fd5b505050505b601960008773ffffffffffffffffffffffffffffffffffffffff1673ffffffffffffffffffffffffffffffffffffffff168152602001908152602001600020600080820160006101000a81549063ffffffff02191690556000820160046101000a81549063ffffffff02191690556000820160086101000a81549061ffff021916905560008201600a6101000a8154906fffffffffffffffffffffffffffffffff02191690556001820160006101000a8154906fffffffffffffffffffffffffffffffff02191690556001820160106101000a8154906fffffffffffffffffffffffffffffffff021916905560028201600090556003820160006101000a8154906fffffffffffffffffffffffffffffffff0219169055600482016000905560058201600090556006820160006101000a81549060ff021916905550503373ffffffffffffffffffffffffffffffffffffffff167f34fe9e989d541054eb508f79a2e9b0bc3aa3d7ff2f2ded4f1f6b2819aaec86a387604051808273ffffffffffffffffffffffffffffffffffffffff1673ffffffffffffffffffffffffffffffffffffffff16815260200191505060405180910390a2505050505050565b6060601a6000847dffffffffffffffffffffffffffffffffffffffffffffffffffffffffffff19167dffffffffffffffffffffffffffffffffffffffffffffffffffffffffffff191681526020019081526020016000206000836fffffffffffffffffffffffffffffffff19166fffffffffffffffffffffffffffffffff19168152602001908152602001600020805480602002602001604051908101604052809291908181526020018280548015615e6957602002820191906000526020600020905b8160009054906101000a900473ffffffffffffffffffffffffffffffffffffffff1673ffffffffffffffffffffffffffffffffffffffff1681526020019060010190808311615e1f575b5050505050905092915050565b600160009054906101000a900473ffffffffffffffffffffffffffffffffffffffff1673ffffffffffffffffffffffffffffffffffffffff163373ffffffffffffffffffffffffffffffffffffffff16141515615ed257600080fd5b600060086000837dffffffffffffffffffffffffffffffffffffffffffffffffffffffffffff19167dffffffffffffffffffffffffffffffffffffffffffffffffffffffffffff1916815260200190815260200160002060006101000a81548160ff02191690831515021790555050565b600080600080600660009054906101000a900460ff16151515615f6557600080fd5b86600660039054906101000a900473ffffffffffffffffffffffffffffffffffffffff1673ffffffffffffffffffffffffffffffffffffffff1663cc1d4c02826040518263ffffffff167c0100000000000000000000000000000000000000000000000000000000028152600401808273ffffffffffffffffffffffffffffffffffffffff1673ffffffffffffffffffffffffffffffffffffffff168152602001915050602060405180830381600087803b15801561602357600080fd5b505af1158015616037573d6000803e3d6000fd5b505050506040513d602081101561604d57600080fd5b8101908080519060200190929190505050151561606957600080fd5b600c60009054906101000a900473ffffffffffffffffffffffffffffffffffffffff1673ffffffffffffffffffffffffffffffffffffffff163373ffffffffffffffffffffffffffffffffffffffff161415156160c557600080fd5b6160d960008761a40d90919063ffffffff16565b945060017f0100000000000000000000000000000000000000000000000000000000000000027effffffffffffffffffffffffffffffffffffffffffffffffffffffffffffff191661613560018861a40d90919063ffffffff16565b7effffffffffffffffffffffffffffffffffffffffffffffffffffffffffffff1916146161955761617060028761a43690919063ffffffff16565b7c010000000000000000000000000000000000000000000000000000000090046161ec565b7fffffffffffffffffffffffffffffffffffffffffffffffffffffffffffffffff6161ca60028861a43690919063ffffffff16565b7c01000000000000000000000000000000000000000000000000000000009004025b935060017f0100000000000000000000000000000000000000000000000000000000000000027effffffffffffffffffffffffffffffffffffffffffffffffffffffffffffff191661624860068861a40d90919063ffffffff16565b7effffffffffffffffffffffffffffffffffffffffffffffffffffffffffffff1916146162a85761628360078761a43690919063ffffffff16565b7c010000000000000000000000000000000000000000000000000000000090046162ff565b7fffffffffffffffffffffffffffffffffffffffffffffffffffffffffffffffff6162dd60078861a43690919063ffffffff16565b7c01000000000000000000000000000000000000000000000000000000009004025b925060317f0100000000000000000000000000000000000000000000000000000000000000027effffffffffffffffffffffffffffffffffffffffffffffffffffffffffffff1916857effffffffffffffffffffffffffffffffffffffffffffffffffffffffffffff19161415616cdd57600a6000616388600b8961a45f90919063ffffffff16565b7dffffffffffffffffffffffffffffffffffffffffffffffffffffffffffff19167dffffffffffffffffffffffffffffffffffffffffffffffffffffffffffff191681526020019081526020016000205487101515156163e757600080fd5b6163f088611eb9565b1515156163fc57600080fd5b60086000616414600b8961a45f90919063ffffffff16565b7dffffffffffffffffffffffffffffffffffffffffffffffffffffffffffff19167dffffffffffffffffffffffffffffffffffffffffffffffffffffffffffff1916815260200190815260200160002060009054906101000a900460ff16151561647d57600080fd5b83601960008a73ffffffffffffffffffffffffffffffffffffffff1673ffffffffffffffffffffffffffffffffffffffff16815260200190815260200160002060000160006101000a81548163ffffffff021916908360030b63ffffffff16021790555082601960008a73ffffffffffffffffffffffffffffffffffffffff1673ffffffffffffffffffffffffffffffffffffffff16815260200190815260200160002060000160046101000a81548163ffffffff021916908360030b63ffffffff160217905550616559600b8761a45f90919063ffffffff16565b601960008a73ffffffffffffffffffffffffffffffffffffffff1673ffffffffffffffffffffffffffffffffffffffff16815260200190815260200160002060000160086101000a81548161ffff02191690837e01000000000000000000000000000000000000000000000000000000000000900402179055506165e7600d8761a48890919063ffffffff16565b601960008a73ffffffffffffffffffffffffffffffffffffffff1673ffffffffffffffffffffffffffffffffffffffff168152602001908152602001600020600001600a6101000a8154816fffffffffffffffffffffffffffffffff021916908370010000000000000000000000000000000090040217905550616675601d8761a48890919063ffffffff16565b601960008a73ffffffffffffffffffffffffffffffffffffffff1673ffffffffffffffffffffffffffffffffffffffff16815260200190815260200160002060010160006101000a8154816fffffffffffffffffffffffffffffffff021916908370010000000000000000000000000000000090040217905550616703602d8761a48890919063ffffffff16565b601960008a73ffffffffffffffffffffffffffffffffffffffff1673ffffffffffffffffffffffffffffffffffffffff16815260200190815260200160002060010160106101000a8154816fffffffffffffffffffffffffffffffff021916908370010000000000000000000000000000000090040217905550616791603d8761a4b190919063ffffffff16565b601960008a73ffffffffffffffffffffffffffffffffffffffff1673ffffffffffffffffffffffffffffffffffffffff16815260200190815260200160002060020181600019169055506167ef605d8761a48890919063ffffffff16565b601960008a73ffffffffffffffffffffffffffffffffffffffff1673ffffffffffffffffffffffffffffffffffffffff16815260200190815260200160002060030160006101000a8154816fffffffffffffffffffffffffffffffff0219169083700100000000000000000000000000000000900402179055506001601b8990806001815401808255809150509060018203906000526020600020016000909192909190916101000a81548173ffffffffffffffffffffffffffffffffffffffff021916908373ffffffffffffffffffffffffffffffffffffffff16021790555003601960008a73ffffffffffffffffffffffffffffffffffffffff1673ffffffffffffffffffffffffffffffffffffffff168152602001908152602001600020600501819055506001601a6000616931600b8a61a45f90919063ffffffff16565b7dffffffffffffffffffffffffffffffffffffffffffffffffffffffffffff19167dffffffffffffffffffffffffffffffffffffffffffffffffffffffffffff191681526020019081526020016000206000616997600d8a61a48890919063ffffffff16565b6fffffffffffffffffffffffffffffffff19166fffffffffffffffffffffffffffffffff191681526020019081526020016000208990806001815401808255809150509060018203906000526020600020016000909192909190916101000a81548173ffffffffffffffffffffffffffffffffffffffff021916908373ffffffffffffffffffffffffffffffffffffffff16021790555003601960008a73ffffffffffffffffffffffffffffffffffffffff1673ffffffffffffffffffffffffffffffffffffffff168152602001908152602001600020600401819055507ff45ad76a8c4c14053708bfd052607c5e35446beb04fbdff6f2f3c9dde8e83b3788604051808273ffffffffffffffffffffffffffffffffffffffff1673ffffffffffffffffffffffffffffffffffffffff16815260200191505060405180910390a1600d60009054906101000a900473ffffffffffffffffffffffffffffffffffffffff1673ffffffffffffffffffffffffffffffffffffffff1663d4d84da589896040518363ffffffff167c0100000000000000000000000000000000000000000000000000000000028152600401808373ffffffffffffffffffffffffffffffffffffffff1673ffffffffffffffffffffffffffffffffffffffff16815260200182815260200192505050600060405180830381600087803b158015616b9d57600080fd5b505af1158015616bb1573d6000803e3d6000fd5b50505050600c60009054906101000a900473ffffffffffffffffffffffffffffffffffffffff1673ffffffffffffffffffffffffffffffffffffffff1663a9059cbb600d60009054906101000a900473ffffffffffffffffffffffffffffffffffffffff16896040518363ffffffff167c0100000000000000000000000000000000000000000000000000000000028152600401808373ffffffffffffffffffffffffffffffffffffffff1673ffffffffffffffffffffffffffffffffffffffff16815260200182815260200192505050602060405180830381600087803b158015616c9c57600080fd5b505af1158015616cb0573d6000803e3d6000fd5b505050506040513d6020811015616cc657600080fd5b8101908080519060200190929190505050506186ff565b60327f0100000000000000000000000000000000000000000000000000000000000000027effffffffffffffffffffffffffffffffffffffffffffffffffffffffffffff1916857effffffffffffffffffffffffffffffffffffffffffffffffffffffffffffff19161415617c4557600b6000616d6460078961a45f90919063ffffffff16565b7dffffffffffffffffffffffffffffffffffffffffffffffffffffffffffff19167dffffffffffffffffffffffffffffffffffffffffffffffffffffffffffff19168152602001908152602001600020548710151515616dc357600080fd5b616dcc8861a1d3565b151515616dd857600080fd5b60096000616df060078961a45f90919063ffffffff16565b7dffffffffffffffffffffffffffffffffffffffffffffffffffffffffffff19167dffffffffffffffffffffffffffffffffffffffffffffffffffffffffffff1916815260200190815260200160002060009054906101000a900460ff161515616e5957600080fd5b616e6486600161a4da565b7d0100000000000000000000000000000000000000000000000000000000009004601560008a73ffffffffffffffffffffffffffffffffffffffff1673ffffffffffffffffffffffffffffffffffffffff16815260200190815260200160002060000181905550616ed686600461a4da565b7d0100000000000000000000000000000000000000000000000000000000009004601560008a73ffffffffffffffffffffffffffffffffffffffff1673ffffffffffffffffffffffffffffffffffffffff16815260200190815260200160002060010181905550616f5160078761a45f90919063ffffffff16565b601560008a73ffffffffffffffffffffffffffffffffffffffff1673ffffffffffffffffffffffffffffffffffffffff16815260200190815260200160002060020160006101000a81548161ffff02191690837e0100000000000000000000000000000000000000000000000000000000000090040217905550616fdf60098761a40d90919063ffffffff16565b7f01000000000000000000000000000000000000000000000000000000000000009004601560008a73ffffffffffffffffffffffffffffffffffffffff1673ffffffffffffffffffffffffffffffffffffffff16815260200190815260200160002060020160136101000a81548160ff021916908360000b60ff160217905550617073600a8761a40d90919063ffffffff16565b7f01000000000000000000000000000000000000000000000000000000000000009004601560008a73ffffffffffffffffffffffffffffffffffffffff1673ffffffffffffffffffffffffffffffffffffffff16815260200190815260200160002060020160026101000a81548160ff021916908360000b60ff160217905550617107600b8761a48890919063ffffffff16565b601560008a73ffffffffffffffffffffffffffffffffffffffff1673ffffffffffffffffffffffffffffffffffffffff16815260200190815260200160002060020160036101000a8154816fffffffffffffffffffffffffffffffff021916908370010000000000000000000000000000000090040217905550617195601b8761a45f90919063ffffffff16565b7e010000000000000000000000000000000000000000000000000000000000009004601560008a73ffffffffffffffffffffffffffffffffffffffff1673ffffffffffffffffffffffffffffffffffffffff16815260200190815260200160002060020160146101000a81548161ffff021916908360010b61ffff16021790555060017f0100000000000000000000000000000000000000000000000000000000000000027effffffffffffffffffffffffffffffffffffffffffffffffffffffffffffff1916617270601d8861a40d90919063ffffffff16565b7effffffffffffffffffffffffffffffffffffffffffffffffffffffffffffff19161461729e5760006172a1565b60015b601560008a73ffffffffffffffffffffffffffffffffffffffff1673ffffffffffffffffffffffffffffffffffffffff16815260200190815260200160002060020160166101000a81548160ff02191690831515021790555061730e601e8761a45f90919063ffffffff16565b7e010000000000000000000000000000000000000000000000000000000000009004601560008a73ffffffffffffffffffffffffffffffffffffffff1673ffffffffffffffffffffffffffffffffffffffff16815260200190815260200160002060020160176101000a81548161ffff021916908360010b61ffff160217905550600160178990806001815401808255809150509060018203906000526020600020016000909192909190916101000a81548173ffffffffffffffffffffffffffffffffffffffff021916908373ffffffffffffffffffffffffffffffffffffffff16021790555003601560008a73ffffffffffffffffffffffffffffffffffffffff1673ffffffffffffffffffffffffffffffffffffffff16815260200190815260200160002060040181905550600160166000601560008c73ffffffffffffffffffffffffffffffffffffffff1673ffffffffffffffffffffffffffffffffffffffff16815260200190815260200160002060020160009054906101000a90047e01000000000000000000000000000000000000000000000000000000000000027dffffffffffffffffffffffffffffffffffffffffffffffffffffffffffff19167dffffffffffffffffffffffffffffffffffffffffffffffffffffffffffff191681526020019081526020016000206000601560008c73ffffffffffffffffffffffffffffffffffffffff1673ffffffffffffffffffffffffffffffffffffffff1681526020019081526020016000206000015481526020019081526020016000206000601560008c73ffffffffffffffffffffffffffffffffffffffff1673ffffffffffffffffffffffffffffffffffffffff1681526020019081526020016000206001015481526020019081526020016000208990806001815401808255809150509060018203906000526020600020016000909192909190916101000a81548173ffffffffffffffffffffffffffffffffffffffff021916908373ffffffffffffffffffffffffffffffffffffffff16021790555003601560008a73ffffffffffffffffffffffffffffffffffffffff1673ffffffffffffffffffffffffffffffffffffffff1681526020019081526020016000206003018190555060001515600e60009054906101000a900473ffffffffffffffffffffffffffffffffffffffff1673ffffffffffffffffffffffffffffffffffffffff1663a4fd4f47601560008c73ffffffffffffffffffffffffffffffffffffffff1673ffffffffffffffffffffffffffffffffffffffff16815260200190815260200160002060000154601560008d73ffffffffffffffffffffffffffffffffffffffff1673ffffffffffffffffffffffffffffffffffffffff168152602001908152602001600020600101546040518363ffffffff167c01000000000000000000000000000000000000000000000000000000000281526004018083815260200182815260200192505050602060405180830381600087803b15801561777257600080fd5b505af1158015617786573d6000803e3d6000fd5b505050506040513d602081101561779c57600080fd5b8101908080519060200190929190505050151514156179a257600e60009054906101000a900473ffffffffffffffffffffffffffffffffffffffff1673ffffffffffffffffffffffffffffffffffffffff166328d60650601560008b73ffffffffffffffffffffffffffffffffffffffff1673ffffffffffffffffffffffffffffffffffffffff16815260200190815260200160002060000154601560008c73ffffffffffffffffffffffffffffffffffffffff1673ffffffffffffffffffffffffffffffffffffffff16815260200190815260200160002060010154601560008d73ffffffffffffffffffffffffffffffffffffffff1673ffffffffffffffffffffffffffffffffffffffff16815260200190815260200160002060020160009054906101000a90047e01000000000000000000000000000000000000000000000000000000000000026040518463ffffffff167c010000000000000000000000000000000000000000000000000000000002815260040180848152602001838152602001827dffffffffffffffffffffffffffffffffffffffffffffffffffffffffffff19167dffffffffffffffffffffffffffffffffffffffffffffffffffffffffffff191681526020019350505050600060405180830381600087803b15801561798957600080fd5b505af115801561799d573d6000803e3d6000fd5b505050505b6001601560008a73ffffffffffffffffffffffffffffffffffffffff1673ffffffffffffffffffffffffffffffffffffffff16815260200190815260200160002060050160006101000a81548160ff0219169083151502179055508773ffffffffffffffffffffffffffffffffffffffff167fdc94eebf39359cb097be68bd4890a58fce65c66d2d284d4349f666013dc8a43d60405160405180910390a2600d60009054906101000a900473ffffffffffffffffffffffffffffffffffffffff1673ffffffffffffffffffffffffffffffffffffffff166318a6d58b89896040518363ffffffff167c0100000000000000000000000000000000000000000000000000000000028152600401808373ffffffffffffffffffffffffffffffffffffffff1673ffffffffffffffffffffffffffffffffffffffff16815260200182815260200192505050600060405180830381600087803b158015617b0557600080fd5b505af1158015617b19573d6000803e3d6000fd5b50505050600c60009054906101000a900473ffffffffffffffffffffffffffffffffffffffff1673ffffffffffffffffffffffffffffffffffffffff1663a9059cbb600d60009054906101000a900473ffffffffffffffffffffffffffffffffffffffff16896040518363ffffffff167c0100000000000000000000000000000000000000000000000000000000028152600401808373ffffffffffffffffffffffffffffffffffffffff1673ffffffffffffffffffffffffffffffffffffffff16815260200182815260200192505050602060405180830381600087803b158015617c0457600080fd5b505af1158015617c18573d6000803e3d6000fd5b505050506040513d6020811015617c2e57600080fd5b8101908080519060200190929190505050506186fe565b60337f0100000000000000000000000000000000000000000000000000000000000000027effffffffffffffffffffffffffffffffffffffffffffffffffffffffffffff1916857effffffffffffffffffffffffffffffffffffffffffffffffffffffffffffff191614156186fd57600260009054906101000a900473ffffffffffffffffffffffffffffffffffffffff1673ffffffffffffffffffffffffffffffffffffffff168873ffffffffffffffffffffffffffffffffffffffff16141515617d1057600080fd5b600a6000617d28600b8961a45f90919063ffffffff16565b7dffffffffffffffffffffffffffffffffffffffffffffffffffffffffffff19167dffffffffffffffffffffffffffffffffffffffffffffffffffffffffffff19168152602001908152602001600020548710151515617d8757600080fd5b617da3617d9e606d8861a50390919063ffffffff16565b611eb9565b151515617daf57600080fd5b60086000617dc7600b8961a45f90919063ffffffff16565b7dffffffffffffffffffffffffffffffffffffffffffffffffffffffffffff19167dffffffffffffffffffffffffffffffffffffffffffffffffffffffffffff1916815260200190815260200160002060009054906101000a900460ff161515617e3057600080fd5b617e44606d8761a50390919063ffffffff16565b915083601960008473ffffffffffffffffffffffffffffffffffffffff1673ffffffffffffffffffffffffffffffffffffffff16815260200190815260200160002060000160006101000a81548163ffffffff021916908360030b63ffffffff16021790555082601960008473ffffffffffffffffffffffffffffffffffffffff1673ffffffffffffffffffffffffffffffffffffffff16815260200190815260200160002060000160046101000a81548163ffffffff021916908360030b63ffffffff160217905550617f22600b8761a45f90919063ffffffff16565b601960008473ffffffffffffffffffffffffffffffffffffffff1673ffffffffffffffffffffffffffffffffffffffff16815260200190815260200160002060000160086101000a81548161ffff02191690837e0100000000000000000000000000000000000000000000000000000000000090040217905550617fb0600d8761a48890919063ffffffff16565b601960008473ffffffffffffffffffffffffffffffffffffffff1673ffffffffffffffffffffffffffffffffffffffff168152602001908152602001600020600001600a6101000a8154816fffffffffffffffffffffffffffffffff02191690837001000000000000000000000000000000009004021790555061803e601d8761a48890919063ffffffff16565b601960008473ffffffffffffffffffffffffffffffffffffffff1673ffffffffffffffffffffffffffffffffffffffff16815260200190815260200160002060010160006101000a8154816fffffffffffffffffffffffffffffffff0219169083700100000000000000000000000000000000900402179055506180cc602d8761a48890919063ffffffff16565b601960008473ffffffffffffffffffffffffffffffffffffffff1673ffffffffffffffffffffffffffffffffffffffff16815260200190815260200160002060010160106101000a8154816fffffffffffffffffffffffffffffffff02191690837001000000000000000000000000000000009004021790555061815a603d8761a4b190919063ffffffff16565b601960008473ffffffffffffffffffffffffffffffffffffffff1673ffffffffffffffffffffffffffffffffffffffff16815260200190815260200160002060020181600019169055506181b8605d8761a48890919063ffffffff16565b601960008473ffffffffffffffffffffffffffffffffffffffff1673ffffffffffffffffffffffffffffffffffffffff16815260200190815260200160002060030160006101000a8154816fffffffffffffffffffffffffffffffff0219169083700100000000000000000000000000000000900402179055506001601b8390806001815401808255809150509060018203906000526020600020016000909192909190916101000a81548173ffffffffffffffffffffffffffffffffffffffff021916908373ffffffffffffffffffffffffffffffffffffffff16021790555003601960008473ffffffffffffffffffffffffffffffffffffffff1673ffffffffffffffffffffffffffffffffffffffff168152602001908152602001600020600501819055506001601a60006182fa600b8a61a45f90919063ffffffff16565b7dffffffffffffffffffffffffffffffffffffffffffffffffffffffffffff19167dffffffffffffffffffffffffffffffffffffffffffffffffffffffffffff191681526020019081526020016000206000618360600d8a61a48890919063ffffffff16565b6fffffffffffffffffffffffffffffffff19166fffffffffffffffffffffffffffffffff191681526020019081526020016000208390806001815401808255809150509060018203906000526020600020016000909192909190916101000a81548173ffffffffffffffffffffffffffffffffffffffff021916908373ffffffffffffffffffffffffffffffffffffffff16021790555003601960008473ffffffffffffffffffffffffffffffffffffffff1673ffffffffffffffffffffffffffffffffffffffff168152602001908152602001600020600401819055506001601960008473ffffffffffffffffffffffffffffffffffffffff1673ffffffffffffffffffffffffffffffffffffffff16815260200190815260200160002060060160006101000a81548160ff0219169083151502179055507ff45ad76a8c4c14053708bfd052607c5e35446beb04fbdff6f2f3c9dde8e83b3782604051808273ffffffffffffffffffffffffffffffffffffffff1673ffffffffffffffffffffffffffffffffffffffff16815260200191505060405180910390a1600d60009054906101000a900473ffffffffffffffffffffffffffffffffffffffff1673ffffffffffffffffffffffffffffffffffffffff1663d4d84da583896040518363ffffffff167c0100000000000000000000000000000000000000000000000000000000028152600401808373ffffffffffffffffffffffffffffffffffffffff1673ffffffffffffffffffffffffffffffffffffffff16815260200182815260200192505050600060405180830381600087803b1580156185c157600080fd5b505af11580156185d5573d6000803e3d6000fd5b50505050600c60009054906101000a900473ffffffffffffffffffffffffffffffffffffffff1673ffffffffffffffffffffffffffffffffffffffff1663a9059cbb600d60009054906101000a900473ffffffffffffffffffffffffffffffffffffffff16896040518363ffffffff167c0100000000000000000000000000000000000000000000000000000000028152600401808373ffffffffffffffffffffffffffffffffffffffff1673ffffffffffffffffffffffffffffffffffffffff16815260200182815260200192505050602060405180830381600087803b1580156186c057600080fd5b505af11580156186d4573d6000803e3d6000fd5b505050506040513d60208110156186ea57600080fd5b8101908080519060200190929190505050505b5b5b5050505050505050565b60056020528060005260406000206000915054906101000a900460ff1681565b60096020528060005260406000206000915054906101000a900460ff1681565b6000601460008373ffffffffffffffffffffffffffffffffffffffff1673ffffffffffffffffffffffffffffffffffffffff168152602001908152602001600020549050919050565b6000809054906101000a900473ffffffffffffffffffffffffffffffffffffffff1673ffffffffffffffffffffffffffffffffffffffff163373ffffffffffffffffffffffffffffffffffffffff161415156187ed57600080fd5b600073ffffffffffffffffffffffffffffffffffffffff168173ffffffffffffffffffffffffffffffffffffffff161415151561882957600080fd5b6001600560008373ffffffffffffffffffffffffffffffffffffffff1673ffffffffffffffffffffffffffffffffffffffff16815260200190815260200160002060006101000a81548160ff02191690831515021790555050565b606060166000857dffffffffffffffffffffffffffffffffffffffffffffffffffffffffffff19167dffffffffffffffffffffffffffffffffffffffffffffffffffffffffffff191681526020019081526020016000206000848152602001908152602001600020600083815260200190815260200160002080548060200260200160405190810160405280929190818152602001828054801561897d57602002820191906000526020600020905b8160009054906101000a900473ffffffffffffffffffffffffffffffffffffffff1673ffffffffffffffffffffffffffffffffffffffff1681526020019060010190808311618933575b505050505090509392505050565b600660029054906101000a900460ff1681565b6060601b805480602002602001604051908101604052809291908181526020018280548015618a2257602002820191906000526020600020905b8160009054906101000a900473ffffffffffffffffffffffffffffffffffffffff1673ffffffffffffffffffffffffffffffffffffffff16815260200190600101908083116189d8575b5050505050905090565b6000600660009054906101000a900460ff16151515618a4a57600080fd5b33826000806000806000601560008873ffffffffffffffffffffffffffffffffffffffff1673ffffffffffffffffffffffffffffffffffffffff16815260200190815260200160002060020160009054906101000a90047e01000000000000000000000000000000000000000000000000000000000000029450618ae7618ad088612454565b618adb576001618ade565b60025b60ff168661413d565b9350618bb3600f60009054906101000a900473ffffffffffffffffffffffffffffffffffffffff1673ffffffffffffffffffffffffffffffffffffffff166350ccf36b6040518163ffffffff167c0100000000000000000000000000000000000000000000000000000000028152600401602060405180830381600087803b158015618b7257600080fd5b505af1158015618b86573d6000803e3d6000fd5b505050506040513d6020811015618b9c57600080fd5b81019080805190602001909291905050508561a53b565b9250600d60009054906101000a900473ffffffffffffffffffffffffffffffffffffffff1673ffffffffffffffffffffffffffffffffffffffff1663ad71766e886040518263ffffffff167c0100000000000000000000000000000000000000000000000000000000028152600401808273ffffffffffffffffffffffffffffffffffffffff1673ffffffffffffffffffffffffffffffffffffffff168152602001915050602060405180830381600087803b158015618c7257600080fd5b505af1158015618c86573d6000803e3d6000fd5b505050506040513d6020811015618c9c57600080fd5b81019080805190602001909291905050509150618cb9828761a573565b9050828111151515618cca57600080fd5b618cd33361a1d3565b1515618cde57600080fd5b3373ffffffffffffffffffffffffffffffffffffffff168a73ffffffffffffffffffffffffffffffffffffffff1614151515618d1957600080fd5b600d60009054906101000a900473ffffffffffffffffffffffffffffffffffffffff1673ffffffffffffffffffffffffffffffffffffffff1663f5923a6e338c8c6040518463ffffffff167c0100000000000000000000000000000000000000000000000000000000028152600401808473ffffffffffffffffffffffffffffffffffffffff1673ffffffffffffffffffffffffffffffffffffffff1681526020018373ffffffffffffffffffffffffffffffffffffffff1673ffffffffffffffffffffffffffffffffffffffff1681526020018281526020019350505050600060405180830381600087803b158015618e1257600080fd5b505af1158015618e26573d6000803e3d6000fd5b50505050600660039054906101000a900473ffffffffffffffffffffffffffffffffffffffff1673ffffffffffffffffffffffffffffffffffffffff1663cc1d4c028b6040518263ffffffff167c0100000000000000000000000000000000000000000000000000000000028152600401808273ffffffffffffffffffffffffffffffffffffffff1673ffffffffffffffffffffffffffffffffffffffff168152602001915050602060405180830381600087803b158015618ee757600080fd5b505af1158015618efb573d6000803e3d6000fd5b505050506040513d6020811015618f1157600080fd5b8101908080519060200190929190505050156192d857601060003373ffffffffffffffffffffffffffffffffffffffff1673ffffffffffffffffffffffffffffffffffffffff16815260200190815260200160002060008b73ffffffffffffffffffffffffffffffffffffffff1673ffffffffffffffffffffffffffffffffffffffff168152602001908152602001600020549750600088141561903857612710601060003373ffffffffffffffffffffffffffffffffffffffff1673ffffffffffffffffffffffffffffffffffffffff16815260200190815260200160002060008c73ffffffffffffffffffffffffffffffffffffffff1673ffffffffffffffffffffffffffffffffffffffff1681526020019081526020016000208190555061271097505b619097601460003373ffffffffffffffffffffffffffffffffffffffff1673ffffffffffffffffffffffffffffffffffffffff168152602001908152602001600020546127106190888c8c61a53b565b81151561909157fe5b0461a573565b601460003373ffffffffffffffffffffffffffffffffffffffff1673ffffffffffffffffffffffffffffffffffffffff1681526020019081526020016000208190555060646190e789604f61a53b565b8115156190f057fe5b04601060003373ffffffffffffffffffffffffffffffffffffffff1673ffffffffffffffffffffffffffffffffffffffff16815260200190815260200160002060008c73ffffffffffffffffffffffffffffffffffffffff1673ffffffffffffffffffffffffffffffffffffffff168152602001908152602001600020819055506191ba601160008c73ffffffffffffffffffffffffffffffffffffffff1673ffffffffffffffffffffffffffffffffffffffff168152602001908152602001600020548a61a573565b601160008c73ffffffffffffffffffffffffffffffffffffffff1673ffffffffffffffffffffffffffffffffffffffff16815260200190815260200160002081905550619246601260003373ffffffffffffffffffffffffffffffffffffffff1673ffffffffffffffffffffffffffffffffffffffff168152602001908152602001600020548a61a573565b601260003373ffffffffffffffffffffffffffffffffffffffff1673ffffffffffffffffffffffffffffffffffffffff168152602001908152602001600020819055506001601360003373ffffffffffffffffffffffffffffffffffffffff1673ffffffffffffffffffffffffffffffffffffffff168152602001908152602001600020600082825401925050819055505b8973ffffffffffffffffffffffffffffffffffffffff163373ffffffffffffffffffffffffffffffffffffffff167f3990db2d31862302a685e8086b5755072a6e2b5b780af1ee81ece35ee3cd33458b6040518082815260200191505060405180910390a350505050505050505050565b6000809054906101000a900473ffffffffffffffffffffffffffffffffffffffff1673ffffffffffffffffffffffffffffffffffffffff163373ffffffffffffffffffffffffffffffffffffffff161415156193a457600080fd5b600660029054906101000a900460ff161515156193c057600080fd5b80600760006101000a81548173ffffffffffffffffffffffffffffffffffffffff021916908373ffffffffffffffffffffffffffffffffffffffff1602179055506001600660026101000a81548160ff02191690831515021790555050565b60008060008060008060008033600560008273ffffffffffffffffffffffffffffffffffffffff1673ffffffffffffffffffffffffffffffffffffffff16815260200190815260200160002060009054906101000a900460ff16151561948457600080fd5b61948d8a61a1d3565b151561949857600080fd5b601560008b73ffffffffffffffffffffffffffffffffffffffff1673ffffffffffffffffffffffffffffffffffffffff16815260200190815260200160002060020160009054906101000a90047e01000000000000000000000000000000000000000000000000000000000000029850601560008b73ffffffffffffffffffffffffffffffffffffffff1673ffffffffffffffffffffffffffffffffffffffff168152602001908152602001600020600001549750601560008b73ffffffffffffffffffffffffffffffffffffffff1673ffffffffffffffffffffffffffffffffffffffff168152602001908152602001600020600101549650601660008a7dffffffffffffffffffffffffffffffffffffffffffffffffffffffffffff19167dffffffffffffffffffffffffffffffffffffffffffffffffffffffffffff191681526020019081526020016000206000898152602001908152602001600020600088815260200190815260200160002080549050955060018614156196a857601660008a7dffffffffffffffffffffffffffffffffffffffffffffffffffffffffffff19167dffffffffffffffffffffffffffffffffffffffffffffffffffffffffffff19168152602001908152602001600020600089815260200190815260200160002060008881526020019081526020016000208054809190600190036196a2919061a58f565b506199dd565b601560008b73ffffffffffffffffffffffffffffffffffffffff1673ffffffffffffffffffffffffffffffffffffffff1681526020019081526020016000206003015494506001860385141561978857601660008a7dffffffffffffffffffffffffffffffffffffffffffffffffffffffffffff19167dffffffffffffffffffffffffffffffffffffffffffffffffffffffffffff1916815260200190815260200160002060008981526020019081526020016000206000888152602001908152602001600020805480919060019003619782919061a58f565b506199dc565b601660008a7dffffffffffffffffffffffffffffffffffffffffffffffffffffffffffff19167dffffffffffffffffffffffffffffffffffffffffffffffffffffffffffff19168152602001908152602001600020600089815260200190815260200160002060008881526020019081526020016000206001870381548110151561980f57fe5b9060005260206000200160009054906101000a900473ffffffffffffffffffffffffffffffffffffffff16935083601660008b7dffffffffffffffffffffffffffffffffffffffffffffffffffffffffffff19167dffffffffffffffffffffffffffffffffffffffffffffffffffffffffffff1916815260200190815260200160002060008a81526020019081526020016000206000898152602001908152602001600020868154811015156198c157fe5b9060005260206000200160006101000a81548173ffffffffffffffffffffffffffffffffffffffff021916908373ffffffffffffffffffffffffffffffffffffffff16021790555084601560008673ffffffffffffffffffffffffffffffffffffffff1673ffffffffffffffffffffffffffffffffffffffff16815260200190815260200160002060030181905550601660008a7dffffffffffffffffffffffffffffffffffffffffffffffffffffffffffff19167dffffffffffffffffffffffffffffffffffffffffffffffffffffffffffff19168152602001908152602001600020600089815260200190815260200160002060008881526020019081526020016000208054809190600190036199da919061a58f565b505b5b601560008b73ffffffffffffffffffffffffffffffffffffffff1673ffffffffffffffffffffffffffffffffffffffff16815260200190815260200160002060040154925060016017805490501415619a4b576017805480919060019003619a45919061a58f565b50619b71565b600160178054905003831415619a76576017805480919060019003619a70919061a58f565b50619b70565b6017600160178054905003815481101515619a8d57fe5b9060005260206000200160009054906101000a900473ffffffffffffffffffffffffffffffffffffffff16915081601784815481101515619aca57fe5b9060005260206000200160006101000a81548173ffffffffffffffffffffffffffffffffffffffff021916908373ffffffffffffffffffffffffffffffffffffffff16021790555082601560008473ffffffffffffffffffffffffffffffffffffffff1673ffffffffffffffffffffffffffffffffffffffff168152602001908152602001600020600401819055506017805480919060019003619b6e919061a58f565b505b5b601560008b73ffffffffffffffffffffffffffffffffffffffff1673ffffffffffffffffffffffffffffffffffffffff16815260200190815260200160002060008082016000905560018201600090556002820160006101000a81549061ffff02191690556002820160026101000a81549060ff02191690556002820160036101000a8154906fffffffffffffffffffffffffffffffff02191690556002820160136101000a81549060ff02191690556002820160146101000a81549061ffff02191690556002820160166101000a81549060ff02191690556002820160176101000a81549061ffff0219169055600382016000905560048201600090556005820160006101000a81549060ff02191690555050600d60009054906101000a900473ffffffffffffffffffffffffffffffffffffffff1673ffffffffffffffffffffffffffffffffffffffff1663b71738f18b6040518263ffffffff167c0100000000000000000000000000000000000000000000000000000000028152600401808273ffffffffffffffffffffffffffffffffffffffff1673ffffffffffffffffffffffffffffffffffffffff168152602001915050600060405180830381600087803b158015619d4257600080fd5b505af1158015619d56573d6000803e3d6000fd5b50505050600d60009054906101000a900473ffffffffffffffffffffffffffffffffffffffff1673ffffffffffffffffffffffffffffffffffffffff1663d83edd708b6040518263ffffffff167c0100000000000000000000000000000000000000000000000000000000028152600401808273ffffffffffffffffffffffffffffffffffffffff1673ffffffffffffffffffffffffffffffffffffffff168152602001915050600060405180830381600087803b158015619e1757600080fd5b505af1158015619e2b573d6000803e3d6000fd5b505050503373ffffffffffffffffffffffffffffffffffffffff167fcf9fc954c975d15bad8f5fa3c1cd94f55105a98b1ecf33021ebb059122277f8f8b604051808273ffffffffffffffffffffffffffffffffffffffff1673ffffffffffffffffffffffffffffffffffffffff16815260200191505060405180910390a250505050505050505050565b600160009054906101000a900473ffffffffffffffffffffffffffffffffffffffff1673ffffffffffffffffffffffffffffffffffffffff163373ffffffffffffffffffffffffffffffffffffffff16141515619f1157600080fd5b80600b6000847dffffffffffffffffffffffffffffffffffffffffffffffffffffffffffff19167dffffffffffffffffffffffffffffffffffffffffffffffffffffffffffff19168152602001908152602001600020819055505050565b600b6020528060005260406000206000915090505481565b600080600080600080600080600080600080601560008e73ffffffffffffffffffffffffffffffffffffffff1673ffffffffffffffffffffffffffffffffffffffff168152602001908152602001600020905080600001549b5080600101549a508060020160009054906101000a90047e010000000000000000000000000000000000000000000000000000000000000299508060020160029054906101000a900460000b98508060020160039054906101000a90047001000000000000000000000000000000000297508060020160139054906101000a900460000b96508060020160149054906101000a900460010b95508060050160009054906101000a900460ff1693508060020160169054906101000a900460ff1692508060020160179054906101000a900460010b9150600d60009054906101000a900473ffffffffffffffffffffffffffffffffffffffff1673ffffffffffffffffffffffffffffffffffffffff16638d837f388e6040518263ffffffff167c0100000000000000000000000000000000000000000000000000000000028152600401808273ffffffffffffffffffffffffffffffffffffffff1673ffffffffffffffffffffffffffffffffffffffff168152602001915050602060405180830381600087803b15801561a17357600080fd5b505af115801561a187573d6000803e3d6000fd5b505050506040513d602081101561a19d57600080fd5b810190808051906020019092919050505094505091939597999b90929496989a50565b600660019054906101000a900460ff1681565b6000807e01000000000000000000000000000000000000000000000000000000000000027dffffffffffffffffffffffffffffffffffffffffffffffffffffffffffff1916601560008473ffffffffffffffffffffffffffffffffffffffff1673ffffffffffffffffffffffffffffffffffffffff16815260200190815260200160002060020160009054906101000a90047e01000000000000000000000000000000000000000000000000000000000000027dffffffffffffffffffffffffffffffffffffffffffffffffffffffffffff191614159050919050565b6000809054906101000a900473ffffffffffffffffffffffffffffffffffffffff1673ffffffffffffffffffffffffffffffffffffffff163373ffffffffffffffffffffffffffffffffffffffff1614151561a30b57600080fd5b600660019054906101000a900460ff1615151561a32757600080fd5b80600660036101000a81548173ffffffffffffffffffffffffffffffffffffffff021916908373ffffffffffffffffffffffffffffffffffffffff1602179055506001600660016101000a81548160ff02191690831515021790555050565b6000601060008473ffffffffffffffffffffffffffffffffffffffff1673ffffffffffffffffffffffffffffffffffffffff16815260200190815260200160002060008373ffffffffffffffffffffffffffffffffffffffff1673ffffffffffffffffffffffffffffffffffffffff16815260200190815260200160002054905092915050565b6000806001830184511015151561a42357600080fd5b8260208501015190508091505092915050565b6000806004830184511015151561a44c57600080fd5b8260208501015190508091505092915050565b6000806002830184511015151561a47557600080fd5b8260208501015190508091505092915050565b6000806010830184511015151561a49e57600080fd5b8260208501015190508091505092915050565b6000806020830184511015151561a4c757600080fd5b8260208501015190508091505092915050565b6000806003830184511015151561a4f057600080fd5b8260208501015190508091505092915050565b6000806014830184511015151561a51957600080fd5b6c01000000000000000000000000836020860101510490508091505092915050565b60008083141561a54e576000905061a56d565b818302905081838281151561a55f57fe5b0414151561a56957fe5b8090505b92915050565b6000818301905082811015151561a58657fe5b80905092915050565b81548183558181111561a5b65781836000526020600020918201910161a5b5919061a5bb565b5b505050565b61a5dd91905b8082111561a5d957600081600090555060010161a5c1565b5090565b905600a165627a7a72305820b80b0b85ce5ca2e68a88aac012a09327ca7addf98078a128361f72d29a8737a60029",
  "source": "pragma solidity 0.4.23;\n\n// contract\nimport './DetherSetup.sol';\nimport './DetherAccessControl.sol';\nimport './map/DetherZoning.sol';\n\n// interface\nimport './dth/tokenfoundry/ERC223ReceivingContract.sol';\nimport './dth/tokenfoundry/ERC223Basic.sol';\n\n// library\nimport 'bytes/BytesLib.sol'; // EthPM\nimport 'zeppelin-solidity/contracts/math/SafeMath.sol';\n\ncontract ExchangeRateOracle {\n  function getWeiPriceOneUsd() external view returns(uint256);\n}\n\n// only interface to save gas\ncontract DetherBank {\n  function withdrawDthTeller(address _receiver) external;\n  function withdrawDthShop(address _receiver) external;\n  function withdrawDthShopAdmin(address _from, address _receiver) external;\n  function addTokenShop(address _from, uint _value) external;\n  function addTokenTeller(address _from, uint _value) external;\n  function addEthTeller(address _from, uint _value) external payable returns (bool);\n  function withdrawEth(address _from, address _to, uint _amount) external;\n  function refundEth(address _from) external;\n  function getDthTeller(address _user) public view returns (uint);\n  function getDthShop(address _user) public view returns (uint);\n  function getEthBalTeller(address _user) public view returns (uint);\n  function getWeiSoldToday(address _user) public view returns (uint256 weiSoldToday);\n  function transferOwnership(address newOwner) public;\n}\n\ncontract DetherCore is DetherSetup, ERC223ReceivingContract {\n  using BytesLib for bytes;\n\n  /**\n  * Event\n  */\n  // when a Teller is registered\n  event RegisterTeller(address indexed tellerAddress);\n  // when a teller is deleted\n  event DeleteTeller(address indexed tellerAddress);\n  // when teller update\n  event UpdateTeller(address indexed tellerAddress);\n  // when a teller send to a buyer\n  event Sent(address indexed _from, address indexed _to, uint amount);\n  // when a shop register\n  event RegisterShop(address shopAddress);\n  // when a shop delete\n  event DeleteShop(address shopAddress);\n  // when a moderator delete a shop\n  event DeleteShopModerator(address indexed moderator, address shopAddress);\n  // when a moderator delete a teller\n  event DeleteTellerModerator(address indexed moderator, address tellerAddress);\n\n  /**\n   * Modifier\n   */\n  // if teller has staked enough dth to\n  modifier tellerHasStaked(uint amount) {\n    require(bank.getDthTeller(msg.sender) >= amount);\n    _;\n  }\n  // if shop has staked enough dth to\n  modifier shopHasStaked(uint amount) {\n    require(bank.getDthShop(msg.sender) >= amount);\n    _;\n  }\n\n  /*\n   * External contract\n   */\n  // DTH contract\n  ERC223Basic public dth;\n  // bank contract where are stored ETH and DTH\n  DetherBank public bank;\n\n  DetherZoning public zoning;\n\n  ExchangeRateOracle public priceOracle;\n\n  // teller struct\n  struct Teller {\n    uint x18;           // x coordinate\n    uint y18;           // y coordinate\n    bytes2 countryId;     // countryID (in hexa), ISO ALPHA 2 https://en.wikipedia.org/wiki/ISO_3166-1_alpha-2\n\n    int8 currencyId;      // 1 - 100 , cf README\n    bytes16 messenger;    // telegrame nickname\n    int8 avatarId;        // 1 - 100 , regarding the front-end app you use\n    int16 rates;          // margin of tellers , -999 - +9999 , corresponding to -99,9% x 10  , 999,9% x 10\n    bool buyer;           // appear as a buyer as well on the map\n    int16 buyRates;         // margin of tellers of\n\n    uint zoneIndex;       // index of the zone mapping\n    uint generalIndex;    // index of general mapping\n    bool online;          // switch online/offline, if the tellers want to be inactive without deleting his point\n  }\n\n  mapping(address => mapping(address => uint)) internal pairSellsLoyaltyPerc;\n  //      from               to         percentage of loyalty points from gets\n\n  /*\n   * Reputation field V0.1\n   * Reputation is based on volume sell, volume buy, and number of transaction\n   */\n  mapping(address => uint) volumeBuy;\n  mapping(address => uint) volumeSell;\n  mapping(address => uint) nbTrade;\n  mapping(address => uint256) loyaltyPoints;\n\n  // general mapping of teller\n  mapping(address => Teller) teller;\n  // mappoing of teller by COUNTRYCODE => POSTALCODE\n  mapping(bytes2 => mapping(uint => mapping(uint => address[]))) tellerInZone;\n  // teller array currently registered\n  address[] public tellerIndex; // unordered list of teller register on it\n  bool isStarted = false;\n  // shop struct\n  struct Shop {\n    int32 lat;            // latitude\n    int32 lng;            // longitude\n    bytes2 countryId;     // countryID (in hexa char), ISO ALPHA 2 https://en.wikipedia.org/wiki/ISO_3166-1_alpha-2\n    bytes16 postalCode;   // postalCode if present (in hexa char), in Hexa https://en.wikipedia.org/wiki/List_of_postal_codes\n    bytes16 cat;          // Category of the shop (in hex char), will be used later for search engine and auction by zone\n    bytes16 name;         // name of the shop (in hex char)\n    bytes32 description;  // description of the shop\n    bytes16 opening;      // opening hours, cf README for the format\n\n    uint zoneIndex;       // index of the zone mapping\n    uint generalIndex;    // index of general mapping\n    bool detherShop;      // bool if shop is registered by dether as business partnership (still required DTH)\n  }\n\n  // general mapping of shop\n  mapping(address => Shop) shop;\n  // mapping of teller by COUNTRYCODE => POSTALCODE\n  mapping(bytes2 => mapping(bytes16 => address[])) shopInZone;\n  // shop array currently registered\n  address[] public shopIndex; // unordered list of shop register on it\n\n  /*\n   * Instanciation\n   */\n  constructor() {\n   ceoAddress = msg.sender;\n  }\n  function initContract (address _dth, address _bank, address _zone) external onlyCEO {\n    require(!isStarted);\n    dth = ERC223Basic(_dth);\n    bank = DetherBank(_bank);\n    zoning = DetherZoning(_zone);\n    isStarted = true;\n  }\n\n  function setPriceOracle (address _priceOracle) external onlyCFO {\n    priceOracle = ExchangeRateOracle(_priceOracle);\n  }\n\n  function toBytes3(bytes _bytes, uint _start) internal pure returns (bytes3) {\n    require(_bytes.length >= (_start + 3));\n    bytes3 tempBytes3;\n\n    assembly {\n        tempBytes3 := mload(add(add(_bytes, 0x20), _start))\n    }\n\n    return tempBytes3;\n  }\n\n  /**\n   * Core fonction\n   */\n\n  /**\n   * @dev Standard ERC223 function that will handle incoming token transfers.\n   * This is the main function to register SHOP or TELLER, its calling when you\n   * send token to the DTH contract and by passing data as bytes on the third\n   * parameter.\n   * Its not supposed to be use on its own but will only handle incoming DTH\n   * transaction.\n   * The _data will wait for\n   * [1st byte] 1 (0x31) for shop OR 2 (0x32) for teller\n   * FOR SHOP:\n   * 2sd to 5th bytes lat\n   * 6th to 9th bytes lng\n   * ...\n   * FOR TELLER:\n   * 2nd to 4th bytes x18\n   * 5th to 7th bytes y18\n   * ...\n   * Modifier tier1: Check if address is whitelisted with the sms verification\n   */\n  function tokenFallback(address _from, uint _value, bytes _data) whenNotPaused tier1(_from ) {\n    // require than the token fallback is triggered from the dth token contract\n    require(msg.sender == address(dth));\n    // check first byte to know if its shop or teller registration\n    // 1 / 0x31 = shop // 2 / 0x32 = teller\n    bytes1 _func = _data.toBytes1(0);\n    int32 posLat = _data.toBytes1(1) == bytes1(0x01) ? int32(_data.toBytes4(2)) * -1 : int32(_data.toBytes4(2));\n    int32 posLng = _data.toBytes1(6) == bytes1(0x01) ? int32(_data.toBytes4(7)) * -1 : int32(_data.toBytes4(7));\n    if (_func == bytes1(0x31)) { // shop registration // GAS USED 311000\n      // require staked greater than licence price\n      require(_value >= licenceShop[_data.toBytes2(11)]);\n      // require its not already shop\n      require(!isShop(_from));\n      // require zone is open\n      require(openedCountryShop[_data.toBytes2(11)]);\n\n      shop[_from].lat = posLat;\n      shop[_from].lng = posLng;\n      shop[_from].countryId = _data.toBytes2(11);\n      shop[_from].postalCode = _data.toBytes16(13);\n      shop[_from].cat = _data.toBytes16(29);\n      shop[_from].name = _data.toBytes16(45);\n      shop[_from].description = _data.toBytes32(61);\n      shop[_from].opening = _data.toBytes16(93);\n      shop[_from].generalIndex = shopIndex.push(_from) - 1;\n      shop[_from].zoneIndex = shopInZone[_data.toBytes2(11)][_data.toBytes16(13)].push(_from) - 1;\n      emit RegisterShop(_from);\n      bank.addTokenShop(_from,_value);\n      dth.transfer(address(bank), _value);\n    } else if (_func == bytes1(0x32)) { // teller registration -- GAS USED 310099\n      // require staked greater than licence price\n      require(_value >= licenceTeller[_data.toBytes2(7)]);\n      // require is not already a teller\n      require(!isTeller(_from));\n      // require zone is open\n      require(openedCountryTeller[_data.toBytes2(7)]);\n\n      teller[_from].x18 = uint(toBytes3(_data, 1));\n      teller[_from].y18 = uint(toBytes3(_data, 4));\n      teller[_from].countryId = _data.toBytes2(7);\n      teller[_from].avatarId = int8(_data.toBytes1(9));\n      teller[_from].currencyId = int8(_data.toBytes1(10));\n      teller[_from].messenger = _data.toBytes16(11);\n      teller[_from].rates = int16(_data.toBytes2(27));\n      teller[_from].buyer = _data.toBytes1(29) == bytes1(0x01) ? true : false;\n      teller[_from].buyRates = int16(_data.toBytes2(30));\n\n      teller[_from].generalIndex = tellerIndex.push(_from) - 1;\n      teller[_from].zoneIndex = tellerInZone[teller[_from].countryId][teller[_from].x18][teller[_from].y18].push(_from) - 1;\n\n      // create zone if it doesn't exist yet\n      if (zoning.doesZoneExist(teller[_from].x18, teller[_from].y18) == false) {\n        zoning.createZone(\n          teller[_from].x18,\n          teller[_from].y18,\n          teller[_from].countryId\n        );\n      }\n\n      teller[_from].online = true;\n      emit RegisterTeller(_from);\n      bank.addTokenTeller(_from, _value);\n      dth.transfer(address(bank), _value);\n    } else if (_func == bytes1(0x33)) {  // shop bulk registration\n      // We need to have the possibility to register in bulk some shop\n      // For big retailer company willing to be listed on dether, we need to have a way to add\n      // all their shop from one address\n      // This functionnality will become available for anyone willing to list multiple shop\n      // in the futures contract\n\n      // Only the CSO should be able to register shop in bulk\n      require(_from == csoAddress);\n      // Each shop still need his own staking\n      require(_value >= licenceShop[_data.toBytes2(11)]);\n      // require the addresses not already registered\n      require(!isShop(address(_data.toAddress(109))));\n      // require zone is open\n      require(openedCountryShop[_data.toBytes2(11)]);\n      address newShopAddress = _data.toAddress(109);\n      shop[newShopAddress].lat = posLat;\n      shop[newShopAddress].lng = posLng;\n      shop[newShopAddress].countryId = _data.toBytes2(11);\n      shop[newShopAddress].postalCode = _data.toBytes16(13);\n      shop[newShopAddress].cat = _data.toBytes16(29);\n      shop[newShopAddress].name = _data.toBytes16(45);\n      shop[newShopAddress].description = _data.toBytes32(61);\n      shop[newShopAddress].opening = _data.toBytes16(93);\n      shop[newShopAddress].generalIndex = shopIndex.push(newShopAddress) - 1;\n      shop[newShopAddress].zoneIndex = shopInZone[_data.toBytes2(11)][_data.toBytes16(13)].push(newShopAddress) - 1;\n      shop[newShopAddress].detherShop = true;\n      emit RegisterShop(newShopAddress);\n      bank.addTokenShop(newShopAddress, _value);\n      dth.transfer(address(bank), _value);\n    }\n  }\n\n  /**\n   * a teller can update his profile\n   * If a teller want to change his location, he would need to delete and recreate\n   * a new point\n   */\n  function updateTeller(\n    int8 currencyId,\n    bytes16 messenger,\n    int8 avatarId,\n    int16 rates,\n    bool online\n   ) public payable {\n    require(isTeller(msg.sender));\n    if (currencyId != teller[msg.sender].currencyId)\n    teller[msg.sender].currencyId = currencyId;\n    if (teller[msg.sender].messenger != messenger)\n     teller[msg.sender].messenger = messenger;\n    if (teller[msg.sender].avatarId != avatarId)\n     teller[msg.sender].avatarId = avatarId;\n    if (teller[msg.sender].rates != rates)\n     teller[msg.sender].rates = rates;\n    if (teller[msg.sender].online != online)\n      teller[msg.sender].online = online;\n    if (msg.value > 0) {\n      bank.addEthTeller.value(msg.value)(msg.sender, msg.value);\n    }\n    emit UpdateTeller(msg.sender);\n  }\n\n  // mapping for limiting the sell amount\n  //      tier             countryId usdDailyLimit\n  mapping(uint => mapping (bytes2 => uint)) limitTier;\n\n  function setSellDailyLimit(uint _tier, bytes2 _countryId, uint256 _limitUsd) public onlyCFO {\n    limitTier[_tier][_countryId] = _limitUsd;\n  }\n  function getSellDailyLimit(uint _tier, bytes2 _countryId) public view returns(uint256 limitUsd) {\n    limitUsd = limitTier[_tier][_countryId];\n  }\n\n  modifier doesNotExceedDailySellLimit(address _teller, uint256 _weiSellAmount) {\n    // limits are set per country\n    bytes2 countryId = teller[_teller].countryId;\n\n    // user is always tier1, and could be tier2\n    uint256 usdDailyLimit = getSellDailyLimit(isTier2(_teller) ? 2 : 1, countryId);\n\n    // weiPriceOneUsd is set by the oracle (which runs every day at midnight)\n    uint256 weiDailyLimit = SafeMath.mul(priceOracle.getWeiPriceOneUsd(), usdDailyLimit);\n\n    // with each sell we update wei sold today for that user inside the Bank contract\n    uint256 weiSoldToday = bank.getWeiSoldToday(_teller);\n\n    uint256 newWeiSoldToday = SafeMath.add(weiSoldToday, _weiSellAmount);\n\n    // we may not exceed the daily wei limit with this sell\n    require(newWeiSoldToday <= weiDailyLimit);\n    _;\n  }\n\n  function getPairSellLoyaltyPerc(address _from, address _to) public view returns(uint256) {\n    return pairSellsLoyaltyPerc[_from][_to];\n  }\n\n  function getLoyaltyPoints(address who) public view returns (uint256) {\n    return loyaltyPoints[who];\n  }\n\n  /**\n   * SellEth\n   * average gas cost: 123173\n   * @param _to -> the address for the receiver\n   * @param _amount -> the amount to send\n   */\n  function sellEth(address _to, uint _amount)\n    whenNotPaused\n    doesNotExceedDailySellLimit(msg.sender, _amount)\n    external\n  {\n    require(isTeller(msg.sender));\n    require(_to != msg.sender);\n    // send eth to the receiver from the bank contract\n    // this will also update eth amount sold 'today' by msg.sender\n    bank.withdrawEth(msg.sender, _to, _amount);\n\n    // increase reput for the buyer and the seller Only if the buyer is also whitelisted,\n    // It's a way to incentive user to trade on the system\n    if (smsCertifier.certified(_to)) {\n      uint currentSellerLoyaltyPointsPerc = pairSellsLoyaltyPerc[msg.sender][_to];\n      if (currentSellerLoyaltyPointsPerc == 0) {\n        // this is the first sell between seller and buyer, set to 100%\n        pairSellsLoyaltyPerc[msg.sender][_to] = 10000;\n        currentSellerLoyaltyPointsPerc = 10000;\n      }\n\n      // add percentage of loyaltyPoints of this sell to seller's loyaltyPoints\n      loyaltyPoints[msg.sender] = SafeMath.add(loyaltyPoints[msg.sender], SafeMath.mul(_amount, currentSellerLoyaltyPointsPerc) / 10000);\n\n      // update the loyaltyPoints percentage of the seller, there will be a 21% decrease with every sell to the same buyer (100 - 21 = 79)\n      pairSellsLoyaltyPerc[msg.sender][_to] = SafeMath.mul(currentSellerLoyaltyPointsPerc, 79) / 100;\n\n      volumeBuy[_to] = SafeMath.add(volumeBuy[_to], _amount);\n      volumeSell[msg.sender] = SafeMath.add(volumeSell[msg.sender], _amount);\n      nbTrade[msg.sender] += 1;\n    }\n    emit Sent(msg.sender, _to, _amount);\n  }\n\n  /**\n   * switchStatus\n   * Turn status teller on/off\n   */\n  function switchStatus(bool _status) external {\n    if (teller[msg.sender].online != _status)\n     teller[msg.sender].online = _status;\n  }\n\n  /**\n   * addFunds\n   * teller can add more funds on his sellpoint\n   */\n  function addFunds() external payable {\n    require(isTeller(msg.sender));\n    require(bank.addEthTeller.value(msg.value)(msg.sender, msg.value));\n  }\n\n  // gas used 67841\n  // a teller can delete a sellpoint\n  function deleteTeller() external {\n    require(isTeller(msg.sender));\n    bytes2 countryId = teller[msg.sender].countryId;\n    uint x18 = teller[msg.sender].x18;\n    uint y18 = teller[msg.sender].y18;\n\n    uint tellerCountInZone = tellerInZone[countryId][x18][y18].length;\n    if (tellerCountInZone == 1) {\n      // the teller to remove is the only teller in this zone\n      tellerInZone[countryId][x18][y18].length--;\n    } else {\n      // there are other tellers in this zone besides the one we want to remove\n      uint removeTellerZoneIdx = teller[msg.sender].zoneIndex;\n\n      if (removeTellerZoneIdx == (tellerCountInZone - 1)) {\n        // the teller to remove is the last in the array, remove it\n        tellerInZone[countryId][x18][y18].length--;\n      } else {\n        // the teller is not the last in the array\n        address lastTellerZone = tellerInZone[countryId][x18][y18][tellerCountInZone - 1];\n        tellerInZone[countryId][x18][y18][removeTellerZoneIdx] = lastTellerZone;\n        teller[lastTellerZone].zoneIndex = removeTellerZoneIdx;\n        tellerInZone[countryId][x18][y18].length--;\n      }\n    }\n\n    uint removeTellerIdx = teller[msg.sender].generalIndex;\n\n    if (tellerIndex.length == 1) {\n      // the teller to remove is the only teller\n      tellerIndex.length--;\n    } else {\n      // there are more tellers besides the one we are removing\n      if (removeTellerIdx == (tellerIndex.length - 1)) {\n        // the teller to remove is the last in the list\n        tellerIndex.length--;\n      } else {\n        // the teller is not the last in the array\n        address lastTeller = tellerIndex[tellerIndex.length - 1];\n        tellerIndex[removeTellerIdx] = lastTeller;\n        teller[lastTeller].generalIndex = removeTellerIdx;\n        tellerIndex.length--;\n      }\n    }\n\n    delete teller[msg.sender];\n\n    bank.withdrawDthTeller(msg.sender);\n    bank.refundEth(msg.sender);\n    emit DeleteTeller(msg.sender);\n  }\n\n  // gas used 67841\n  // A moderator can delete a sellpoint\n  function deleteTellerMods(address _toDelete) isTellerModerator(msg.sender) external {\n    require(isTeller(_toDelete));\n    bytes2 countryId = teller[_toDelete].countryId;\n    uint x18 = teller[_toDelete].x18;\n    uint y18 = teller[_toDelete].y18;\n\n    uint tellerCountInZone = tellerInZone[countryId][x18][y18].length;\n    if (tellerCountInZone == 1) {\n      // the teller to remove is the only teller in this zone\n      tellerInZone[countryId][x18][y18].length--;\n    } else {\n      // there are other tellers in this zone besides the one we want to remove\n      uint removeTellerZoneIdx = teller[_toDelete].zoneIndex;\n\n      if (removeTellerZoneIdx == (tellerCountInZone - 1)) {\n        // the teller to remove is the last in the array, remove it\n        tellerInZone[countryId][x18][y18].length--;\n      } else {\n        // the teller is not the last in the array\n        address lastTellerZone = tellerInZone[countryId][x18][y18][tellerCountInZone - 1];\n        tellerInZone[countryId][x18][y18][removeTellerZoneIdx] = lastTellerZone;\n        teller[lastTellerZone].zoneIndex = removeTellerZoneIdx;\n        tellerInZone[countryId][x18][y18].length--;\n      }\n    }\n\n    uint removeTellerIdx = teller[_toDelete].generalIndex;\n\n    if (tellerIndex.length == 1) {\n      // the teller to remove is the only teller\n      tellerIndex.length--;\n    } else {\n      // there are more tellers besides the one we are removing\n      if (removeTellerIdx == (tellerIndex.length - 1)) {\n        // the teller to remove is the last in the list\n        tellerIndex.length--;\n      } else {\n        // the teller is not the last in the array\n        address lastTeller = tellerIndex[tellerIndex.length - 1];\n        tellerIndex[removeTellerIdx] = lastTeller;\n        teller[lastTeller].generalIndex = removeTellerIdx;\n        tellerIndex.length--;\n      }\n    }\n\n    delete teller[_toDelete];\n\n    bank.withdrawDthTeller(_toDelete);\n    bank.refundEth(_toDelete);\n    emit DeleteTellerModerator(msg.sender, _toDelete);\n  }\n\n  // gas used 67841\n  // A shop owner can delete his point.\n  function deleteShop() external {\n    require(isShop(msg.sender));\n    uint rowToDelete1 = shop[msg.sender].zoneIndex;\n    address keyToMove1 = shopInZone[shop[msg.sender].countryId][shop[msg.sender].postalCode][shopInZone[shop[msg.sender].countryId][shop[msg.sender].postalCode].length - 1];\n    shopInZone[shop[msg.sender].countryId][shop[msg.sender].postalCode][rowToDelete1] = keyToMove1;\n    shop[keyToMove1].zoneIndex = rowToDelete1;\n    shopInZone[shop[msg.sender].countryId][shop[msg.sender].postalCode].length--;\n\n    uint rowToDelete2 = shop[msg.sender].generalIndex;\n    address keyToMove2 = shopIndex[shopIndex.length - 1];\n    shopIndex[rowToDelete2] = keyToMove2;\n    shop[keyToMove2].generalIndex = rowToDelete2;\n    shopIndex.length--;\n    delete shop[msg.sender];\n    bank.withdrawDthShop(msg.sender);\n    emit DeleteShop(msg.sender);\n  }\n\n  // gas used 67841\n  // Moderator can delete a shop point\n  function deleteShopMods(address _toDelete) isShopModerator(msg.sender) external {\n    uint rowToDelete1 = shop[_toDelete].zoneIndex;\n    address keyToMove1 = shopInZone[shop[_toDelete].countryId][shop[_toDelete].postalCode][shopInZone[shop[_toDelete].countryId][shop[_toDelete].postalCode].length - 1];\n    shopInZone[shop[_toDelete].countryId][shop[_toDelete].postalCode][rowToDelete1] = keyToMove1;\n    shop[keyToMove1].zoneIndex = rowToDelete1;\n    shopInZone[shop[_toDelete].countryId][shop[_toDelete].postalCode].length--;\n\n    uint rowToDelete2 = shop[_toDelete].generalIndex;\n    address keyToMove2 = shopIndex[shopIndex.length - 1];\n    shopIndex[rowToDelete2] = keyToMove2;\n    shop[keyToMove2].generalIndex = rowToDelete2;\n    shopIndex.length--;\n    if (!shop[_toDelete].detherShop)\n      bank.withdrawDthShop(_toDelete);\n    else\n      bank.withdrawDthShopAdmin(_toDelete, csoAddress);\n    delete shop[_toDelete];\n    emit DeleteShopModerator(msg.sender, _toDelete);\n  }\n\n  /**\n   *  GETTER\n   */\n\n  // get teller\n  // return teller info\n  function getTeller(address _teller) public view returns (\n    uint x18,\n    uint y18,\n    bytes2 countryId,\n    int8 currencyId,\n    bytes16 messenger,\n    int8 avatarId,\n    int16 rates,\n    uint balance,\n    bool online,\n    bool buyer,\n    int16 buyRates\n    ) {\n    Teller storage theTeller = teller[_teller];\n    x18 = theTeller.x18;\n    y18 = theTeller.y18;\n    countryId = theTeller.countryId;\n    currencyId = theTeller.currencyId;\n    messenger = theTeller.messenger;\n    avatarId = theTeller.avatarId;\n    rates = theTeller.rates;\n    online = theTeller.online;\n    buyer = theTeller.buyer;\n    buyRates = theTeller.buyRates;\n    balance = bank.getEthBalTeller(_teller);\n  }\n\n  /*\n   * Shop ----------------------------------\n   * return Shop value\n   */\n  function getShop(address _shop) public view returns (\n   int32 lat,\n   int32 lng,\n   bytes2 countryId,\n   bytes16 postalCode,\n   bytes16 cat,\n   bytes16 name,\n   bytes32 description,\n   bytes16 opening\n   ) {\n    Shop storage theShop = shop[_shop];\n    lat = theShop.lat;\n    lng = theShop.lng;\n    countryId = theShop.countryId;\n    postalCode = theShop.postalCode;\n    cat = theShop.cat;\n    name = theShop.name;\n    description = theShop.description;\n    opening = theShop.opening;\n   }\n\n   // get reput\n   // return reputation data from teller\n  function getReput(address _teller) public view returns (\n   uint buyVolume,\n   uint sellVolume,\n   uint numTrade,\n   uint256 loyaltyPoints_\n   ) {\n     buyVolume = volumeBuy[_teller];\n     sellVolume = volumeSell[_teller];\n     numTrade = nbTrade[_teller];\n     loyaltyPoints_ = loyaltyPoints[_teller];\n  }\n  // return balance of teller put in escrow\n  function getTellerBalance(address _teller) public view returns (uint) {\n    return bank.getEthBalTeller(_teller);\n  }\n\n  // return an array of address of all zone present on a zone\n  // zone is a mapping COUNTRY => POSTALCODE\n  function getZoneShop(bytes2 _country, bytes16 _postalcode) public view returns (address[]) {\n     return shopInZone[_country][_postalcode];\n  }\n\n  // return array of address of all shop\n  function getAllShops() public view returns (address[]) {\n   return shopIndex;\n  }\n\n  function isShop(address _shop) public view returns (bool ){\n   return (shop[_shop].countryId != bytes2(0x0));\n  }\n\n  // return an array of address of all teller present on a zone\n  // zone is a mapping COUNTRY => POSTALCODE\n  function getZoneTeller(bytes2 _country, uint x18, uint y18) public view returns (address[]) {\n     return tellerInZone[_country][x18][y18];\n  }\n\n  // return array of address of all teller\n  function getAllTellers() public view returns (address[]) {\n   return tellerIndex;\n  }\n\n  // return if teller or not\n  function isTeller(address _teller) public view returns (bool ){\n    return (teller[_teller].countryId != bytes2(0x0));\n  }\n\n  /*\n   * misc\n   */\n   // return info about how much DTH the shop has staked\n  function getStakedShop(address _shop) public view returns (uint) {\n    return bank.getDthShop(_shop);\n  }\n  // return info about how much DTH the teller has staked\n  function getStakedTeller(address _teller) public view returns (uint) {\n    return bank.getDthTeller(_teller);\n  }\n  // give ownership to the bank contract\n  function transferBankOwnership(address _newbankowner) external onlyCEO whenPaused {\n    bank.transferOwnership(_newbankowner);\n  }\n}\n",
  "sourcePath": "/Users/citizenzero/Projects/dether/detherContracts/contracts/DetherCore.sol",
  "compiler": {
    "name": "solc",
    "version": "0.4.23+commit.124ca40d.Emscripten.clang"
  },
  "schemaVersion": "2.0.0",
  "updatedAt": "2018-06-03T20:34:18.221Z"
}