{
  "contractName": "DetherSetup",
  "abi": [
    {
      "constant": true,
      "inputs": [],
      "name": "cfoAddress",
      "outputs": [
        {
          "name": "",
          "type": "address"
        }
      ],
      "payable": false,
      "stateMutability": "view",
      "type": "function"
    },
    {
      "constant": true,
      "inputs": [],
      "name": "ceoAddress",
      "outputs": [
        {
          "name": "",
          "type": "address"
        }
      ],
      "payable": false,
      "stateMutability": "view",
      "type": "function"
    },
    {
      "constant": true,
      "inputs": [],
      "name": "kycCertifier",
      "outputs": [
        {
          "name": "",
          "type": "address"
        }
      ],
      "payable": false,
      "stateMutability": "view",
      "type": "function"
    },
    {
      "constant": true,
      "inputs": [
        {
          "name": "",
          "type": "bytes2"
        }
      ],
      "name": "licenceShop",
      "outputs": [
        {
          "name": "",
          "type": "uint256"
        }
      ],
      "payable": false,
      "stateMutability": "view",
      "type": "function"
    },
    {
      "constant": false,
      "inputs": [
        {
          "name": "_newCMO",
          "type": "address"
        }
      ],
      "name": "setCMO",
      "outputs": [],
      "payable": false,
      "stateMutability": "nonpayable",
      "type": "function"
    },
    {
      "constant": false,
      "inputs": [
        {
          "name": "_newCSO",
          "type": "address"
        }
      ],
      "name": "setCSO",
      "outputs": [],
      "payable": false,
      "stateMutability": "nonpayable",
      "type": "function"
    },
    {
      "constant": true,
      "inputs": [],
      "name": "csoAddress",
      "outputs": [
        {
          "name": "",
          "type": "address"
        }
      ],
      "payable": false,
      "stateMutability": "view",
      "type": "function"
    },
    {
      "constant": false,
      "inputs": [
        {
          "name": "_newCEO",
          "type": "address"
        }
      ],
      "name": "setCEO",
      "outputs": [],
      "payable": false,
      "stateMutability": "nonpayable",
      "type": "function"
    },
    {
      "constant": true,
      "inputs": [],
      "name": "smsCertifier",
      "outputs": [
        {
          "name": "",
          "type": "address"
        }
      ],
      "payable": false,
      "stateMutability": "view",
      "type": "function"
    },
    {
      "constant": false,
      "inputs": [],
      "name": "unpause",
      "outputs": [],
      "payable": false,
      "stateMutability": "nonpayable",
      "type": "function"
    },
    {
      "constant": false,
      "inputs": [
        {
          "name": "_newCFO",
          "type": "address"
        }
      ],
      "name": "setCFO",
      "outputs": [],
      "payable": false,
      "stateMutability": "nonpayable",
      "type": "function"
    },
    {
      "constant": false,
      "inputs": [
        {
          "name": "_moderator",
          "type": "address"
        }
      ],
      "name": "removeShopModerator",
      "outputs": [],
      "payable": false,
      "stateMutability": "nonpayable",
      "type": "function"
    },
    {
      "constant": true,
      "inputs": [],
      "name": "paused",
      "outputs": [
        {
          "name": "",
          "type": "bool"
        }
      ],
      "payable": false,
      "stateMutability": "view",
      "type": "function"
    },
    {
      "constant": true,
      "inputs": [
        {
          "name": "",
          "type": "address"
        }
      ],
      "name": "shopModerators",
      "outputs": [
        {
          "name": "",
          "type": "bool"
        }
      ],
      "payable": false,
      "stateMutability": "view",
      "type": "function"
    },
    {
      "constant": true,
      "inputs": [
        {
          "name": "",
          "type": "bytes2"
        }
      ],
      "name": "openedCountryShop",
      "outputs": [
        {
          "name": "",
          "type": "bool"
        }
      ],
      "payable": false,
      "stateMutability": "view",
      "type": "function"
    },
    {
      "constant": false,
      "inputs": [
        {
          "name": "_moderator",
          "type": "address"
        }
      ],
      "name": "setShopModerator",
      "outputs": [],
      "payable": false,
      "stateMutability": "nonpayable",
      "type": "function"
    },
    {
      "constant": false,
      "inputs": [],
      "name": "pause",
      "outputs": [],
      "payable": false,
      "stateMutability": "nonpayable",
      "type": "function"
    },
    {
      "constant": true,
      "inputs": [],
      "name": "cmoAddress",
      "outputs": [
        {
          "name": "",
          "type": "address"
        }
      ],
      "payable": false,
      "stateMutability": "view",
      "type": "function"
    },
    {
      "constant": false,
      "inputs": [
        {
          "name": "_moderator",
          "type": "address"
        }
      ],
      "name": "removeTellerModerator",
      "outputs": [],
      "payable": false,
      "stateMutability": "nonpayable",
      "type": "function"
    },
    {
      "constant": true,
      "inputs": [
        {
          "name": "",
          "type": "address"
        }
      ],
      "name": "tellerModerators",
      "outputs": [
        {
          "name": "",
          "type": "bool"
        }
      ],
      "payable": false,
      "stateMutability": "view",
      "type": "function"
    },
    {
      "constant": true,
      "inputs": [
        {
          "name": "",
          "type": "bytes2"
        }
      ],
      "name": "openedCountryTeller",
      "outputs": [
        {
          "name": "",
          "type": "bool"
        }
      ],
      "payable": false,
      "stateMutability": "view",
      "type": "function"
    },
    {
      "constant": false,
      "inputs": [
        {
          "name": "_moderator",
          "type": "address"
        }
      ],
      "name": "setTellerModerator",
      "outputs": [],
      "payable": false,
      "stateMutability": "nonpayable",
      "type": "function"
    },
    {
      "constant": true,
      "inputs": [],
      "name": "run2",
      "outputs": [
        {
          "name": "",
          "type": "bool"
        }
      ],
      "payable": false,
      "stateMutability": "view",
      "type": "function"
    },
    {
      "constant": true,
      "inputs": [
        {
          "name": "",
          "type": "bytes2"
        }
      ],
      "name": "licenceTeller",
      "outputs": [
        {
          "name": "",
          "type": "uint256"
        }
      ],
      "payable": false,
      "stateMutability": "view",
      "type": "function"
    },
    {
      "constant": true,
      "inputs": [],
      "name": "run1",
      "outputs": [
        {
          "name": "",
          "type": "bool"
        }
      ],
      "payable": false,
      "stateMutability": "view",
      "type": "function"
    },
    {
      "anonymous": false,
      "inputs": [
        {
          "indexed": false,
          "name": "newContract",
          "type": "address"
        }
      ],
      "name": "ContractUpgrade",
      "type": "event"
    },
    {
      "constant": true,
      "inputs": [
        {
          "name": "_user",
          "type": "address"
        }
      ],
      "name": "isTier1",
      "outputs": [
        {
          "name": "",
          "type": "bool"
        }
      ],
      "payable": false,
      "stateMutability": "view",
      "type": "function"
    },
    {
      "constant": true,
      "inputs": [
        {
          "name": "_user",
          "type": "address"
        }
      ],
      "name": "isTier2",
      "outputs": [
        {
          "name": "",
          "type": "bool"
        }
      ],
      "payable": false,
      "stateMutability": "view",
      "type": "function"
    },
    {
      "constant": false,
      "inputs": [
        {
          "name": "_smsCertifier",
          "type": "address"
        }
      ],
      "name": "setSmsCertifier",
      "outputs": [],
      "payable": false,
      "stateMutability": "nonpayable",
      "type": "function"
    },
    {
      "constant": false,
      "inputs": [
        {
          "name": "_kycCertifier",
          "type": "address"
        }
      ],
      "name": "setKycCertifier",
      "outputs": [],
      "payable": false,
      "stateMutability": "nonpayable",
      "type": "function"
    },
    {
      "constant": false,
      "inputs": [
        {
          "name": "country",
          "type": "bytes2"
        },
        {
          "name": "price",
          "type": "uint256"
        }
      ],
      "name": "setLicenceShopPrice",
      "outputs": [],
      "payable": false,
      "stateMutability": "nonpayable",
      "type": "function"
    },
    {
      "constant": false,
      "inputs": [
        {
          "name": "country",
          "type": "bytes2"
        },
        {
          "name": "price",
          "type": "uint256"
        }
      ],
      "name": "setLicenceTellerPrice",
      "outputs": [],
      "payable": false,
      "stateMutability": "nonpayable",
      "type": "function"
    },
    {
      "constant": false,
      "inputs": [
        {
          "name": "_country",
          "type": "bytes2"
        }
      ],
      "name": "openZoneShop",
      "outputs": [],
      "payable": false,
      "stateMutability": "nonpayable",
      "type": "function"
    },
    {
      "constant": false,
      "inputs": [
        {
          "name": "_country",
          "type": "bytes2"
        }
      ],
      "name": "closeZoneShop",
      "outputs": [],
      "payable": false,
      "stateMutability": "nonpayable",
      "type": "function"
    },
    {
      "constant": false,
      "inputs": [
        {
          "name": "_country",
          "type": "bytes2"
        }
      ],
      "name": "openZoneTeller",
      "outputs": [],
      "payable": false,
      "stateMutability": "nonpayable",
      "type": "function"
    },
    {
      "constant": false,
      "inputs": [
        {
          "name": "_country",
          "type": "bytes2"
        }
      ],
      "name": "closeZoneTeller",
      "outputs": [],
      "payable": false,
      "stateMutability": "nonpayable",
      "type": "function"
    }
  ],
  "bytecode": "0x60806040526000600660006101000a81548160ff0219169083151502179055506000600660016101000a81548160ff0219169083151502179055506000600660026101000a81548160ff02191690831515021790555034801561006157600080fd5b50611e33806100716000396000f3006080604052600436106101b7576000357c0100000000000000000000000000000000000000000000000000000000900463ffffffff1680630519ce79146101bc5780630a0f8168146102135780630d46f91a1461026a5780630d926f7a146102c15780631d32f106146103235780632072863b146103715780632105c049146103b45780632272b0af146103f757806327d7874c1461044e5780632e3a4def1461049157806330a55316146104ec5780633f4ba83a146105435780634e0a33791461055a578063529e65e11461059d5780635c975abb146105e057806366d5eb9b1461060f57806367bb15ad1461065d578063744955a9146106b857806378843a951461071e578063809ffb20146107795780638456cb59146107bc5780638c267b97146107d35780639a8061e81461082a5780639ae120dd14610882578063aa5a11c5146108d0578063ba2a98f214610913578063c640ee3d14610961578063ca34333b146109bc578063d0a4a81b14610a22578063d4f639ea14610a65578063e019ac2914610a94578063f2d15c4814610ad7578063f3943ca914610b2f578063f983c0fa14610b91578063fcf3438c14610bc0575b600080fd5b3480156101c857600080fd5b506101d1610c03565b604051808273ffffffffffffffffffffffffffffffffffffffff1673ffffffffffffffffffffffffffffffffffffffff16815260200191505060405180910390f35b34801561021f57600080fd5b50610228610c29565b604051808273ffffffffffffffffffffffffffffffffffffffff1673ffffffffffffffffffffffffffffffffffffffff16815260200191505060405180910390f35b34801561027657600080fd5b5061027f610c4e565b604051808273ffffffffffffffffffffffffffffffffffffffff1673ffffffffffffffffffffffffffffffffffffffff16815260200191505060405180910390f35b3480156102cd57600080fd5b5061030d60048036038101908080357dffffffffffffffffffffffffffffffffffffffffffffffffffffffffffff19169060200190929190505050610c74565b6040518082815260200191505060405180910390f35b34801561032f57600080fd5b5061036f60048036038101908080357dffffffffffffffffffffffffffffffffffffffffffffffffffffffffffff19169060200190929190505050610c8c565b005b34801561037d57600080fd5b506103b2600480360381019080803573ffffffffffffffffffffffffffffffffffffffff169060200190929190505050610d59565b005b3480156103c057600080fd5b506103f5600480360381019080803573ffffffffffffffffffffffffffffffffffffffff169060200190929190505050610e34565b005b34801561040357600080fd5b5061040c610f0f565b604051808273ffffffffffffffffffffffffffffffffffffffff1673ffffffffffffffffffffffffffffffffffffffff16815260200191505060405180910390f35b34801561045a57600080fd5b5061048f600480360381019080803573ffffffffffffffffffffffffffffffffffffffff169060200190929190505050610f35565b005b34801561049d57600080fd5b506104d2600480360381019080803573ffffffffffffffffffffffffffffffffffffffff16906020019092919050505061100f565b604051808215151515815260200191505060405180910390f35b3480156104f857600080fd5b50610501611110565b604051808273ffffffffffffffffffffffffffffffffffffffff1673ffffffffffffffffffffffffffffffffffffffff16815260200191505060405180910390f35b34801561054f57600080fd5b50610558611136565b005b34801561056657600080fd5b5061059b600480360381019080803573ffffffffffffffffffffffffffffffffffffffff1690602001909291905050506111c9565b005b3480156105a957600080fd5b506105de600480360381019080803573ffffffffffffffffffffffffffffffffffffffff1690602001909291905050506112a4565b005b3480156105ec57600080fd5b506105f561135a565b604051808215151515815260200191505060405180910390f35b34801561061b57600080fd5b5061065b60048036038101908080357dffffffffffffffffffffffffffffffffffffffffffffffffffffffffffff1916906020019092919050505061136d565b005b34801561066957600080fd5b5061069e600480360381019080803573ffffffffffffffffffffffffffffffffffffffff16906020019092919050505061143a565b604051808215151515815260200191505060405180910390f35b3480156106c457600080fd5b5061070460048036038101908080357dffffffffffffffffffffffffffffffffffffffffffffffffffffffffffff1916906020019092919050505061145a565b604051808215151515815260200191505060405180910390f35b34801561072a57600080fd5b5061075f600480360381019080803573ffffffffffffffffffffffffffffffffffffffff16906020019092919050505061147a565b604051808215151515815260200191505060405180910390f35b34801561078557600080fd5b506107ba600480360381019080803573ffffffffffffffffffffffffffffffffffffffff16906020019092919050505061157b565b005b3480156107c857600080fd5b506107d161166d565b005b3480156107df57600080fd5b506107e8611701565b604051808273ffffffffffffffffffffffffffffffffffffffff1673ffffffffffffffffffffffffffffffffffffffff16815260200191505060405180910390f35b34801561083657600080fd5b5061088060048036038101908080357dffffffffffffffffffffffffffffffffffffffffffffffffffffffffffff1916906020019092919080359060200190929190505050611727565b005b34801561088e57600080fd5b506108ce60048036038101908080357dffffffffffffffffffffffffffffffffffffffffffffffffffffffffffff191690602001909291905050506117e1565b005b3480156108dc57600080fd5b50610911600480360381019080803573ffffffffffffffffffffffffffffffffffffffff1690602001909291905050506118ae565b005b34801561091f57600080fd5b5061095f60048036038101908080357dffffffffffffffffffffffffffffffffffffffffffffffffffffffffffff19169060200190929190505050611964565b005b34801561096d57600080fd5b506109a2600480360381019080803573ffffffffffffffffffffffffffffffffffffffff169060200190929190505050611a31565b604051808215151515815260200191505060405180910390f35b3480156109c857600080fd5b50610a0860048036038101908080357dffffffffffffffffffffffffffffffffffffffffffffffffffffffffffff19169060200190929190505050611a51565b604051808215151515815260200191505060405180910390f35b348015610a2e57600080fd5b50610a63600480360381019080803573ffffffffffffffffffffffffffffffffffffffff169060200190929190505050611a71565b005b348015610a7157600080fd5b50610a7a611b63565b604051808215151515815260200191505060405180910390f35b348015610aa057600080fd5b50610ad5600480360381019080803573ffffffffffffffffffffffffffffffffffffffff169060200190929190505050611b76565b005b348015610ae357600080fd5b50610b2d60048036038101908080357dffffffffffffffffffffffffffffffffffffffffffffffffffffffffffff1916906020019092919080359060200190929190505050611c4c565b005b348015610b3b57600080fd5b50610b7b60048036038101908080357dffffffffffffffffffffffffffffffffffffffffffffffffffffffffffff19169060200190929190505050611d06565b6040518082815260200191505060405180910390f35b348015610b9d57600080fd5b50610ba6611d1e565b604051808215151515815260200191505060405180910390f35b348015610bcc57600080fd5b50610c01600480360381019080803573ffffffffffffffffffffffffffffffffffffffff169060200190929190505050611d31565b005b600360009054906101000a900473ffffffffffffffffffffffffffffffffffffffff1681565b6000809054906101000a900473ffffffffffffffffffffffffffffffffffffffff1681565b600760009054906101000a900473ffffffffffffffffffffffffffffffffffffffff1681565b600a6020528060005260406000206000915090505481565b600160009054906101000a900473ffffffffffffffffffffffffffffffffffffffff1673ffffffffffffffffffffffffffffffffffffffff163373ffffffffffffffffffffffffffffffffffffffff16141515610ce857600080fd5b600160096000837dffffffffffffffffffffffffffffffffffffffffffffffffffffffffffff19167dffffffffffffffffffffffffffffffffffffffffffffffffffffffffffff1916815260200190815260200160002060006101000a81548160ff02191690831515021790555050565b6000809054906101000a900473ffffffffffffffffffffffffffffffffffffffff1673ffffffffffffffffffffffffffffffffffffffff163373ffffffffffffffffffffffffffffffffffffffff16141515610db457600080fd5b600073ffffffffffffffffffffffffffffffffffffffff168173ffffffffffffffffffffffffffffffffffffffff1614151515610df057600080fd5b80600160006101000a81548173ffffffffffffffffffffffffffffffffffffffff021916908373ffffffffffffffffffffffffffffffffffffffff16021790555050565b6000809054906101000a900473ffffffffffffffffffffffffffffffffffffffff1673ffffffffffffffffffffffffffffffffffffffff163373ffffffffffffffffffffffffffffffffffffffff16141515610e8f57600080fd5b600073ffffffffffffffffffffffffffffffffffffffff168173ffffffffffffffffffffffffffffffffffffffff1614151515610ecb57600080fd5b80600260006101000a81548173ffffffffffffffffffffffffffffffffffffffff021916908373ffffffffffffffffffffffffffffffffffffffff16021790555050565b600260009054906101000a900473ffffffffffffffffffffffffffffffffffffffff1681565b6000809054906101000a900473ffffffffffffffffffffffffffffffffffffffff1673ffffffffffffffffffffffffffffffffffffffff163373ffffffffffffffffffffffffffffffffffffffff16141515610f9057600080fd5b600073ffffffffffffffffffffffffffffffffffffffff168173ffffffffffffffffffffffffffffffffffffffff1614151515610fcc57600080fd5b806000806101000a81548173ffffffffffffffffffffffffffffffffffffffff021916908373ffffffffffffffffffffffffffffffffffffffff16021790555050565b6000600760009054906101000a900473ffffffffffffffffffffffffffffffffffffffff1673ffffffffffffffffffffffffffffffffffffffff1663cc1d4c02836040518263ffffffff167c0100000000000000000000000000000000000000000000000000000000028152600401808273ffffffffffffffffffffffffffffffffffffffff1673ffffffffffffffffffffffffffffffffffffffff168152602001915050602060405180830381600087803b1580156110ce57600080fd5b505af11580156110e2573d6000803e3d6000fd5b505050506040513d60208110156110f857600080fd5b81019080805190602001909291905050509050919050565b600660039054906101000a900473ffffffffffffffffffffffffffffffffffffffff1681565b6000809054906101000a900473ffffffffffffffffffffffffffffffffffffffff1673ffffffffffffffffffffffffffffffffffffffff163373ffffffffffffffffffffffffffffffffffffffff1614151561119157600080fd5b600660009054906101000a900460ff1615156111ac57600080fd5b6000600660006101000a81548160ff021916908315150217905550565b6000809054906101000a900473ffffffffffffffffffffffffffffffffffffffff1673ffffffffffffffffffffffffffffffffffffffff163373ffffffffffffffffffffffffffffffffffffffff1614151561122457600080fd5b600073ffffffffffffffffffffffffffffffffffffffff168173ffffffffffffffffffffffffffffffffffffffff161415151561126057600080fd5b80600360006101000a81548173ffffffffffffffffffffffffffffffffffffffff021916908373ffffffffffffffffffffffffffffffffffffffff16021790555050565b6000809054906101000a900473ffffffffffffffffffffffffffffffffffffffff1673ffffffffffffffffffffffffffffffffffffffff163373ffffffffffffffffffffffffffffffffffffffff161415156112ff57600080fd5b6000600460008373ffffffffffffffffffffffffffffffffffffffff1673ffffffffffffffffffffffffffffffffffffffff16815260200190815260200160002060006101000a81548160ff02191690831515021790555050565b600660009054906101000a900460ff1681565b600160009054906101000a900473ffffffffffffffffffffffffffffffffffffffff1673ffffffffffffffffffffffffffffffffffffffff163373ffffffffffffffffffffffffffffffffffffffff161415156113c957600080fd5b600160086000837dffffffffffffffffffffffffffffffffffffffffffffffffffffffffffff19167dffffffffffffffffffffffffffffffffffffffffffffffffffffffffffff1916815260200190815260200160002060006101000a81548160ff02191690831515021790555050565b60046020528060005260406000206000915054906101000a900460ff1681565b60086020528060005260406000206000915054906101000a900460ff1681565b6000600660039054906101000a900473ffffffffffffffffffffffffffffffffffffffff1673ffffffffffffffffffffffffffffffffffffffff1663cc1d4c02836040518263ffffffff167c0100000000000000000000000000000000000000000000000000000000028152600401808273ffffffffffffffffffffffffffffffffffffffff1673ffffffffffffffffffffffffffffffffffffffff168152602001915050602060405180830381600087803b15801561153957600080fd5b505af115801561154d573d6000803e3d6000fd5b505050506040513d602081101561156357600080fd5b81019080805190602001909291905050509050919050565b6000809054906101000a900473ffffffffffffffffffffffffffffffffffffffff1673ffffffffffffffffffffffffffffffffffffffff163373ffffffffffffffffffffffffffffffffffffffff161415156115d657600080fd5b600073ffffffffffffffffffffffffffffffffffffffff168173ffffffffffffffffffffffffffffffffffffffff161415151561161257600080fd5b6001600460008373ffffffffffffffffffffffffffffffffffffffff1673ffffffffffffffffffffffffffffffffffffffff16815260200190815260200160002060006101000a81548160ff02191690831515021790555050565b6000809054906101000a900473ffffffffffffffffffffffffffffffffffffffff1673ffffffffffffffffffffffffffffffffffffffff163373ffffffffffffffffffffffffffffffffffffffff161415156116c857600080fd5b600660009054906101000a900460ff161515156116e457600080fd5b6001600660006101000a81548160ff021916908315150217905550565b600160009054906101000a900473ffffffffffffffffffffffffffffffffffffffff1681565b600160009054906101000a900473ffffffffffffffffffffffffffffffffffffffff1673ffffffffffffffffffffffffffffffffffffffff163373ffffffffffffffffffffffffffffffffffffffff1614151561178357600080fd5b80600a6000847dffffffffffffffffffffffffffffffffffffffffffffffffffffffffffff19167dffffffffffffffffffffffffffffffffffffffffffffffffffffffffffff19168152602001908152602001600020819055505050565b600160009054906101000a900473ffffffffffffffffffffffffffffffffffffffff1673ffffffffffffffffffffffffffffffffffffffff163373ffffffffffffffffffffffffffffffffffffffff1614151561183d57600080fd5b600060096000837dffffffffffffffffffffffffffffffffffffffffffffffffffffffffffff19167dffffffffffffffffffffffffffffffffffffffffffffffffffffffffffff1916815260200190815260200160002060006101000a81548160ff02191690831515021790555050565b6000809054906101000a900473ffffffffffffffffffffffffffffffffffffffff1673ffffffffffffffffffffffffffffffffffffffff163373ffffffffffffffffffffffffffffffffffffffff1614151561190957600080fd5b6000600560008373ffffffffffffffffffffffffffffffffffffffff1673ffffffffffffffffffffffffffffffffffffffff16815260200190815260200160002060006101000a81548160ff02191690831515021790555050565b600160009054906101000a900473ffffffffffffffffffffffffffffffffffffffff1673ffffffffffffffffffffffffffffffffffffffff163373ffffffffffffffffffffffffffffffffffffffff161415156119c057600080fd5b600060086000837dffffffffffffffffffffffffffffffffffffffffffffffffffffffffffff19167dffffffffffffffffffffffffffffffffffffffffffffffffffffffffffff1916815260200190815260200160002060006101000a81548160ff02191690831515021790555050565b60056020528060005260406000206000915054906101000a900460ff1681565b60096020528060005260406000206000915054906101000a900460ff1681565b6000809054906101000a900473ffffffffffffffffffffffffffffffffffffffff1673ffffffffffffffffffffffffffffffffffffffff163373ffffffffffffffffffffffffffffffffffffffff16141515611acc57600080fd5b600073ffffffffffffffffffffffffffffffffffffffff168173ffffffffffffffffffffffffffffffffffffffff1614151515611b0857600080fd5b6001600560008373ffffffffffffffffffffffffffffffffffffffff1673ffffffffffffffffffffffffffffffffffffffff16815260200190815260200160002060006101000a81548160ff02191690831515021790555050565b600660029054906101000a900460ff1681565b6000809054906101000a900473ffffffffffffffffffffffffffffffffffffffff1673ffffffffffffffffffffffffffffffffffffffff163373ffffffffffffffffffffffffffffffffffffffff16141515611bd157600080fd5b600660029054906101000a900460ff16151515611bed57600080fd5b80600760006101000a81548173ffffffffffffffffffffffffffffffffffffffff021916908373ffffffffffffffffffffffffffffffffffffffff1602179055506001600660026101000a81548160ff02191690831515021790555050565b600160009054906101000a900473ffffffffffffffffffffffffffffffffffffffff1673ffffffffffffffffffffffffffffffffffffffff163373ffffffffffffffffffffffffffffffffffffffff16141515611ca857600080fd5b80600b6000847dffffffffffffffffffffffffffffffffffffffffffffffffffffffffffff19167dffffffffffffffffffffffffffffffffffffffffffffffffffffffffffff19168152602001908152602001600020819055505050565b600b6020528060005260406000206000915090505481565b600660019054906101000a900460ff1681565b6000809054906101000a900473ffffffffffffffffffffffffffffffffffffffff1673ffffffffffffffffffffffffffffffffffffffff163373ffffffffffffffffffffffffffffffffffffffff16141515611d8c57600080fd5b600660019054906101000a900460ff16151515611da857600080fd5b80600660036101000a81548173ffffffffffffffffffffffffffffffffffffffff021916908373ffffffffffffffffffffffffffffffffffffffff1602179055506001600660016101000a81548160ff021916908315150217905550505600a165627a7a72305820d01f359c41ad7a57aecd85ea85950e5079392d573a20cf29c842f851f420a71f0029",
  "source": "pragma solidity 0.4.23;\n\n// contract\nimport './certifier/Certifier.sol';\nimport './DetherAccessControl.sol';\n\n// library\nimport 'zeppelin-solidity/contracts/math/SafeMath.sol';\n\n/*\n * This contract aim to manage the generals value fo the contracts\n */\n\ncontract DetherSetup is DetherAccessControl  {\n\n  bool public run1 = false;\n  bool public run2 = false;\n  // -Need to be whitelisted to be able to register in the contract as a shop or\n  // teller, there is two level of identification.\n  // -This identification method are now centralised and processed by dether, but\n  // will be decentralised soon\n  Certifier public smsCertifier;\n  Certifier public kycCertifier;\n  // Zone need to be open by the CMO before accepting registration\n  // The bytes2 parameter wait for a country ID (ex: FR (0x4652 in hex) for france cf:README)\n  mapping(bytes2 => bool) public openedCountryShop;\n  mapping(bytes2 => bool) public openedCountryTeller;\n  // For registering in a zone you need to stake DTH\n  // The price can differ by country\n  // Uts now a fixed price by the CMO but the price will adjusted automatically\n  // regarding different factor in the futur smart contract\n  mapping(bytes2 => uint) public licenceShop;\n  mapping(bytes2 => uint) public licenceTeller;\n\n  modifier tier1(address _user) {\n    require(smsCertifier.certified(_user));\n    _;\n  }\n  modifier tier2(address _user) {\n    require(kycCertifier.certified(_user));\n    _;\n  }\n  modifier isZoneShopOpen(bytes2 _country) {\n    require(openedCountryShop[_country]);\n    _;\n  }\n  modifier isZoneTellerOpen(bytes2 _country) {\n    require(openedCountryTeller[_country]);\n    _;\n  }\n\n  function isTier1(address _user) public view returns(bool) {\n    return smsCertifier.certified(_user);\n  }\n  function isTier2(address _user) public view returns(bool) {\n    return kycCertifier.certified(_user);\n  }\n\n  /**\n   * INIT\n   */\n  function setSmsCertifier (address _smsCertifier) external onlyCEO {\n    require(!run1);\n    smsCertifier = Certifier(_smsCertifier);\n    run1 = true;\n  }\n  /**\n   * CORE FUNCTION\n   */\n  function setKycCertifier (address _kycCertifier) external onlyCEO {\n    require(!run2);\n    kycCertifier = Certifier(_kycCertifier);\n    run2 = true;\n  }\n  function setLicenceShopPrice(bytes2 country, uint price) external onlyCMO {\n    licenceShop[country] = price;\n  }\n  function setLicenceTellerPrice(bytes2 country, uint price) external onlyCMO {\n    licenceTeller[country] = price;\n  }\n  function openZoneShop(bytes2 _country) external onlyCMO {\n    openedCountryShop[_country] = true;\n  }\n  function closeZoneShop(bytes2 _country) external onlyCMO {\n    openedCountryShop[_country] = false;\n  }\n  function openZoneTeller(bytes2 _country) external onlyCMO {\n    openedCountryTeller[_country] = true;\n  }\n  function closeZoneTeller(bytes2 _country) external onlyCMO {\n    openedCountryTeller[_country] = false;\n  }\n}\n",
  "sourcePath": "/Users/citizenzero/Projects/dether/detherContracts/contracts/DetherSetup.sol",
  "compiler": {
    "name": "solc",
    "version": "0.4.23+commit.124ca40d.Emscripten.clang"
  },
  "schemaVersion": "2.0.0",
  "updatedAt": "2018-06-03T20:34:18.236Z"
}