{
  "contractName": "ExchangeRateOracle",
  "abi": [
    {
      "constant": true,
      "inputs": [],
      "name": "mkrPriceFeed",
      "outputs": [
        {
          "name": "",
          "type": "address"
        }
      ],
      "payable": false,
      "stateMutability": "view",
      "type": "function"
    },
    {
      "inputs": [
        {
          "name": "mkrPriceFeed_",
          "type": "address"
        }
      ],
      "payable": false,
      "stateMutability": "nonpayable",
      "type": "constructor"
    },
    {
      "constant": true,
      "inputs": [],
      "name": "getWeiPriceOneUsd",
      "outputs": [
        {
          "name": "",
          "type": "uint256"
        }
      ],
      "payable": false,
      "stateMutability": "view",
      "type": "function"
    }
  ],
  "bytecode": "0x608060405234801561001057600080fd5b5060405160208061032783398101806040528101908080519060200190929190505050806000806101000a81548173ffffffffffffffffffffffffffffffffffffffff021916908373ffffffffffffffffffffffffffffffffffffffff160217905550506102a4806100836000396000f30060806040526004361061004c576000357c0100000000000000000000000000000000000000000000000000000000900463ffffffff16806350ccf36b14610051578063a60c58991461007c575b600080fd5b34801561005d57600080fd5b506100666100d3565b6040518082815260200191505060405180910390f35b34801561008857600080fd5b506100916101cb565b604051808273ffffffffffffffffffffffffffffffffffffffff1673ffffffffffffffffffffffffffffffffffffffff16815260200191505060405180910390f35b6000806000806000809054906101000a900473ffffffffffffffffffffffffffffffffffffffff1673ffffffffffffffffffffffffffffffffffffffff166359e02dd76040518163ffffffff167c01000000000000000000000000000000000000000000000000000000000281526004016040805180830381600087803b15801561015d57600080fd5b505af1158015610171573d6000803e3d6000fd5b505050506040513d604081101561018757600080fd5b81019080805190602001909291908051906020019092919050505080935081945050506101c0670de0b6b3a764000084600190046101f0565b905080935050505090565b6000809054906101000a900473ffffffffffffffffffffffffffffffffffffffff1681565b60008161021a61020885670de0b6b3a764000061022c565b60028581151561021457fe5b0461025c565b81151561022357fe5b04905092915050565b60008082148061024b5750828283850292508281151561024857fe5b04145b151561025657600080fd5b92915050565b6000828284019150811015151561027257600080fd5b929150505600a165627a7a723058205081ea1568727019c5f5649393cb51ce6a11935dead1f074a0f5651d7fce45820029",
  "source": "pragma solidity 0.4.23;\n\ncontract DSMath {\n  function add(uint x, uint y) internal pure returns (uint z) {\n    require((z = x + y) >= x);\n  }\n  function mul(uint x, uint y) internal pure returns (uint z) {\n    require(y == 0 || (z = x * y) / y == x);\n  }\n\n  uint constant WAD = 10 ** 18;\n\n  function wdiv(uint x, uint y) internal pure returns (uint z) {\n    z = add(mul(x, WAD), y / 2) / y;\n  }\n}\n\ncontract Medianizer {\n  function peek() constant public returns (bytes32, bool);\n}\n\ncontract ExchangeRateOracle is DSMath {\n\n  Medianizer public mkrPriceFeed;\n\n  constructor(address mkrPriceFeed_) public {\n    mkrPriceFeed = Medianizer(mkrPriceFeed_);\n  }\n\n  /**\n   * @dev Return wei price of 1 USD\n   */\n  function getWeiPriceOneUsd() public view returns(uint) {\n    // get usd price of 1 eth from maker contract\n    bytes32 priceRaw;\n    bool success;\n    (priceRaw, success) = mkrPriceFeed.peek();\n\n    // convert \"1 eth = X usd\" to \"X eth = 1 usd\"\n    uint256 weiPriceOneUsd = DSMath.wdiv(WAD, uint(priceRaw));\n\n    return weiPriceOneUsd;\n  }\n}\n",
  "sourcePath": "/Users/citizenzero/Projects/dether/detherContracts/contracts/ExchangeRateOracle.sol",
  "compiler": {
    "name": "solc",
    "version": "0.4.23+commit.124ca40d.Emscripten.clang"
  },
  "schemaVersion": "2.0.0",
  "updatedAt": "2018-06-03T20:34:18.235Z"
}